:0300000002187A69
:0C187A00787FE4F6D8FD75816C0218C17F
:10000E002E004B0055696E20203A20202020202003
:10001E005600496F7574203A20202020204100554B
:10002E006F7574203A202020202056004F43502018
:10003E00203A2020202020200020202020202020B8
:10004E002020202020202020004F43503A20202026
:10005E002020523A202020000C1C2C3C4CC2F401D3
:10006E000001103FF8010001007FFC080406882201
:10007E008018800884FFFE014002300C183008B151
:10008E00A8100811FC11081108FD281110150019EF
:10009E00F83108D190115011201150118E510421B8
:1000AE0000D0A10100010001000100010005400582
:1000BE002009100908110421044100010001000566
:1000CE00000200D7D300003FF000100020004001D6
:1000DE00800104FFFE01000100010001000100018A
:1000EE0000050002000000000000000000000000FB
:1000FE000000000000000038FCFC3800000000008A
:10010E000D0D000000000E1E00001E0E000000006F
:10011E00000000000020F8F820F8F82000020F0F71
:10012E00020F0F0200387C444747CC9800030604A8
:10013E001C1C07030030300080C06030000C06032A
:10014E0001000C0C0080D87CE4BCD84000070F08DE
:10015E0008070F080000101E0E000000000000002F
:10016E0000000000000000F0F80C04000000000386
:10017E00070C0800000000040CF8F0000000000856
:10018E000C0703000080A0E0C0C0E0A080000203C6
:10019E000101030200008080E0E08080000000008A
:1001AE00030300000000000000000000000000102B
:1001BE001E0E000000808080808080800000000085
:1001CE000000000000000000000000000000000021
:1001DE000C0C00000000000080C06030000C060314
:1001EE000100000000F8FC04C424FCF800070F090D
:1001FE0008080F0700001018FCFC0000000008089B
:10020E000F0F080800080C84C4643C18000E0F0978
:10021E0008080C0C00080C444444FCB800040C08FC
:10022E0008080F0700C0E0B098FCFC80000000003A
:10023E00080F0F08007C7C4444C4C48400040C08DE
:10024E0008080F0700F0F84C4444C08000070F0860
:10025E0008080F07000C0C0484C47C3C0000000F3F
:10026E000F00000000B8FC444444FCB800070F081F
:10027E0008080F0700387C444444FCF800000808C6
:10028E00080C0703000000003030000000000000E2
:10029E0006060000000000003030000000000008DC
:1002AE000E060000000080C060301808000000013B
:1002BE0003060C080040404040404040000202024D
:1002CE0002020202000008183060C0800000080C14
:1002DE000603010000181C04C4E43C1800000000D2
:1002EE000D0D000000F0F808C8C8F8F000070F0860
:1002FE000B0B0B0100E0F0988C98F0E0000F0F0054
:10030E0000000F0F0004FCFC4444FCB800080F0F63
:10031E0008080F0700F0F80C04040C180003070C73
:10032E0008080C060004FCFC040CF8F000080F0F83
:10033E00080C07030004FCFC44E40C1C00080F0F1F
:10034E0008080C0E0004FCFC44E40C1C00080F0F03
:10035E000800000000F0F80C84848C980003070C51
:10036E000808070F00FCFC404040FCFC000F0F008B
:10037E0000000F0F00000004FCFC04000000000849
:10038E000F0F08000000000004FCFC0400070F081B
:10039E00080F07000004FCFCC0F03C0C00080F0F17
:1003AE0000010F0E0004FCFC0400000000080F0FFB
:1003BE0008080C0E00FCFC387038FCFC000F0F0017
:1003CE0000000F0F00FCFC3870E0FCFC000F0F006B
:1003DE0000000F0F00F0F80C040CF8F00003070CEF
:1003EE00080C07030004FCFC44447C3800080F0F83
:1003FE000800000000F8FC040404FCF800070F08D5
:10040E000E3C3F270004FCFC44C4FC3800080F0FD0
:10041E0000000F0F00183C6444C49C1800060E0820
:10042E0008080F0700001C0CFCFC0C1C0000000848
:10043E000F0F080000FCFC000000FCFC00070F087A
:10044E0008080F0700FCFC000000FCFC000103067E
:10045E000C06030100FCFC008000FCFC00030F0EE8
:10046E00030E0F03000C3CF0C0F03C0C000C0F030D
:10047E0000030F0C00003C7CC0C07C3C0000000858
:10048E000F0F0800001C0C84C4643C1C000E0F09E6
:10049E0008080C0E000000FCFC0404000000000F15
:1004AE000F080800003870E0C08000000000000057
:1004BE000103070E0000000404FCFC00000000080D
:1004CE00080F0F0000080C0603060C0800000000C1
:1004DE0000000000000000000000000000202020AE
:1004EE002020202020000003070400000000000050
:1004FE00000000000000A0A0A0E0C00000070F0850
:10050E0008070F080004FCFC2060C08000080F07DD
:10051E0008080F0700C0E0202020604000070F08E9
:10052E0008080C040080C06024FCFC0000070F08C3
:10053E0008070F0800C0E0A0A0A0E0C000070F0849
:10054E0008080C040040F8FC440C180000080F0FBB
:10055E000800000000C0E02020C0E02000276F4807
:10056E00487F3F000004FCFC4020E0C000080F0F55
:10057E0000000F0F00000020ECEC0000000000084F
:10058E000F0F0800000000000020ECEC000030709F
:10059E0040407F3F0004FCFC80C0602000080F0F2D
:1005AE0001030E0C00000004FCFC0000000000081B
:1005BE000F0F080000E0E060C060E0C0000F0F0009
:1005CE000F000F0F0020E0C02020E0C000000F0F32
:1005DE0000000F0F00C0E0202020E0C000070F0831
:1005EE0008080F070020E0C02020E0C000407F7FF9
:1005FE0048080F0700C0E02020C0E02000070F08C9
:10060E00487F7F400020E0C0602060C000080F0FD0
:10061E00080000000040E0A02020604000040C090B
:10062E00090B0E04002020F8FC202000000000071B
:10063E000F080C0400E0E00000E0E00000070F08E7
:10064E0008070F080000E0E00000E0E000000307EC
:10065E000C0C070300E0E0000000E0E000070F0CC8
:10066E00070C0F07002060C080C0602000080C0738
:10067E0003070C0800E0E0000000E0E000474F48F0
:10068E0048683F1F00606020A0E06020000C0E0B49
:10069E0009080C0C00004040F8BC040400000000E7
:1006AE00070F080800000000BCBC0000000000009E
:1006BE000F0F000000000404BCF8404000000808C2
:1006CE000F07000000080C040C080C0400000000CA
:1006DE00000000000080C0603060C080000707048A
:0906EE00040407070000000000ED
:1016AC0001460001470060640000000000000000DB
:1016BC00000000000000000000000000000000001E
:1016CC00000000000000000000000000000000000E
:1016DC0000000000000000000000000000000000FE
:1016EC0000000000000000000000000000000000EE
:1016FC0000000000000000000000000000000000DE
:10170C000000000000000000000000000000143089
:10171C0000000000000000000000000000000000BD
:10172C00000000000A26000000000000000000007D
:10173C0002480000014500014A0001220001250079
:10174C0001442002230000C101C102C1000121009B
:101AAF00E54E2401FBE433FAE4FDFCFF121AD2E504
:101ABF00562410FBE433FAE4FF121AD2E557FB7AEF
:031ACF0000E4FF31
:101AD200A907AF05AE04C2A7D291E924FF9290C232
:101AE200920000EF4E70048B808004EBF4F58000CE
:041AF20000D292226A
:1017ED00C2A6E4FF0FBF64FCC2A7D2A67BE27A00BB
:1017FD00E4FDFCFF121AD2E4FF0FBF64FC7BA07A5C
:10180D0000E4FDFCFF121AD27BC8E4FF121AD27B52
:10181D00A6E4FF121AD27BA4E4FF121AD27BA2E433
:10182D00FF121AD27BF8E4FF121AD27B01E4FF12E9
:10183D001AD27B81E4FF121AD27B23E4FF121AD253
:10184D007B25E4FF121AD27B2FE4FF121AD2E4FF9C
:10185D000FBF64FC7B407A00E4FDFCFF121AD27BC3
:0C186D00AFE4FF121AD2E4FF0FBF64FCCE
:01187900224C
:021AF6008F4B14
:101AF800E4F54CE54C24B0FBE433FAE4FDFCFF12BA
:101B08001AD27B10121ACEE4FBFF121AD2E4F54D5A
:101B1800E54BFB7A00E4FDFC7F01121AD2054DE586
:0F1B28004DC3948040EA054CE54CC3940840C47B
:011B3700228B
:10132E00B200D2B77551FF755200755347E4FBFA00
:03133E007D06FF2A
:081341008F4D8D4E8A4F8B5039
:10134900E54ED3940740037F0022E54DD3948040B6
:10135900037F002274B0254EF54EFB7A00E4FDFCB4
:10136900FF121AD2AB51AA52A953120BD67003021B
:10137900149DE54EFB7A00E4FDFCFF121AD2E54DFF
:10138900C4540FF556E54D540FF557121ABEAB511B
:10139900AA52A953120BD6C3947E5060755420AB40
:1013A90051AA52A953120BD6655460070554E55446
:1013B900B47EECE4F555E55564087003121AAF756F
:1013C900F010E554A42555F582E435F0F583E5825E
:1013D90024F3F582E58334FEF583E493FB7A00ADCB
:1013E90050AC4F7F01121AD20555E555C3941040F0
:1013F900C57408254DF54D7401021491E4F558ABF7
:1014090051AA52A953120BD6FFE55875F022A4240C
:101419006BF582E43400F583E4936F705D9000010D
:10142900120BEFFFE55875F022A4246CF582E43421
:1014390000F583E4936F7042F555E5556410700328
:10144900121AAFE55875F022A4246DF582E4340030
:10145900F583E5822555F582E43583F583E493FB2D
:101469007A00AD50AC4F7F01121AD20555E555C32C
:10147900942040C67410254DF54D0558E558C39480
:1014890032500302140874022553F553E43552F51A
:061499005202136D7F01F9
:01149F00222A
:06117400E4FBFA7D06FC1D
:0A117A008F4D8C4E8D4F8A508B5123
:10118400E4F554F555F556F557F55878597C00FDB6
:101194007BFF7A0679F3FE7F04120BB0C3E5529409
:1011A40000400FE553940AE5529400500575560328
:1011B400804CC3E553940AE5529400400FE55394E0
:1011C40064E552940050057556028032C3E5539489
:1011D40064E5529400400FE55394E8E552940350BB
:1011E400057556018018C3E55394E8E5529403400D
:1011F4000DE5539410E55294275003E4F556AE528E
:10120400AF537C037DE8120C1C8F59AE52AF537C54
:10121400037DE8120C1CAA04AB057D647C00AF03BB
:10122400AE02120C1C8F5A7D647C00AF03AE021216
:101234000C1CAA04AB057D0A7C00AF03AE02120CA1
:101244001C8F5B7D0A7C00AF03AE02120C1C8D5C0C
:10125400D3E54F9407E54E6480948040037F0022D9
:10126400E54DD3948040037F002274B0254FF54FA1
:10127400E4354EF54EAB4FFAE4FDFCFF121AD2856D
:101284005654E554C39404400302132BAB4FAA4EA7
:10129400E4FDFCFF121AD2E54DC4540FF557E54D99
:1012A400540FF558E5572410FBE433FAE4FF121AFF
:1012B400D2E558121ACDE4F555E55564087022E5D7
:1012C4004F2401FBE4354EFAE4FDFCFF121AD2E58B
:1012D400572410FBE433FAE4FF121AD2E558121A29
:1012E400CD74592554F8E675F010A42555F582E41B
:1012F40035F0F583E58224F3F582E5833401F58343
:10130400E493FB7A00AD51AC507F01121AD205551B
:10131400E555C3941040A27408254FF54FE4354EAB
:09132400F54E05540212867F010A
:01132D00229D
:021A1900A9071B
:101A1B00D2A0E96004C2A38002C2A2EC4D24FF92C3
:101A2B00A100E4FFEFC39BEA6480F8748098502018
:101A3B00C2A00000D2A0E9600B30A1041547800DB5
:101A4B000547800930A1041546800205460F80D456
:081A5B00E96003D2A322D2A22C
:011A63002260
:021A6400A907D0
:101A6600D2A0E96004C2A38002C2A2EC4D24FF9278
:101A7600A100E4FFEFC39BEA6480F87480985020CD
:101A8600C2A00000D2A0E9600B30A1041547800D6A
:101A96000547800930A1041546800205460F80D40B
:081AA600E96003D2A322D2A2E1
:011AAE002215
:10190600C3EC64809480405FED9464EC64809480C2
:101916005055EF6028AF477E00ED9F7480F86C98B5
:10192600400BED9FFBEC9EFAE4FDFC800CC3E54703
:101936009DFBE49CFA7D017C007F018027AF467EFB
:1019460000D3ED9F7480F86C98400BED9FFBEC9EE6
:10195600FAE4FDFC800DC3E5469DFBE49CFA7D019F
:081966007C00E4FF121A642268
:101B8C007B647A007D017C00E4FF121A647F0112F1
:091B9C001A647546017547012227
:0B1BB800EF1FAC0670011E4C70F622FF
:1019C700E4FDEF90006693FFE4FBFA000000C2B568
:1019D700D2B2EF30E704D2B38002C2B3EF25E0FF03
:1019E700C2B2000DBD10E9E4FD30B403430301D2D8
:1019F700B2EB25E0FBEA33FAC2B2000DBD10EAD222
:101A0700B5EAC4F854F0C868FAEBC4540F48AE02FC
:011A1700FFCF
:011A180022AB
:08175D008B5E8A5F89608D61DB
:10176500E4F562F563F562E562C395615079E4F5E8
:1017750063E563C39561506BAB5EAA5FA96075F0C5
:1017850002E562A4F58285F083120C71FFAEF07557
:10179500F002E563A4F58285F083120C71FDACF0CF
:1017A500D39FEC9E40398C648D6575F002E562A48B
:1017B500F58285F083120C71FFAEF075F002E563DA
:1017C500A4F58285F083EE8FF0120CA975F002E581
:1017D50062A4F58285F083E5648565F0120CA905A0
:0717E50063808E0562808025
:0117EC0022DA
:0815C0008B5E8A5F89608D617A
:1015C800E4F566F565F564F563AC61120A0C8F6A9B
:1015D8008E698D688C67756B0085616CC3E5629553
:1015E80061FFE49400FEC3E56C9FEE6480F8E56B50
:1015F80064809840030216A3AB66AA65A964A86331
:10160800C000C001C002C003E56C25E0FFE56B33F4
:10161800AB5EAA5FA9608F82F583120C71FDACF0F6
:10162800E4120A07D003D002D001D0001206FE8FC0
:10163800668E658D648C63C004C005C006C00778DB
:10164800677F007E007D807C3F120A77C004C0055A
:10165800C006C007AC61E4120A0CA804A905AA06D2
:10166800AB07D007D006D005D0041209957008FB47
:10167800FA7980783F8006E4FBFAF97840D007D001
:1016880006D005D0041208F88F668E658D648C63C9
:10169800056CE56C7002056B0215E4AF66AE65ADCE
:0316A80064AC63CC
:0116AB00221C
:100D1500AE26AF277C277D10120C1C8E528F53E414
:100D2500FBFAFDFC7F4012117AAE26AF277C277DAA
:100D350010120C1C7E037FE8CFCDCFCECCCE120C8B
:100D45001C8E528F53E4FBFAFDFC7F4812117A7515
:100D550051FF75520075530EE4FBFAFD7F501213D7
:100D650041AE26AF277C277D10120C1C7E037FE841
:100D7500CFCDCFCECCCE120C1C7E007F64CFCDCF95
:100D8500CECCCE120C1C8E528F53E4FBFAFDFC7FA9
:100D95005812117AAE23AF247C007D0A120C1C8EEA
:100DA500528F53E4FBFA7D02FC7F4012117A755194
:100DB500FF75520075530EE4FBFA7D027F4812134E
:100DC50041AE23AF247C007D0A120C1C8C528D533E
:100DD500E4FBFA7D02FC7F5012117AAE2CAF2D7C1C
:100DE500037DE8120C1C8E528F53E4FBFA7D04FC44
:100DF5007F4012117A7551FF75520075530EE4FB51
:100E0500FA7D047F48121341AE2CAF2D7C037DE89B
:100E1500120C1C7E007F64CFCDCFCECCCE120C1C25
:100E25008E528F53E4FBFA7D04FC7F5012117A2019
:100E35000003020F0AE54475F00A84755200F55364
:100E45007F281211747551FF75520075530EE4FB1E
:100E5500FA7D067F30121341E54475F00A84AFF040
:100E65007552008F53E4FBFA7D06FC7F3812117A28
:100E7500AE2EAF2F7C037DE8120C1C8E528F537F54
:100E8500581211747551FF75520075530EE4FBFA33
:100E95007D067F60121341AE2EAF2F7C037DE812D5
:100EA5000C1C7E007F64CFCDCFCECCCE120C1C8E19
:100EB500528F53E4FBFA7D06FC7F6612117AAE2E43
:100EC500AF2F7C037DE8120C1C7E007F64CFCDCF55
:100ED500CECCCE120C1C7E007F0ACFCDCFCECCCE91
:100EE500120C1C8E528F53E4FBFA7D06FC7F7012A8
:100EF500117A7551FF755200755310E4FBFA7D06A2
:100F05007F78021341200041E54475F00A8475524B
:100F150000F553E4FBFA7D06FC7F3812117A755112
:100F2500FF75520075530EE4FBFA7D067F401213E0
:100F350041E54475F00A84AFF07552008F53E4FB28
:0A0F4500FA7D06FC7F4812117A22A3
:081B38008F618E608D5F8C5EF1
:101B4000E4FBFA797A78441208F88F658E648D6325
:101B50008C62AB61AA60A95FA85EE4FFFE7D407C59
:0F1B6000401206FAAB65AA64A963A8621208F8DE
:011B6F002253
:101B70007FFF2093027F012094027F022095027F45
:0B1B8000032096027F042097027F05DF
:011B8B002237
:101BA500758E80758901758CFF758A38D2A9D28C9E
:031BB500D2AF228A
:10196E00121BA575BB70121B8C7D327C007F011281
:10197E001906E4FDFCFF1219061217EDE4FF121A08
:10198E00F67551FF755200755312E4FBFAFDFF1206
:10199E0013417551FF755200755320E4FBFA7D0219
:1019AE00FF1213417551FF75520075532DE4FBFA6A
:0919BE007D04FF121341C2B622A0
:1014A000E4F54BF54C7551FF75520075533A121324
:1014B0003CE54B6003021537120D15121B708F4C63
:1014C000E54CF460ECE54C24FE601D14602E1460C5
:1014D0003614603E2404704CE547C3945F7B017A68
:1014E00000E4FDFC7F01800FE546C3945F7B017A39
:1014F000007D017C00E4FF121A198028E544C394A2
:101500002850210544801DE544D394054016154418
:10151000801212132E7551FF755200755357121316
:101520003B754B017F887E13121BB8121B70EFF4C2
:1015300070030214B180F4E54B640160030215BF2F
:10154000120D15121B708F4CE54CF460EAE54C242B
:10155000FE601D14602E14603614603E2404704C2E
:10156000E547C3945F7B017A00E4FDFC7F01800FB7
:10157000E546C3945F7B017A007D017C00E4FF12A5
:101580001A198028E544C3942850210544801DE59C
:1015900044D3940540161544801212132E7551FF42
:1015A00075520075533A12133BE4F54B7F887E1356
:0F15B000121BB8121B70EFF4700302153780F492
:0115BF002209
:03000B00020F4F92
:100F4F00C0E0C0F0C083C082C0D075D000C000C068
:0D0F5F0001C002C003C004C005C006C007E9
:100F6C00755D00758CFF758A380549E54970020579
:100F7C0048054AE54AB40A26754A00AF221219C739
:100F8C00E52275F014A42400F582E43400F5837591
:100F9C00F002E545120D09EEF0A3EFF00522E52273
:100FAC00B405057522000545E545640A6003021089
:100FBC00D6F545F55DE55D75F014A42400F97400D3
:100FCC0035F0FA7B017D0A12175DE55D75F014A40E
:100FDC002400F9740035F0FA7B017562097D011269
:100FEC0015C0E55D25E025E02430F8120CFDE55D2B
:100FFC007015E55D25E025E02430F8120CE4E4FBE7
:10100C00FA79907841804FE55D64017015E55D25B6
:10101C00E025E02430F8120CE4E4FBFA7940784047
:10102C008034E55D64027015E55D25E025E0243033
:10103C00F8120CE4E4FBFA794078408019E55D6421
:10104C0003702DE55D25E025E02430F8120CE4E476
:10105C00FBFA79C078401207EF7B007AF0797F7841
:10106C00451208F8E4FBFA797A78441207EF8042CB
:10107C00E55D64047048E55D25E025E02430F81258
:10108C000CE4E4FBFA794078401207EF7B007AF02D
:10109C00797F78451208F8E55D25E025E02430F8E5
:1010AC00120CFDE55D25E025E02430F8120CE4126D
:1010BC001B38E55D25E025E02430F8120CFD055DBC
:1010CC00E55DC394055003020FC1E54964887004C3
:1010DC00E54864137077300204C2B78009B201206E
:1010EC000004A20192B7754800754900E52525E07A
:1010FC0025E02430F8120CE4120A40E52525E02402
:10110C0026F8A60608A607E52564027036AE2AAFB7
:10111C002BFC7D64120C1CAA06AB07AE28AF297CF5
:10112C00007D64120C1CEF2BF524EE3AF523D3E56D
:10113C00249544E52394004006D2B6D2028004C222
:0D114C00B6C2020525E525B4050375250092
:10115900D007D006D005D004D003D002D001D000EA
:0B116900D0D0D082D083D0F0D0E03294
:0800030012196E1214A080FB1B
:1006F700020ACBE86480F8E933E83360110460F05C
:10070700ED33EC337009E8FCE9FDEAFEEBFF220468
:1007170060DED3EB9FEA9EE99DE8C2E78CF0C2F763
:1007270095F0400CE8CCF8E9CDF9EACEFAEBCFFB2F
:10073700120A9685D0F05804700320D5B3E80470E8
:10074700075002B2D5020AD592D5EC0460F7E4CC83
:10075700C0E0C398F8603B94186008400DD0E0FBF8
:10076700020AADE4FBFAC9FC8028E830E406E4C9D4
:10077700FBE4CAFCE830E305E4C9CACBFCE854074C
:100787006010F8C3E913F9EA13FAEB13FBEC13FC57
:10079700D8F130F52FC3E49CFCEF9BFFEE9AFEEDFA
:1007A70099FDD0E0FBEF4E4D4C701222DB03020A9D
:1007B700D2EC2CFCEF33FFEE33FEED33FDED30E7EB
:1007C700EB020AADEF2BFFEE3AFEED39FDD0E0FB71
:1007D70050130BBB0003020AD5ED13FDEE13FEEF1A
:0807E70013FFEC13FC020AAD44
:1007EF00EC4D6011E8497017ED33EC3304600DE404
:1007FF00FCFFFEFD22E933E8330470F8020ACB1246
:10080F000A9658046009E4CC248150062850090246
:10081F000AD5284003020AD2C0E0EB4A7044B980DF
:10082F0006D0E0FB020AC1EF4E701CBD8008EBFF43
:10083F00EAFEE9FD80EBE98DF0A4FEE5F00208D8B1
:10084F00E9CDF9EAFEEBFFEF89F0A4FCE5F0CE89E4
:10085F00F0A42EFFE435F0CD89F0A42DFEE435F0A1
:10086F008067EF4E7005BD80D780C3EF8BF0A4ACCF
:10087F00F0EE8BF0A42CFCE435F0F8EF8AF0A42C0A
:10088F00E5F038FCE433CB8DF0A42CFCE5F03BF81D
:10089F00EE8AF0A42CFCE5F038F8E433CF89F0A40D
:1008AF002CFCE5F038CF3400CE89F0A42FFFE5F013
:1008BF003EFEE433C98DF0A42EFEE5F039CD8AF06B
:1008CF00A42FFFE5F03EFEE43DFD33D0E0FB5007E3
:1008DF000BBB000F020AD5EC2CFCEF33FFEE33FEFF
:0608EF00ED33FD020AAD2D
:1008F500020AD5EC5D046005E859047003020ACBD1
:10090500120A96580460F6EC4860F2EC7004FDFE9D
:10091500FF22C860DB2481C85009C39860025006D5
:10092500020AD29850CAF582E9294B4A7005AB8272
:10093500020AC175F0007C1A7880C3EF9BEE9AED30
:1009450099400DC3EF9BFFEE9AFEED99FDE842F04D
:10095500DC23ACF0D0E0FFD0E0FED0E0FDAB8220A0
:10096500E7101BEB60BAEC2CFCEF33FFEE33FEED2A
:1009750033FD020AADE803F830E705C0F075F00075
:10098500EF2FFFEE33FEED33FD40B830E7C280AA0E
:1009950074F8CC6480CCC86480C8F582046043C315
:1009A500EB9FF5F0EA9E42F0E99D42F0E89C45F0A8
:1009B50060305018E5825FFFE582F42B5582FB50CD
:1009C500210ABA001D09B90019088016E5825BFBEA
:1009D500E582F42F5582FF50090EBE00050DBD00BE
:1009E500010CC3EB9FF5F0EA9E42F0E99D42F0E869
:0D09F5009C45F06007CC4820E701B3EC22E0
:100A020075F020800E75F010800575F0087D007E6F
:100A1200007F003392D530D503120CD6EC33401050
:100A2200EF33FFEE33FEED33FDEC33FCD5F0ED2278
:0E0A3200E5F0247EA2D513CC92E7CDCEFF22B4
:100A4000EDD2E7CD33EC3392D524814006E4FFFEAE
:100A5000FDFC22FCE4CFCECDCC24E0501174FF800D
:100A6000EDC3CC13CCCD13CDCE13CECF13CF0470AA
:070A7000F030D5DE020CD6C8
:100A770088827D80E4FEFF120CF01206FEA882E653
:0F0A8700CCF608E6CDF608E6CEF608E6CFF62266
:100A9600E9D2E7C933E833F892D5EDD2E7CD33ECA6
:070AA60033FC5002B2D5221F
:100AAD00EC30E7100FBF000C0EBE00080DBD0004AA
:100ABD000BEB6014A2D5EB13FCED92E7FD2274FF56
:100ACD00FCFDFEFF22E480F8A2D574FF13FC7D80AF
:030ADD00E480EFC3
:10188600020003E493A3F8E493A34003F68001F275
:1018960008DFF48029E493A3F85407240CC8C33363
:1018A600C4540F4420C8834004F456800146F6DF32
:1018B600E4800B01020408102040809016ACE47E00
:1018C600019360BCA3FF543F30E509541FFEE49327
:1018D600A360010ECF54C025E060A840B8E493A3EE
:1018E600FAE493A3F8E493A3C8C582C8CAC583CA19
:1018F600F0A3C8C582C8CAC583CADFE9DEE780BED1
:01175C00008C
:100AE000E709F608DFFA8046E709F208DFFA803EF8
:100AF00088828C83E709F0A3DFFA8032E309F608E5
:100B0000DFFA8078E309F208DFFA807088828C834C
:100B1000E309F0A3DFFA806489828A83E0A3F60800
:100B2000DFFA805889828A83E0A3F208DFFA804CDA
:100B300080D280FA80C680D4806980F280338010B1
:100B400080A680EA809A80A880DA80E280CA80331A
:100B500089828A83ECFAE493A3C8C582C8CCC58392
:100B6000CCF0A3C8C582C8CCC583CCDFE9DEE78062
:100B70000D89828A83E493A3F608DFF9ECFAA9F0E1
:100B8000EDFB2289828A83ECFAE0A3C8C582C8CC37
:100B9000C583CCF0A3C8C582C8CCC583CCDFEADE50
:100BA000E880DB89828A83E493A3F208DFF980CCB2
:100BB00088F0EF60010E4E60C388F0ED2402B404AB
:100BC0000050B9F582EB2402B4040050AF23234552
:060BD0008223900B30733C
:100BD600BB010689828A83E0225002E722BBFE021D
:090BE600E32289828A83E4932250
:100BEF00BB010CE58229F582E5833AF583E02250BB
:100BFF0006E92582F8E622BBFE06E92582F8E22205
:0D0C0F00E58229F582E5833AF583E493221E
:100C1C00BC000BBE0029EF8DF084FFADF022E4CCBC
:100C2C00F875F008EF2FFFEE33FEEC33FCEE9DEC85
:100C3C00984005FCEE9DFE0FD5F0E9E4CEFD22EDCB
:100C4C00F8F5F0EE8420D21CFEADF075F008EF2F15
:100C5C00FFED33FD4007985006D5F0F222C398FD06
:050C6C000FD5F0EA22A3
:100C7100BB0110E58229F582E5833AF583E0F5F0C1
:100C8100A3E0225009E92582F886F008E622BBFE9E
:100C91000AE92582F8E2F5F008E222E5832AF583E4
:080CA100E993F5F0A3E99322A9
:100CA900F8BB0111E58229F582E5833AF583E8F07D
:100CB900E5F0A3F0225009E92582C8F608A6F0223A
:0D0CC900BBFE09E92582C8F2E5F008F22221
:0E0CD600C3E49FFFE49EFEE49DFDE49CFC222F
:0C0CE400E6FC08E6FD08E6FE08E6FF223C
:0D0CF000E6FB08E6F908E6FA08E6CBF82274
:0C0CFD00ECF608EDF608EEF608EFF62223
:0C0D0900A42582F582E5F03583F58322F5
:00000001FF
