:030000000218B72C
:0C18B700787FE4F6D8FD75816A0218FE07
:10000E002E0055696E20203A20202020202020200E
:10001E005600496F7574203A202020202020202081
:10002E004100556F7574203A20202020202020207A
:10003E0056004F435020203A202020202020002020
:10004E002020202020202020202020202020004F93
:10005E0043503A2020202020523A202020000C1C11
:10006E002C3C4CC2F4010001103FF8010001007F4E
:10007E00FC08040688228018800884FFFE014002D6
:10008E00300C183008B1A8100811FC11081108FD29
:10009E00281110150019F83108D1901150112011A6
:1000AE0050118E51042100D0A10100010001000168
:1000BE000001000540052009100908110421044122
:1000CE00000100010005000200D7D300003FF00040
:1000DE00100020004001800104FFFE01000100011C
:1000EE0000010001000100050002000000000000F8
:1000FE000000000000000000000000000038FCFCC2
:10010E003800000000000D0D000000000E1E000063
:10011E001E0E00000000000000000020F8F820F87D
:10012E00F82000020F0F020F0F0200387C444747E1
:10013E00CC98000306041C1C07030030300080C05E
:10014E006030000C060301000C0C0080D87CE4BC6F
:10015E00D84000070F0808070F080000101E0E00F9
:10016E0000000000000000000000000000F0F80C8D
:10017E00040000000003070C0800000000040CF847
:10018E00F000000000080C0703000080A0E0C0C0D3
:10019E00E0A0800002030101030200008080E0E085
:1001AE00808000000000030300000000000000003B
:1001BE000000000000101E0E000000808080808075
:1001CE008080000000000000000000000000000021
:1001DE000000000000000C0C00000000000080C0B9
:1001EE006030000C06030100000000F8FC04C4247B
:1001FE00FCF800070F0908080F0700001018FCFC98
:10020E000000000008080F0F080800080C84C464E2
:10021E003C18000E0F0908080C0C00080C4444444E
:10022E00FCB800040C0808080F0700C0E0B098FCEA
:10023E00FC8000000000080F0F08007C7C4444C4C2
:10024E00C48400040C0808080F0700F0F84C44445E
:10025E00C08000070F0808080F07000C0C0484C4A8
:10026E007C3C0000000F0F00000000B8FC4444442A
:10027E00FCB800070F0808080F0700387C444444F8
:10028E00FCF800000808080C0703000000003030DE
:10029E0000000000000006060000000000003030E4
:1002AE000000000000080E060000000080C0603054
:1002BE0018080000000103060C08004040404040B2
:1002CE0040400002020202020202000008183060E2
:1002DE00C0800000080C0603010000181C04C4E4D2
:1002EE003C18000000000D0D000000F0F808C8C812
:1002FE00F8F000070F080B0B0B0100E0F0988C983C
:10030E00F0E0000F0F0000000F0F0004FCFC44444F
:10031E00FCB800080F0F08080F0700F0F80C0404D3
:10032E000C180003070C08080C060004FCFC040C57
:10033E00F8F000080F0F080C07030004FCFC44E45F
:10034E000C1C00080F0F08080C0E0004FCFC44E403
:10035E000C1C00080F0F0800000000F0F80C84843D
:10036E008C980003070C0808070F00FCFC40404067
:10037E00FCFC000F0F0000000F0F00000004FCFC3F
:10038E000400000000080F0F08000000000004FC2D
:10039E00FC0400070F08080F07000004FCFCC0F067
:1003AE003C0C00080F0F00010F0E0004FCFC0400B3
:1003BE00000000080F0F08080C0E00FCFC38703807
:1003CE00FCFC000F0F0000000F0F00FCFC3870E06B
:1003DE00FCFC000F0F0000000F0F00F0F80C040CD7
:1003EE00F8F00003070C080C07030004FCFC44445F
:1003FE007C3800080F0F0800000000F8FC0404040D
:10040E00FCF800070F080E3C3F270004FCFC44C418
:10041E00FC3800080F0F00000F0F00183C6444C496
:10042E009C1800060E0808080F0700001C0CFCFCA8
:10043E000C1C000000080F0F080000FCFC00000060
:10044E00FCFC00070F0808080F0700FCFC0000006A
:10045E00FCFC000103060C06030100FCFC008000FE
:10046E00FCFC00030F0E030E0F03000C3CF0C0F05B
:10047E003C0C000C0F0300030F0C00003C7CC0C0B2
:10048E007C3C000000080F0F0800001C0C84C464A4
:10049E003C1C000E0F0908080C0E000000FCFC04AA
:1004AE0004000000000F0F080800003870E0C08044
:1004BE000000000000000103070E0000000404FC11
:1004CE00FC0000000008080F0F0000080C060306D1
:1004DE000C080000000000000000000000000000FA
:1004EE0000000020202020202020200000030704F0
:1004FE00000000000000000000000000A0A0A0E02E
:10050E00C00000070F0808070F080004FCFC20605D
:10051E00C08000080F0708080F0700C0E020202049
:10052E00604000070F0808080C040080C06024FC1F
:10053E00FC0000070F0808070F0800C0E0A0A0A0ED
:10054E00E0C000070F0808080C040040F8FC440C3B
:10055E00180000080F0F0800000000C0E02020C0A7
:10056E00E02000276F48487F3F000004FCFC40203D
:10057E00E0C000080F0F00000F0F00000020ECEC91
:10058E000000000000080F0F08000000000000200F
:10059E00ECEC0000307040407F3F0004FCFC80C05B
:1005AE00602000080F0F01030E0C00000004FCFC7D
:1005BE000000000000080F0F080000E0E060C060BF
:1005CE00E0C0000F0F000F000F0F0020E0C0202032
:1005DE00E0C000000F0F00000F0F00C0E020202031
:1005EE00E0C000070F0808080F070020E0C0202019
:1005FE00E0C000407F7F48080F0700C0E02020C009
:10060E00E02000070F08487F7F400020E0C06020F8
:10061E0060C000080F0F080000000040E0A020207E
:10062E00604000040C09090B0E04002020F8FC2089
:10063E002000000000070F080C0400E0E00000E0BE
:10064E00E00000070F0808070F080000E0E00000B8
:10065E00E0E0000003070C0C070300E0E0000000E0
:10066E00E0E000070F0C070C0F07002060C080C0F1
:10067E00602000080C0703070C0800E0E0000000F3
:10068E00E0E000474F4848683F1F00606020A0E050
:10069E006020000C0E0B09080C0C00004040F8BC4A
:1006AE00040400000000070F080800000000BCBC96
:1006BE000000000000000F0F000000000404BCF852
:1006CE004040000008080F07000000080C040C084A
:1006DE000C0400000000000000000080C0603060CC
:0F06EE00C0800007070404040707000000000095
:1016ED00014400014500606400000000000000009E
:1016FD0000000000000000000000000000000000DD
:10170D0000000000000000000000000000000000CC
:10171D0000000000000000000000000000000000BC
:10172D0000000000000000000000000000000000AC
:10173D00000000000000000000000000000000009C
:10174D000000000000000000000000000000142E4A
:10175D00000000000000000000000000000000007C
:10176D00000000000A24000000000000000000003E
:10177D000246000001430001480001220001230040
:0C178D0001421EC101C102C10001210087
:101A9000E54C2401FBE433FAE4FDFCFF121AB3E544
:101AA000542410FBE433FAE4FF121AB3E555FB7A31
:031AB00000E4FF50
:101AB300A907AF05AE04C2A7D291E924FF9290C251
:101AC300920000EF4E70048B808004EBF4F58000ED
:041AD30000D2922289
:10182A00C2A6E4FF0FBF64FCC2A7D2A67BE27A007D
:10183A00E4FDFCFF121AB3E4FF0FBF64FC7BA07A3D
:10184A0000E4FDFCFF121AB37BC8E4FF121AB37B53
:10185A00A6E4FF121AB37BA4E4FF121AB37BA2E434
:10186A00FF121AB37BF8E4FF121AB37B01E4FF12EA
:10187A001AB37B81E4FF121AB37B23E4FF121AB373
:10188A007B25E4FF121AB37B2FE4FF121AB3E4FF9D
:10189A000FBF64FC7B407A00E4FDFCFF121AB37BA5
:0C18AA00AFE4FF121AB3E4FF0FBF64FCB0
:0118B600220F
:021AD7008F4935
:101AD900E4F54AE54A24B0FBE433FAE4FDFCFF12DD
:101AE9001AB37B10121AAFE4FBFF121AB3E4F54BD9
:101AF900E549FB7A00E4FDFC7F01121AB3054BE5C9
:0F1B09004BC3948040EA054AE54AC3940840C4A0
:011B180022AA
:10139800B200D2B6754FFF75500075514DE4FBFA97
:0313A8007D06FFC0
:0813AB008F4B8D4C8A4D8B4ED7
:1013B300E54CD3940740037F0022E54BD394804050
:1013C300037F002274B0254CF54CFB7A00E4FDFC4E
:1013D300FF121AB3AB4FAA50A951120BDC700302D0
:1013E3001507E54CFB7A00E4FDFCFF121AB3E54B4D
:1013F300C4540FF554E54B540FF555121A9FAB4FD8
:10140300AA50A951120BDCC3947E5060755220ABD5
:101413004FAA50A951120BDC655260070552E552E1
:10142300B47EECE4F553E55364087003121A907527
:10143300F010E552A42553F582E435F0F583E582F7
:1014430024F9F582E58334FEF583E493FB7A00AD5A
:101453004EAC4D7F01121AB30553E553C3941040AC
:10146300C57408254BF54B74010214FBE4F556AB28
:101473004FAA50A951120BDCFFE55675F022A424A4
:1014830071F582E43400F583E4936F705D9000019D
:10149300120BF5FFE55675F022A42472F582E434AD
:1014A30000F583E4936F7042F553E55364107003C2
:1014B300121A90E55675F022A42473F582E43400E1
:1014C300F583E5822553F582E43583F583E493FBC5
:1014D3007A00AD4EAC4D7F01121AB30553E553C3E9
:1014E300942040C67410254BF54B0556E556C3941E
:1014F30032500302147274022551F551E43550F54C
:06150300500213D77F0126
:0115090022BF
:0611DE00E4FBFAFC7F585F
:0A11E4008F4B8C4C8D4D8A4E8B4FC3
:1011EE00E4F552F553F554F555F55678577C00FD58
:1011FE007BFF7A0679F9FE7F04120BB6C3E5509495
:10120E0000400FE551940AE55094005005755403C3
:10121E00804CC3E551940AE5509400400FE551947B
:10122E0064E550940050057554028032C3E5519424
:10123E0064E5509400400FE55194E8E55094035056
:10124E00057554018018C3E55194E8E550940340A8
:10125E000DE5519410E55094275003E4F554AE502B
:10126E00AF517C037DE8120C228F57AE50AF517CEC
:10127E00037DE8120C22AA04AB057D647C00AF034B
:10128E00AE02120C228F587D647C00AF03AE0212A8
:10129E000C22AA04AB057D0A7C00AF03AE02120C31
:1012AE00228F597D0A7C00AF03AE02120C228D5A9A
:1012BE00D3E54D9407E54C6480948040037F002273
:1012CE00E54BD3948040037F002274B0254DF54D3D
:1012DE00E4354CF54CAB4DFAE4FDFCFF121AB38528
:1012EE005452E552C394044003021395AB4DAA4CDD
:1012FE00E4FDFCFF121AB3E54BC4540FF555E54B54
:10130E00540FF556E5552410FBE433FAE4FF121A98
:10131E00B3E556121AAEE4F553E55364087022E5B0
:10132E004D2401FBE4354CFAE4FDFCFF121AB3E543
:10133E00552410FBE433FAE4FF121AB3E556121AE1
:10134E00AE74572552F8E675F010A42553F582E4D5
:10135E0035F0F583E58224F9F582E5833401F583D2
:10136E00E493FB7A00AD4FAC4E7F01121AB30553D6
:10137E00E553C3941040A27408254DF54DE4354C49
:09138E00F54C05520212F07F013A
:011397002233
:021B5100A907E2
:101B5300D2A0E96004C2A38002C2A2EC4D24FF928A
:101B6300A100E4FFEFC39BEA6480F87480985009F6
:101B7300C2A00000D2A00F80EBE96003D2A322D25F
:011B8300A2BF
:011B8400223E
:0219FD00A90738
:1019FF00D2A0E96004C2A38002C2A2EC4D24FF92E0
:101A0F00A100E4FFEFC39BEA6480F8748098502034
:101A1F00C2A00000D2A0E9600B30A1041545800DD3
:101A2F000545800930A1041544800205440F80D478
:081A3F00E96003D2A322D2A248
:011A4700227C
:10194300C3EC64809480405FED9464EC6480948085
:101953005055EF6028AF457E00ED9F7480F86C987A
:10196300400BED9FFBEC9EFAE4FDFC800CC3E545C8
:101973009DFBE49CFA7D017C007F018027AF447EC0
:1019830000D3ED9F7480F86C98400BED9FFBEC9EA9
:10199300FAE4FDFC800DC3E5449DFBE49CFA7D0164
:0819A3007C00E4FF1219FD2293
:101BA1007B647A007D017C00E4FF1219FD7F011244
:091BB10019FD754401754501227E
:0B1BE400EF1FAC0670011E4C70F622D3
:1019AB00E4FDEF90006C93FFE4FBFA000000C2B57E
:1019BB00D2B2EF30E704D2B38002C2B3EF25E0FF1F
:1019CB00C2B2000DBD10E9E4FD30B403430301D2F4
:1019DB00B2EB25E0FBEA33FAC2B2000DBD10EAD23E
:1019EB00B5EAC4F854F0C868FAEBC4540F48AE0219
:0119FB00FFEC
:0119FC0022C8
:08179A008B5C8A5D895E8D5FA6
:1017A200E4F560F561F560E560C3955F5079E4F5B5
:1017B20061E561C3955F506BAB5CAA5DA95E75F094
:1017C20002E560A4F58285F083120C77FFAEF07516
:1017D200F002E561A4F58285F083120C77FDACF08E
:1017E200D39FEC9E40398C628D6375F002E560A454
:1017F200F58285F083120C77FFAEF075F002E56199
:10180200A4F58285F083EE8FF0120CAF75F002E53D
:1018120060A4F58285F083E5628563F0120CAF0562
:0718220061808E05608080EB
:01182900229C
:081601008B5C8A5D895E8D5F40
:10160900E4F564F563F562F561AC5F120A128F685F
:101619008E678D668C65756900855F6AC3E560951F
:101629005FFFE49400FEC3E56A9FEE6480F8E56914
:1016390064809840030216E4AB64AA63A962A861B6
:10164900C000C001C002C003E56A25E0FFE56933B7
:10165900AB5CAA5DA95E8F82F583120C77FDACF0B5
:10166900E4120A0DD003D002D001D0001207048F72
:10167900648E638D628C61C004C005C006C00778A2
:10168900657F007E007D807C3F120A7DC004C00515
:10169900C006C007AC5FE4120A12A804A905AA068D
:1016A900AB07D007D006D005D00412099B7008FB00
:1016B900FA7980783F8006E4FBFAF97840D007D0C0
:1016C90006D005D0041208FE8F648E638D628C618A
:1016D900056AE56A70020569021625AF64AE63AD55
:0316E90062AC618F
:0116EC0022DB
:100D1B00AE24AF257C277D10120C228E508F51E410
:100D2B00FBFAFDFC7F401211E4AE24AF257C277D3E
:100D3B0010120C227E037FE8CFCDCFCECCCE120C7F
:100D4B00228E508F51E4FBFAFDFC7F481211E475A3
:100D5B004FFF75500075510EE4FBFAFD7F501213D7
:100D6B00ABAE24AF257C277D10120C227E037FE8CF
:100D7B00CFCDCFCECCCE120C227E007F64CFCDCF89
:100D8B00CECCCE120C228E508F51E4FBFAFDFC7FA1
:100D9B00581211E4AE24AF257C277D10120C227E55
:100DAB00037FE8CFCDCFCECCCE120C227E007F645A
:100DBB00CFCDCFCECCCE120C227E007F0ACFCDCFA3
:100DCB00CECCCE120C228E508F51E4FBFAFDFC7F61
:100DDB00601211E4AE26AF277C037DE8120C228E45
:100DEB00508F51E4FBFA7D02FC7F401211E4754FEA
:100DFB00FF75500075510EE4FBFA7D027F4812130C
:100E0B00ABAE26AF277C037DE8120C227E007F64FD
:100E1B00CFCDCFCECCCE120C228E508F51E4FBFA1D
:100E2B007D02FC7F501211E4AE26AF277C037DE8D8
:100E3B00120C227E007F64CFCDCFCECCCE120C22F3
:100E4B007E007F0ACFCDCFCECCCE120C228E508F10
:100E5B00517D021211DEAE2AAF2B7C037DE8120C02
:100E6B00228E508F51E4FBFA7D04FC7F401211E47B
:100E7B00754FFF75500075510EE4FBFA7D047F48EA
:100E8B001213ABAE2AAF2B7C037DE8120C227E0033
:100E9B007F64CFCDCFCECCCE120C228E508F51E4AF
:100EAB00FBFA7D04FC7F501211E4AE2AAF2B7C03BE
:100EBB007DE8120C227E007F64CFCDCFCECCCE123C
:100ECB000C227E007F0ACFCDCFCECCCE120C228E41
:100EDB00508F51E4FBFA7D04FC7F581211E4200083
:100EEB0003020FD2E54275F00A84755000F551E408
:100EFB00FBFA7D06FC7F281211E4754FFF7550003D
:100F0B0075510EE4FBFA7D067F301213ABE542758B
:100F1B00F00A84AFF07550008F51E4FBFA7D06FCAC
:100F2B007F381211E4AE2CAF2D7C037DE8120C221E
:100F3B008E508F517D061211DEAE2CAF2D7C037DB2
:100F4B00E8120C227E007F64CFCDCFCECCCE120C1C
:100F5B00228E508F51E4FBFA7D06FC7F601211E468
:100F6B00AE2CAF2D7C037DE8120C227E007F64CF6C
:100F7B00CDCFCECCCE120C227E007F0ACFCDCFCEE2
:100F8B00CCCE120C228E508F51E4FBFA7D06FC7FE7
:100F9B00681211E4AE2CAF2D7C037DE8120C227E7F
:100FAB00007F64CFCDCFCECCCE120C227E007F0A39
:100FBB00CFCDCFCECCCE120C228C508D51E4FBFA80
:100FCB007D06FC7F708041200041E54275F00A846C
:100FDB00755000F551E4FBFA7D06FC7F381211E4E5
:100FEB00754FFF75500075510EE4FBFA7D067F407F
:100FFB001213ABE54275F00A84AFF07550008F51B8
:0C100B00E4FBFA7D06FC7F481211E42291
:081B19008F5F8E5E8D5D8C5C18
:101B2100E4FBFA797A78441208FE8F638E628D6144
:101B31008C60AB5FAA5EA95DA85CE4FFFE7D407C82
:0F1B410040120700AB63AA62A961A8601208FEF8
:011B50002272
:101B85007FFF2093027F012094027F022095027F30
:0B1B9500032096027F042097027F05CA
:011BA0002222
:101BD100758E80758901758CFF758A38D2A9D28C72
:031BE100D2AF225E
:101A4800121BD175BB7012182AE4FF121AD7754FF2
:101A5800FF755000755110E4FBFAFDFF1213AB75CA
:101A68004FFF755000755120E4FBFA7D02FF1213F9
:101A7800AB754FFF755000755130E4FBFA7D04FFDC
:081A88001213ABC2A2C2A2229C
:10150A00E4F549F54A754FFF7550007551401213BD
:10151A00A6E54960030215A7120D1B121B858F4A07
:10152A00E54AF460ECE54A24FE601614601F146074
:10153A002F146044240470527B017A00E4FDFC807D
:10154A00087B017A007D017C007F018026E542C389
:10155A009428500205427B017A00E4FDFCFF8013C7
:10156A00E542D39405400215427B017A007D017C55
:10157A0000E4FF121B518012121398754FFF755029
:10158A000075515D1213A57549017F887E13121BE0
:10159A00E4121B85EFF4700302151B80F4E549641D
:1015AA00017053120D1B121B858F4AE54AF460ED38
:1015BA00E54A24FD60081460101460188028E5428A
:1015CA00C3942850210542801DE542D39405401654
:1015DA0015428012121398754FFF755000755140CD
:1015EA001213A5E4F5497F887E13121BE4121B85AA
:0615FA00EFF460A980F788
:0116000022C7
:101BBA007FFF2093027F012094027F022095027FFB
:061BCA00032096027F04D7
:011BD00022F2
:03000B00021017C9
:10101700C0E0C0F0C083C082C0D075D000C000C09F
:0D10270001C002C003C004C005C006C00720
:10103400755B00758CFF758A380547E547700205B6
:10104400460548E548B40A26754800AF221219AB94
:10105400E52275F014A42400F582E43400F58375C8
:10106400F002E543120D0FEEF0A3EFF00522E522A6
:10107400B405057522000543E543640A60030211C3
:1010840083F543F55BE55B75F014A42400F9740063
:1010940035F0FA7B017D0A12179AE55B75F014A40A
:1010A4002400F9740035F0FA7B017560097D0112A2
:1010B4001601E55B25E025E0242EF8120D03E55B1F
:1010C4007015E55B25E025E0242EF8120CEAE4FB1C
:1010D400FA799078418034E55B64017015E55B250D
:1010E400E025E0242EF8120CEAE4FBFA79C07840FB
:1010F4008019E55B6403702DE55B25E025E0242E73
:10110400F8120CEAE4FBFA79C078401207F57B0088
:101114007AF0797F78451208FEE4FBFA797A78440C
:101124001207F58042E55B64047048E55B25E02521
:10113400E0242EF8120CEAE4FBFA79407840120716
:10114400F57B007AF0797F78451208FEE55B25E0AF
:1011540025E0242EF8120D03E55B25E025E0242E7E
:10116400F8120CEA121B19E55B25E025E0242EF8A1
:10117400120D03055BE55BC394055003021089E57A
:101184004764887004E54664137034B20120000497
:10119400A20192B6754600754700E52325E025E0D7
:1011A400242EF8120CEA120A46E52325E02424F83A
:0F11B400A60608A6070523E523B4050375230047
:1011C300D007D006D005D004D003D002D001D00080
:0B11D300D0D0D082D083D0F0D0E0322A
:08000300121A4812150A80FBD5
:1006FD00020AD1E86480F8E933E83360110460F050
:10070D00ED33EC337009E8FCE9FDEAFEEBFF220462
:10071D0060DED3EB9FEA9EE99DE8C2E78CF0C2F75D
:10072D0095F0400CE8CCF8E9CDF9EACEFAEBCFFB29
:10073D00120A9C85D0F05804700320D5B3E80470DC
:10074D00075002B2D5020ADB92D5EC0460F7E4CC77
:10075D00C0E0C398F8603B94186008400DD0E0FBF2
:10076D00020AB3E4FBFAC9FC8028E830E406E4C9C8
:10077D00FBE4CAFCE830E305E4C9CACBFCE8540746
:10078D006010F8C3E913F9EA13FAEB13FBEC13FC51
:10079D00D8F130F52FC3E49CFCEF9BFFEE9AFEEDF4
:1007AD0099FDD0E0FBEF4E4D4C701222DB03020A97
:1007BD00D8EC2CFCEF33FFEE33FEED33FDED30E7DF
:1007CD00EB020AB3EF2BFFEE3AFEED39FDD0E0FB65
:1007DD0050130BBB0003020ADBED13FDEE13FEEF0E
:0807ED0013FFEC13FC020AB338
:1007F500EC4D6011E8497017ED33EC3304600DE4FE
:10080500FCFFFEFD22E933E8330470F8020AD11239
:100815000A9C58046009E4CC24815006285009023A
:100825000ADB284003020AD8C0E0EB4A7044B980CD
:1008350006D0E0FB020AC7EF4E701CBD8008EBFF37
:10084500EAFEE9FD80EBE98DF0A4FEE5F00208DEA5
:10085500E9CDF9EAFEEBFFEF89F0A4FCE5F0CE89DE
:10086500F0A42EFFE435F0CD89F0A42DFEE435F09B
:100875008067EF4E7005BD80D780C3EF8BF0A4ACC9
:10088500F0EE8BF0A42CFCE435F0F8EF8AF0A42C04
:10089500E5F038FCE433CB8DF0A42CFCE5F03BF817
:1008A500EE8AF0A42CFCE5F038F8E433CF89F0A407
:1008B5002CFCE5F038CF3400CE89F0A42FFFE5F00D
:1008C5003EFEE433C98DF0A42EFEE5F039CD8AF065
:1008D500A42FFFE5F03EFEE43DFD33D0E0FB5007DD
:1008E5000BBB000F020ADBEC2CFCEF33FFEE33FEF3
:0608F500ED33FD020AB321
:1008FB00020ADBEC5D046005E859047003020AD1BF
:10090B00120A9C580460F6EC4860F2EC7004FDFE91
:10091B00FF22C860DB2481C85009C39860025006CF
:10092B00020AD89850CAF582E9294B4A7005AB8266
:10093B00020AC775F0007C1A7880C3EF9BEE9AED24
:10094B0099400DC3EF9BFFEE9AFEED99FDE842F047
:10095B00DC23ACF0D0E0FFD0E0FED0E0FDAB82209A
:10096B00E7101BEB60BAEC2CFCEF33FFEE33FEED24
:10097B0033FD020AB3E803F830E705C0F075F00069
:10098B00EF2FFFEE33FEED33FD40B830E7C280AA08
:10099B0074F8CC6480CCC86480C8F582046043C30F
:1009AB00EB9FF5F0EA9E42F0E99D42F0E89C45F0A2
:1009BB0060305018E5825FFFE582F42B5582FB50C7
:1009CB00210ABA001D09B90019088016E5825BFBE4
:1009DB00E582F42F5582FF50090EBE00050DBD00B8
:1009EB00010CC3EB9FF5F0EA9E42F0E99D42F0E863
:0D09FB009C45F06007CC4820E701B3EC22DA
:100A080075F020800E75F010800575F0087D007E69
:100A1800007F003392D530D503120CDCEC33401044
:100A2800EF33FFEE33FEED33FDEC33FCD5F0ED2272
:0E0A3800E5F0247EA2D513CC92E7CDCEFF22AE
:100A4600EDD2E7CD33EC3392D524814006E4FFFEA8
:100A5600FDFC22FCE4CFCECDCC24E0501174FF8007
:100A6600EDC3CC13CCCD13CDCE13CECF13CF0470A4
:070A7600F030D5DE020CDCBC
:100A7D0088827D80E4FEFF120CF6120704A882E640
:0F0A8D00CCF608E6CDF608E6CEF608E6CFF62260
:100A9C00E9D2E7C933E833F892D5EDD2E7CD33ECA0
:070AAC0033FC5002B2D52219
:100AB300EC30E7100FBF000C0EBE00080DBD0004A4
:100AC3000BEB6014A2D5EB13FCED92E7FD2274FF50
:100AD300FCFDFEFF22E480F8A2D574FF13FC7D80A9
:030AE300E480EFBD
:1018C300020003E493A3F8E493A34003F68001F238
:1018D30008DFF48029E493A3F85407240CC8C33326
:1018E300C4540F4420C8834004F456800146F6DFF5
:1018F300E4800B01020408102040809016EDE47E82
:10190300019360BCA3FF543F30E509541FFEE493E9
:10191300A360010ECF54C025E060A840B8E493A3B0
:10192300FAE493A3F8E493A3C8C582C8CAC583CADB
:10193300F0A3C8C582C8CAC583CADFE9DEE780BE93
:01179900004F
:100AE600E709F608DFFA8046E709F208DFFA803EF2
:100AF60088828C83E709F0A3DFFA8032E309F608DF
:100B0600DFFA8078E309F208DFFA807088828C8346
:100B1600E309F0A3DFFA806489828A83E0A3F608FA
:100B2600DFFA805889828A83E0A3F208DFFA804CD4
:100B360080D280FA80C680D4806980F280338010AB
:100B460080A680EA809A80A880DA80E280CA803314
:100B560089828A83ECFAE493A3C8C582C8CCC5838C
:100B6600CCF0A3C8C582C8CCC583CCDFE9DEE7805C
:100B76000D89828A83E493A3F608DFF9ECFAA9F0DB
:100B8600EDFB2289828A83ECFAE0A3C8C582C8CC31
:100B9600C583CCF0A3C8C582C8CCC583CCDFEADE4A
:100BA600E880DB89828A83E493A3F208DFF980CCAC
:100BB60088F0EF60010E4E60C388F0ED2402B404A5
:100BC6000050B9F582EB2402B4040050AF2323454C
:060BD6008223900B367330
:100BDC00BB010689828A83E0225002E722BBFE0217
:090BEC00E32289828A83E493224A
:100BF500BB010CE58229F582E5833AF583E02250B5
:100C050006E92582F8E622BBFE06E92582F8E222FE
:0D0C1500E58229F582E5833AF583E4932218
:100C2200BC000BBE0029EF8DF084FFADF022E4CCB6
:100C3200F875F008EF2FFFEE33FEEC33FCEE9DEC7F
:100C4200984005FCEE9DFE0FD5F0E9E4CEFD22EDC5
:100C5200F8F5F0EE8420D21CFEADF075F008EF2F0F
:100C6200FFED33FD4007985006D5F0F222C398FD00
:050C72000FD5F0EA229D
:100C7700BB0110E58229F582E5833AF583E0F5F0BB
:100C8700A3E0225009E92582F886F008E622BBFE98
:100C97000AE92582F8E2F5F008E222E5832AF583DE
:080CA700E993F5F0A3E99322A3
:100CAF00F8BB0111E58229F582E5833AF583E8F077
:100CBF00E5F0A3F0225009E92582C8F608A6F02234
:0D0CCF00BBFE09E92582C8F2E5F008F2221B
:0E0CDC00C3E49FFFE49EFEE49DFDE49CFC2229
:0C0CEA00E6FC08E6FD08E6FE08E6FF2236
:0D0CF600E6FB08E6F908E6FA08E6CBF8226E
:0C0D0300ECF608EDF608EEF608EFF6221C
:0C0D0F00A42582F582E5F03583F58322EF
:00000001FF
