:0300000002163FA6
:0C163F00787FE4F6D8FD75816D021686F8
:10000E002E004F43503A2020202020523A2020200C
:10001E00004F435020203A20202020202000696EDF
:10002E005620203A20006F757456203A20006F75C6
:10003E007441203A20000C1C2C3C4CC2F4010001EF
:10004E00103FF8010001007FFC080406882280188A
:10005E00800884FFFE014002300C183008B1A81051
:10006E000811FC11081108FD281110150019F8319E
:10007E0008D190115011201150118E51042100D031
:10008E00A101000100010001000100054005200949
:10009E0010090811042104410001000100050002AD
:1000AE0000D7D300003FF000100020004001800177
:1000BE0004FFFE0100010001000100010001000526
:1000CE000002000000000000000000000000000020
:1000DE00000000000038FCFC3800000000000D0D90
:1000EE00000000000E1E00001E0E000000000000AA
:1000FE0000000020F8F820F8F82000020F0F020F81
:10010E000F0200387C444747CC98000306041C1CA1
:10011E0007030030300080C06030000C0603010081
:10012E000C0C0080D87CE4BCD84000070F080807F0
:10013E000F080000101E0E0000000000000000005E
:10014E000000000000F0F80C040000000003070C93
:10015E000800000000040CF8F000000000080C0776
:10016E0003000080A0E0C0C0E0A0800002030101F7
:10017E00030200008080E0E08080000000000303A6
:10018E0000000000000000000000000000101E0E25
:10019E0000000080808080808080000000000000D1
:1001AE0000000000000000000000000000000C0C29
:1001BE0000000000000080C06030000C060301004B
:1001CE00000000F8FC04C424FCF800070F0908081E
:1001DE000F0700001018FCFC0000000008080F0FAD
:1001EE00080800080C84C4643C18000E0F090808A7
:1001FE000C0C00080C444444FCB800040C0808081D
:10020E000F0700C0E0B098FCFC8000000000080F53
:10021E000F08007C7C4444C4C48400040C08080805
:10022E000F0700F0F84C4444C08000070F08080880
:10023E000F07000C0C0484C47C3C0000000F0F0060
:10024E00000000B8FC444444FCB800070F0808083E
:10025E000F0700387C444444FCF800000808080CE2
:10026E00070300000000303000000000000006060A
:10027E0000000000000030300000000000080E06F4
:10028E000000000080C06030180800000001030666
:10029E000C08004040404040404000020202020272
:1002AE000202000008183060C0800000080C06032F
:1002BE00010000181C04C4E43C18000000000D0DE1
:1002CE00000000F0F808C8C8F8F000070F080B0B84
:1002DE000B0100E0F0988C98F0E0000F0F0000008A
:1002EE000F0F0004FCFC4444FCB800080F0F080874
:1002FE000F0700F0F80C04040C180003070C080894
:10030E000C060004FCFC040CF8F000080F0F080C9F
:10031E0007030004FCFC44E40C1C00080F0F080843
:10032E000C0E0004FCFC44E40C1C00080F0F08002B
:10033E00000000F0F80C84848C980003070C080869
:10034E00070F00FCFC404040FCFC000F0F000000BB
:10035E000F0F00000004FCFC0400000000080F0F4B
:10036E0008000000000004FCFC0400070F08080F42
:10037E0007000004FCFCC0F03C0C00080F0F00014D
:10038E000F0E0004FCFC0400000000080F0F08080C
:10039E000C0E00FCFC387038FCFC000F0F00000047
:1003AE000F0F00FCFC3870E0FCFC000F0F0000008B
:1003BE000F0F00F0F80C040CF8F00003070C080CFB
:1003CE0007030004FCFC44447C3800080F0F0800AF
:1003DE00000000F8FC040404FCF800070F080E3CB3
:1003EE003F270004FCFC44C4FC3800080F0F00003B
:1003FE000F0F00183C6444C49C1800060E08080831
:10040E000F0700001C0CFCFC0C1C000000080F0F5A
:10041E00080000FCFC000000FCFC00070F080808A8
:10042E000F0700FCFC000000FCFC000103060C069C
:10043E00030100FCFC008000FCFC00030F0E030E09
:10044E000F03000C3CF0C0F03C0C000C0F0300033B
:10045E000F0C00003C7CC0C07C3C000000080F0F5D
:10046E000800001C0C84C4643C1C000E0F09080814
:10047E000C0E000000FCFC0404000000000F0F082E
:10048E000800003870E0C08000000000000001038A
:10049E00070E0000000404FCFC0000000008080F1A
:1004AE000F0000080C0603060C08000000000000F8
:1004BE00000000000000000000000020202020208E
:1004CE0020202000000307040000000000000000B0
:1004DE0000000000A0A0A0E0C00000070F08080761
:1004EE000F080004FCFC2060C08000080F070808FD
:1004FE000F0700C0E0202020604000070F0808080A
:10050E000C040080C06024FCFC0000070F080807E4
:10051E000F0800C0E0A0A0A0E0C000070F08080868
:10052E000C040040F8FC440C180000080F0F0800E3
:10053E00000000C0E02020C0E02000276F48487F68
:10054E003F000004FCFC4020E0C000080F0F00003C
:10055E000F0F00000020ECEC0000000000080F0F51
:10056E000800000000000020ECEC0000307040405D
:10057E007F3F0004FCFC80C0602000080F0F0103C9
:10058E000E0C00000004FCFC0000000000080F0F21
:10059E00080000E0E060C060E0C0000F0F000F0038
:1005AE000F0F0020E0C02020E0C000000F0F000061
:1005BE000F0F00C0E0202020E0C000070F08080841
:1005CE000F070020E0C02020E0C000407F7F4808D9
:1005DE000F0700C0E02020C0E02000070F08487F72
:1005EE007F400020E0C0602060C000080F0F0800B0
:1005FE0000000040E0A02020604000040C09090B20
:10060E000E04002020F8FC202000000000070F0838
:10061E000C0400E0E00000E0E00000070F0808070F
:10062E000F080000E0E00000E0E0000003070C0C03
:10063E00070300E0E0000000E0E000070F0C070CED
:10064E000F07002060C080C0602000080C07030761
:10065E000C0800E0E0000000E0E000474F4848686A
:10066E003F1F00606020A0E06020000C0E0B090808
:10067E000C0C00004040F8BC040400000000070F02
:10068E00080800000000BCBC0000000000000F0FB6
:10069E00000000000404BCF84040000008080F07EA
:1006AE00000000080C040C080C0400000000000000
:1006BE0000000080C0603060C080000707040404A2
:0706CE000707000000000017
:10146D000148000149006064000000000000000018
:10147D00000000000000000000000000000000005F
:10148D00000000000000000000000000000000004F
:10149D00000000000000000000000000000000003F
:1014AD00000000000000000000000000000000002F
:1014BD00000000000000000000000000000000001F
:1014CD0000000000000000000000000000001432C9
:1014DD0000000000000000000000000000000000FF
:1014ED00000000000A2800000000000000000000BD
:1014FD00024A0000014700014C00012600012700AF
:10150D0001461EC101C102C10001250002210003D7
:04151D00022303E8BA
:10189C00E54F2401FBE433FAE4FDFCFF1218BFE52D
:1018AC00572410FBE433FAE4FF1218BFE558FB7A17
:0318BC0000E4FF46
:1018BF00A907AF05AE04C2C6D290E924FF9291C228
:1018CF00C20000EF4E70048B808004EBF4F58000B3
:0418DF0000D2C2224F
:1015B200C2C1E4FF0FBF64FCC2C6D2C17BE27A00A3
:1015C200E4FDFCFF1218BFE4FF0FBF64FC7BA07AAE
:1015D20000E4FDFCFF1218BF7BC8E4FF1218BF7BBA
:1015E200A6E4FF1218BF7BA4E4FF1218BF7BA2E49B
:1015F200FF1218BF7BF8E4FF1218BF7B01E4FF1251
:1016020018BF7B81E4FF1218BF7B23E4FF1218BFCF
:101612007B25E4FF1218BF7B2FE4FF1218BFE4FF03
:101622000FBF64FC7B407A00E4FDFCFF1218BF7B15
:0C163200AFE4FF1218BFE4FF0FBF64FC20
:01163E002289
:02192A008F4DDF
:10192C00E4F54EE54E24B0FBE433FAE4FDFCFF1283
:10193C0018BF7B101218BBE4FBFF1218BFE4F54F65
:10194C00E54DFB7A00E4FDFC7F011218BF054FE565
:0F195C004FC3948040EA054EE54EC3940840C443
:01196B002259
:0610D5007D06E4FBFAFFBA
:0810DB008F4E8D4F8A508B519E
:1010E300E54FD3940740037F0022E54ED39480401D
:1010F300037F002274B0254FF54FFB7A00E4FDFC1B
:10110300FF1218BFAB52AA53A954120BB4700302B7
:101113001237E54FFB7A00E4FDFCFF1218BFE54EE2
:10112300C4540FF557E54E540FF5581218ABAB5294
:10113300AA53A954120BB4C3947E5060755520ABC7
:1011430052AA53A954120BB4655560070555E555CA
:10115300B47EECE4F556E5566408700312189C75EA
:10116300F010E555A42556F582E435F0F583E582C4
:1011730024D1F582E58334FEF583E493FB7A00AD55
:1011830051AC507F011218BF0556E556C394104069
:10119300C57408254EF54E740102122BE4F559ABC4
:1011A30052AA53A954120BB4FFE55975F022A42493
:1011B30049F582E43400F583E4936F705D90000198
:1011C300120BCDFFE55975F022A4244AF582E434CD
:1011D30000F583E4936F7042F556E556641070038F
:1011E30012189CE55975F022A4244BF582E43400CF
:1011F300F583E5822556F582E43583F583E493FB95
:101203007A00AD51AC507F011218BF0556E556C3A5
:10121300942040C67410254EF54E0559E559C394E4
:101223003250030211A274022554F554E43553F5E8
:06123300530211077F01C8
:011239002292
:060F1B00E4FBFA7D02FC7C
:0A0F21008F4E8C4F8D508A518B5279
:100F2B00E4F555F556F557F558F559785A7C00FD0B
:100F3B007BFF7A0679D1FE7F04120B8EC3E55394A7
:100F4B0000400FE554940AE5539400500575570380
:100F5B00804CC3E554940AE5539400400FE5549438
:100F6B0064E553940050057557028032C3E55494E1
:100F7B0064E5539400400FE55494E8E55394035013
:100F8B00057557018018C3E55494E8E55394034065
:100F9B000DE5549410E55394275003E4F557AE53E5
:100FAB00AF547C037DE8120BFA8F5AAE53AF547CCF
:100FBB00037DE8120BFAAA04AB057D647C00AF033A
:100FCB00AE02120BFA8F5B7D647C00AF03AE021294
:100FDB000BFAAA04AB057D0A7C00AF03AE02120B21
:100FEB00FA8F5C7D0A7C00AF03AE02120BFA8D5DAB
:100FFB00D3E5509407E54F6480948040037F002233
:10100B00E54ED3948040037F002274B02550F550F9
:10101B00E4354FF54FAB50FAE4FDFCFF1218BF85DA
:10102B005755E555C3940440030210D2AB50AA4F59
:10103B00E4FDFCFF1218BFE54EC4540FF558E54E06
:10104B00540FF559E5582410FBE433FAE4FF12185A
:10105B00BFE5591218BAE4F556E55664087022E557
:10106B00502401FBE4354FFAE4FDFCFF1218BFE5F9
:10107B00582410FBE433FAE4FF1218BFE559121899
:10108B00BA745A2555F8E675F010A42556F582E486
:10109B0035F0F583E58224D1F582E5833401F583C0
:1010AB00E493FB7A00AD52AC517F011218BF055689
:1010BB00E556C3941040A274082550F550E4354F03
:0910CB00F54F055502102D7F01BF
:0110D40022F9
:02185100A907E5
:10185300D2A6E96004C2C48002C2A7EC4D24FF9261
:10186300A500E4FFEFC39BEA6480F87480985020DE
:10187300C2A60000D2A6E9600B30A5041549800D6D
:101883000549800930A5041548800205480F80D416
:08189300E96003D2C422D2A7D0
:01189B00222A
:10174400C3EC64809480405FED9464EC6480948086
:101754005055EF6028AF497E00ED9F7480F86C9877
:10176400400BED9FFBEC9EFAE4FDFC800CC3E549C5
:101774009DFBE49CFA7D017C007F018027AF487EBD
:1017840000D3ED9F7480F86C98400BED9FFBEC9EAA
:10179400FAE4FDFC800DC3E5489DFBE49CFA7D0161
:0817A4007C00E4FF1218512241
:101988007B647A007D017C00E4FF1218517F01120C
:091998001851754809E4F54922D3
:0B19B400EF1FAC0670011E4C70F62205
:1017FF00E4FDEF90004493FFE4FBFA000000C2B554
:10180F00D2B2EF30E704D2B38002C2B3EF25E0FFCC
:10181F00C2B2000DBD10E9E4FD30B403430301D2A1
:10182F00B2EB25E0FBEA33FAC2B2000DBD10EAD2EB
:10183F00B5EAC4F854F0C868FAEBC4540F48AE02C6
:01184F00FF99
:011850002275
:081522008B5F8A6089618D6214
:10152A00E4F563F564F563E563C395625079E4F520
:10153A0064E564C39562506BAB5FAA60A96175F0FC
:10154A0002E563A4F58285F083120C4FFFAEF075B5
:10155A00F002E564A4F58285F083120C4FFDACF02D
:10156A00D39FEC9E40398C658D6675F002E563A4C5
:10157A00F58285F083120C4FFFAEF075F002E56438
:10158A00A4F58285F083EE8FF0120C8775F002E5E0
:10159A0063A4F58285F083E5658566F0120C8705FC
:0715AA0064808E0563808060
:0115B1002217
:081381008B5F8A6089618D62B7
:10138900E4F567F566F565F564AC621209EA8F6BF9
:101399008E6A8D698C68756C0085626DC3E563958D
:1013A90062FFE49400FEC3E56D9FEE6480F8E56C8E
:1013B9006480984003021464AB67AA66A965A864AF
:1013C900C000C001C002C003E56D25E0FFE56C3334
:1013D900AB5FAA60A9618F82F583120C4FFDACF057
:1013E900E41209E5D003D002D001D0001206DC8F47
:1013F900678E668D658C64C004C005C006C0077819
:10140900687F007E007D807C3F120A55C004C005BC
:10141900C006C007AC62E41209EAA804A905AA0635
:10142900AB07D007D006D005D0041209737008FBAA
:10143900FA7980783F8006E4FBFAF97840D007D042
:1014490006D005D0041208D68F678E668D658C6428
:10145900056DE56D7002056C0213A5AF67AE66AD4B
:0314690065AC640B
:01146C00225D
:100CF300AE28AF297C277D10120BFA8E538F54E454
:100D0300FBFAFDFC7F40120F217552FF75530075EE
:100D1300540EE4FBFAFD7F481210DBAE28AF297CAA
:100D2300277D10120BFA7E037FE8CFCDCFCECCCE3A
:100D3300120BFA8E538F54E4FBFAFDFC7F50120F13
:100D430021AE28AF297C277D10120BFA7E037FE8A2
:100D5300CFCDCFCECCCE120BFA7E007F64CFCDCFDA
:100D6300CECCCE120BFA8E538F54E4FBFAFDFC7FEC
:100D730058120F21AE2CAF2D7C277D10120BFA8E4B
:100D8300538F547F40120F1B7552FF7553007554D8
:100D93000EE4FBFA7D027F481210DBAE2CAF2D7CF4
:100DA300277D10120BFA7E037FE8CFCDCFCECCCEBA
:100DB300120BFA8E538F547F50120F1BAE2CAF2D94
:100DC3007C277D10120BFA7E037FE8CFCDCFCECCEC
:100DD300CE120BFA7E007F64CFCDCFCECCCE120BDA
:100DE300FA8E538F54E4FBFA7D02FC7F58120F21D5
:100DF300AE2EAF2F7C277D10120BFA8E538F54E447
:100E0300FBFA7D04FC7F40120F217552FF755300DE
:100E130075540EE4FBFA7D047F481210DBAE2EAF4F
:100E23002F7C277D10120BFA7E037FE8CFCDCFCE28
:100E3300CCCE120BFA8E538F54E4FBFA7D04FC7F65
:100E430050120F21AE2EAF2F7C277D10120BFA7E8E
:100E5300037FE8CFCDCFCECCCE120BFA7E007F64DA
:100E6300CFCDCFCECCCE120BFA8E538F54E4FBFAF8
:100E73007D04FC7F58120F2130004C7552FF7553CF
:100E8300007554101210D5E54675F00A84755300A9
:100E9300F554E4FBFA7D06FC7F28120F217552FFFF
:100EA30075530075540EE4FBFA7D067F301210DB98
:100EB300E54675F00A84AFF07553008F54E4FBFAEE
:100EC3007D06FC7F38804D20004D7552FF75530021
:100ED30075541F1210D5E54675F00A84755300F555
:100EE30054E4FBFA7D06FC7F38120F217552FF751F
:100EF300530075540EE4FBFA7D067F401210DBE5C8
:100F03004675F00A84AFF07553008F54E4FBFA7D05
:080F130006FC7F48120F2122A9
:0816CB008F0B8E0A8D098C08BB
:1016D300AC21AD22EC1209E5AB0BAA0AA909A808B3
:1016E3001206D8C004C005C006C007AC23AD24EC65
:1016F3001209E5A804A905AA06AB07D007D006D0AE
:1017030005D0041208D6AB07AA06A905A804AF0B97
:10171300AE0AAD09AC081208D68F0F8E0E8D0D8C54
:101723000CE4FFFE7D487C42AB0FAA0EA90DA80C6A
:101733001206DCE4FBFA792078411208D6120A1E5D
:011743002283
:10196C007FFF20C9027F0120C8027F0220A4027FD2
:0B197C000320A3027F0420B7027F05B8
:01198700223D
:1019A100758E80758901758CFF758A38D2A9D28CA4
:0319B100D2AF2290
:1018E3001219A175BBF01219881215B2E4FF12196F
:1018F3002A7552FF75530075542CE4FBFAFDFF1251
:1019030010DB7552FF7553007554347D021210D7E6
:101913007552FF75530075543CE4FBFA7D04FF12C6
:0719230010DBC2A2C2A222E8
:1017AC00E4F54DFDE54D704A120CF312196CAD07C2
:1017BC00EDF460F0ED24FD601514601714601F2427
:1017CC0003701FE546C394285018054680147546CF
:1017DC001E800FE546D39405400815468004B200E0
:1017EC00D2B67F887E131219B412196CEFF460B460
:0217FC0080F774
:0117FE0022C8
:03000B0002123AA4
:10123A00C0E0C0F0C083C082C0D075D000C000C07A
:0D124A0001C002C003C004C005C006C007FB
:10125700755E00758CFF758A38054BE54B70020586
:101267004A054CE54CB40A26754C00AF261217FF09
:10127700E52675F014A42400F582E43400F583759F
:10128700F002E547120CE7EEF0A3EFF00526E5269E
:10129700B405057526000547E547640A6003021390
:1012A70026F547F55EE55E75F014A42400F9740091
:1012B70035F0FA7B017D0A121522E55E75F014A45C
:1012C7002400F9740035F0FA7B017563097D01127A
:1012D7001381E55E25E025E02432F8120CDBE55E9C
:1012E70025E025E02432F8120CC2E4FBFA794078B5
:1012F700401207CD7B007AF0797F78451208D67BBC
:10130700007A40791C78461207CDE55E25E025E096
:101317002432F8120CDB055EE55EC394054086E5D2
:101327004B64E87004E54A64037034B2012000049A
:10133700A20192B6754A00754B00E52725E025E026
:101347002432F8120CC2120A1EE52725E02428F8D9
:0F135700A60608A6070527E527B4050375270096
:10136600D007D006D005D004D003D002D001D000DB
:0B137600D0D0D082D083D0F0D0E03285
:080003001218E31217AC80FB98
:1006D500020AA9E86480F8E933E83360110460F0A0
:1006E500ED33EC337009E8FCE9FDEAFEEBFF22048B
:1006F50060DED3EB9FEA9EE99DE8C2E78CF0C2F786
:1007050095F0400CE8CCF8E9CDF9EACEFAEBCFFB51
:10071500120A7485D0F05804700320D5B3E804702C
:10072500075002B2D5020AB392D5EC0460F7E4CCC7
:10073500C0E0C398F8603B94186008400DD0E0FB1A
:10074500020A8BE4FBFAC9FC8028E830E406E4C918
:10075500FBE4CAFCE830E305E4C9CACBFCE854076E
:100765006010F8C3E913F9EA13FAEB13FBEC13FC79
:10077500D8F130F52FC3E49CFCEF9BFFEE9AFEED1C
:1007850099FDD0E0FBEF4E4D4C701222DB03020ABF
:10079500B0EC2CFCEF33FFEE33FEED33FDED30E72F
:1007A500EB020A8BEF2BFFEE3AFEED39FDD0E0FBB5
:1007B50050130BBB0003020AB3ED13FDEE13FEEF5E
:0807C50013FFEC13FC020A8B88
:1007CD00EC4D6011E8497017ED33EC3304600DE426
:1007DD00FCFFFEFD22E933E8330470F8020AA9128A
:1007ED000A7458046009E4CC24815006285009028B
:1007FD000AB3284003020AB0C0E0EB4A7044B98046
:10080D0006D0E0FB020A9FEF4E701CBD8008EBFF87
:10081D00EAFEE9FD80EBE98DF0A4FEE5F00208B6F5
:10082D00E9CDF9EAFEEBFFEF89F0A4FCE5F0CE8906
:10083D00F0A42EFFE435F0CD89F0A42DFEE435F0C3
:10084D008067EF4E7005BD80D780C3EF8BF0A4ACF1
:10085D00F0EE8BF0A42CFCE435F0F8EF8AF0A42C2C
:10086D00E5F038FCE433CB8DF0A42CFCE5F03BF83F
:10087D00EE8AF0A42CFCE5F038F8E433CF89F0A42F
:10088D002CFCE5F038CF3400CE89F0A42FFFE5F035
:10089D003EFEE433C98DF0A42EFEE5F039CD8AF08D
:1008AD00A42FFFE5F03EFEE43DFD33D0E0FB500705
:1008BD000BBB000F020AB3EC2CFCEF33FFEE33FE43
:0608CD00ED33FD020A8B71
:1008D300020AB3EC5D046005E859047003020AA937
:1008E300120A74580460F6EC4860F2EC7004FDFEE2
:1008F300FF22C860DB2481C85009C39860025006F8
:10090300020AB09850CAF582E9294B4A7005AB82B6
:10091300020A9F75F0007C1A7880C3EF9BEE9AED74
:1009230099400DC3EF9BFFEE9AFEED99FDE842F06F
:10093300DC23ACF0D0E0FFD0E0FED0E0FDAB8220C2
:10094300E7101BEB60BAEC2CFCEF33FFEE33FEED4C
:1009530033FD020A8BE803F830E705C0F075F000B9
:10096300EF2FFFEE33FEED33FD40B830E7C280AA30
:1009730074F8CC6480CCC86480C8F582046043C337
:10098300EB9FF5F0EA9E42F0E99D42F0E89C45F0CA
:1009930060305018E5825FFFE582F42B5582FB50EF
:1009A300210ABA001D09B90019088016E5825BFB0C
:1009B300E582F42F5582FF50090EBE00050DBD00E0
:1009C300010CC3EB9FF5F0EA9E42F0E99D42F0E88B
:0D09D3009C45F06007CC4820E701B3EC2202
:1009E00075F020800E75F010800575F0087D007E92
:1009F000007F003392D530D503120CB4EC33401095
:100A0000EF33FFEE33FEED33FDEC33FCD5F0ED229A
:0E0A1000E5F0247EA2D513CC92E7CDCEFF22D6
:100A1E00EDD2E7CD33EC3392D524814006E4FFFED0
:100A2E00FDFC22FCE4CFCECDCC24E0501174FF802F
:100A3E00EDC3CC13CCCD13CDCE13CECF13CF0470CC
:070A4E00F030D5DE020CB40C
:100A550088827D80E4FEFF120CCE1206DCA882E6B9
:0F0A6500CCF608E6CDF608E6CEF608E6CFF62288
:100A7400E9D2E7C933E833F892D5EDD2E7CD33ECC8
:070A840033FC5002B2D52241
:100A8B00EC30E7100FBF000C0EBE00080DBD0004CC
:100A9B000BEB6014A2D5EB13FCED92E7FD2274FF78
:100AAB00FCFDFEFF22E480F8A2D574FF13FC7D80D1
:030ABB00E480EFE5
:10164B00020003E493A3F8E493A34003F68001F2B2
:10165B0008DFF48029E493A3F85407240CC8C333A0
:10166B00C4540F4420C8834004F456800146F6DF6F
:10167B00E4800B010204081020408090146DE47E7E
:10168B00019360BCA3FF543F30E509541FFEE49364
:10169B00A360010ECF54C025E060A840B8E493A32B
:1016AB00FAE493A3F8E493A3C8C582C8CAC583CA56
:1016BB00F0A3C8C582C8CAC583CADFE9DEE780BE0E
:0115210000C9
:100ABE00E709F608DFFA8046E709F208DFFA803E1A
:100ACE0088828C83E709F0A3DFFA8032E309F60807
:100ADE00DFFA8078E309F208DFFA807088828C836F
:100AEE00E309F0A3DFFA806489828A83E0A3F60823
:100AFE00DFFA805889828A83E0A3F208DFFA804CFD
:100B0E0080D280FA80C680D4806980F280338010D3
:100B1E0080A680EA809A80A880DA80E280CA80333C
:100B2E0089828A83ECFAE493A3C8C582C8CCC583B4
:100B3E00CCF0A3C8C582C8CCC583CCDFE9DEE78084
:100B4E000D89828A83E493A3F608DFF9ECFAA9F003
:100B5E00EDFB2289828A83ECFAE0A3C8C582C8CC59
:100B6E00C583CCF0A3C8C582C8CCC583CCDFEADE72
:100B7E00E880DB89828A83E493A3F208DFF980CCD4
:100B8E0088F0EF60010E4E60C388F0ED2402B404CD
:100B9E000050B9F582EB2402B4040050AF23234574
:060BAE008223900B0E7380
:100BB400BB010689828A83E0225002E722BBFE023F
:090BC400E32289828A83E4932272
:100BCD00BB010CE58229F582E5833AF583E02250DD
:100BDD0006E92582F8E622BBFE06E92582F8E22227
:0D0BED00E58229F582E5833AF583E4932241
:100BFA00BC000BBE0029EF8DF084FFADF022E4CCDF
:100C0A00F875F008EF2FFFEE33FEEC33FCEE9DECA7
:100C1A00984005FCEE9DFE0FD5F0E9E4CEFD22EDED
:100C2A00F8F5F0EE8420D21CFEADF075F008EF2F37
:100C3A00FFED33FD4007985006D5F0F222C398FD28
:050C4A000FD5F0EA22C5
:100C4F00BB0110E58229F582E5833AF583E0F5F0E3
:100C5F00A3E0225009E92582F886F008E622BBFEC0
:100C6F000AE92582F8E2F5F008E222E5832AF58306
:080C7F00E993F5F0A3E99322CB
:100C8700F8BB0111E58229F582E5833AF583E8F09F
:100C9700E5F0A3F0225009E92582C8F608A6F0225C
:0D0CA700BBFE09E92582C8F2E5F008F22243
:0E0CB400C3E49FFFE49EFEE49DFDE49CFC2251
:0C0CC200E6FC08E6FD08E6FE08E6FF225E
:0D0CCE00E6FB08E6F908E6FA08E6CBF82296
:0C0CDB00ECF608EDF608EEF608EFF62245
:0C0CE700A42582F582E5F03583F5832218
:00000001FF
