:030000000215B531
:0C15B500787FE4F6D8FD7581680215FC13
:10000E002E00696E563A20202020204F43503A0091
:10001E006F7574563A006F7574413A000C1C2C3C87
:10002E004CC2F4010001103FF8010001007FFC08F2
:10003E00040688228018800884FFFE014002300CDE
:10004E00183008B1A8100811FC11081108FD28116C
:10005E0010150019F83108D19011501120115011BE
:10006E008E51042100D0A101000100010001000108
:10007E000005400520091009081104210441000162
:10008E0000010005000200D7D300003FF000100071
:10009E0020004001800104FFFE010001000100016B
:1000AE000001000100050002000000000000000039
:1000BE00000000000000000000000038FCFC3800CA
:1000CE00000000000D0D000000000E1E00001E0EB0
:1000DE0000000000000000000020F8F820F8F820D2
:1000EE0000020F0F020F0F0200387C444747CC98D6
:1000FE00000306041C1C07030030300080C0603073
:10010E00000C060301000C0C0080D87CE4BCD84027
:10011E0000070F0808070F080000101E0E00000051
:10012E000000000000000000000000F0F80C0400C9
:10013E0000000003070C0800000000040CF8F0009B
:10014E00000000080C0703000080A0E0C0C0E0A083
:10015E00800002030101030200008080E0E0808045
:10016E00000000000303000000000000000000007B
:10017E00000000101E0E00000080808080808080B5
:10018E000000000000000000000000000000000061
:10019E00000000000C0C00000000000080C0603069
:1001AE00000C06030100000000F8FC04C424FCF857
:1001BE0000070F0908080F0700001018FCFC0000CC
:1001CE00000008080F0F080800080C84C4643C18CF
:1001DE00000E0F0908080C0C00080C444444FCB82F
:1001EE0000040C0808080F0700C0E0B098FCFC8063
:1001FE0000000000080F0F08007C7C4444C4C48437
:10020E0000040C0808080F0700F0F84C4444C080A6
:10021E0000070F0808080F07000C0C0484C47C3C70
:10022E000000000F0F00000000B8FC444444FCB86E
:10023E0000070F0808080F0700387C444444FCF8F8
:10024E0000000808080C0703000000003030000012
:10025E000000000006060000000000003030000024
:10026E00000000080E060000000080C06030180874
:10027E000000000103060C08004040404040404092
:10028E000002020202020202000008183060C08062
:10029E000000080C0603010000181C04C4E43C18FE
:1002AE00000000000D0D000000F0F808C8C8F8F0BE
:1002BE0000070F080B0B0B0100E0F0988C98F0E094
:1002CE00000F0F0000000F0F0004FCFC4444FCB8AC
:1002DE0000080F0F08080F0700F0F80C04040C18A4
:1002EE000003070C08080C060004FCFC040CF8F0D4
:1002FE0000080F0F080C07030004FCFC44E40C1C60
:10030E0000080F0F08080C0E0004FCFC44E40C1C43
:10031E0000080F0F0800000000F0F80C84848C9881
:10032E000003070C0808070F00FCFC404040FCFCD3
:10033E00000F0F0000000F0F00000004FCFC040073
:10034E00000000080F0F08000000000004FCFC0471
:10035E0000070F08080F07000004FCFCC0F03C0C5F
:10036E0000080F0F00010F0E0004FCFC040000003B
:10037E0000080F0F08080C0E00FCFC387038FCFC4F
:10038E00000F0F0000000F0F00FCFC3870E0FCFCAB
:10039E00000F0F0000000F0F00F0F80C040CF8F027
:1003AE000003070C080C07030004FCFC44447C38D3
:1003BE0000080F0F0800000000F8FC040404FCF80D
:1003CE0000070F080E3C3F270004FCFC44C4FC3819
:1003DE0000080F0F00000F0F00183C6444C49C1857
:1003EE0000060E0808080F0700001C0CFCFC0C1C75
:1003FE00000000080F0F080000FCFC000000FCFCD1
:10040E0000070F0808080F0700FCFC000000FCFCAA
:10041E00000103060C06030100FCFC008000FCFC3E
:10042E0000030F0E030E0F03000C3CF0C0F03C0C4B
:10043E00000C0F0300030F0C00003C7CC0C07C3C82
:10044E00000000080F0F0800001C0C84C4643C1C44
:10045E00000E0F0908080C0E000000FCFC0404003E
:10046E000000000F0F080800003870E0C080000088
:10047E00000000000103070E0000000404FCFC0055
:10048E0000000008080F0F0000080C0603060C08F9
:10049E00000000000000000000000000000000004E
:1004AE000020202020202020200000030704000030
:1004BE0000000000000000000000A0A0A0E0C000AE
:1004CE0000070F0808070F080004FCFC2060C0801E
:1004DE0000080F0708080F0700C0E020202060402A
:1004EE0000070F0808080C040080C06024FCFC0004
:1004FE0000070F0808070F0800C0E0A0A0A0E0C08A
:10050E0000070F0808080C040040F8FC440C180003
:10051E0000080F0F0800000000C0E02020C0E020FF
:10052E0000276F48487F3F000004FCFC4020E0C0DD
:10053E0000080F0F00000F0F00000020ECEC000071
:10054E00000000080F0F0800000000000020ECEC77
:10055E000000307040407F3F0004FCFC80C06020F3
:10056E0000080F0F01030E0C00000004FCFC00003D
:10057E00000000080F0F080000E0E060C060E0C05F
:10058E00000F0F000F000F0F0020E0C02020E0C072
:10059E0000000F0F00000F0F00C0E0202020E0C071
:1005AE0000070F0808080F070020E0C02020E0C059
:1005BE0000407F7F48080F0700C0E02020C0E020E9
:1005CE0000070F08487F7F400020E0C0602060C019
:1005DE0000080F0F080000000040E0A0202060403F
:1005EE0000040C09090B0E04002020F8FC2020004A
:1005FE00000000070F080C0400E0E00000E0E0003F
:10060E0000070F0808070F080000E0E00000E0E018
:10061E00000003070C0C070300E0E0000000E0E020
:10062E0000070F0C070C0F07002060C080C0602071
:10063E0000080C0703070C0800E0E0000000E0E0F3
:10064E0000474F4848683F1F00606020A0E06020D0
:10065E00000C0E0B09080C0C00004040F8BC040402
:10066E0000000000070F080800000000BCBC0000DE
:10067E00000000000F0F000000000404BCF8404012
:10068E00000008080F07000000080C040C080C04FA
:10069E0000000000000000000080C0603060C080DC
:0D06AE000007070404040707000000000017
:1013E700014800014900606400000000000000009F
:1013F70000000000000000000000000000000000E6
:1014070000000000000000000000000000000000D5
:1014170000000000000000000000000000000000C5
:1014270000000000000000000000000000000000B5
:1014370000000000000000000000000000000000A5
:10144700000000000000000000000000000014324F
:101457000000000000000000000000000000000085
:10146700000000000A280000000000000000000043
:10147700024A0000014700014C0001260001270035
:1014870001461EC100012500022100050223020CAE
:10185300E54E2401FBE433FAE4FDFCFF121876E5C0
:10186300562410FBE433FAE4FF121876E557FB7AAB
:0318730000E4FF8F
:10187600A907AF05AE04C2C6D290E924FF9291C271
:10188600C20000EF4E70048B808004EBF4F58000FC
:0418960000D2C22298
:10152800C2C1E4FF0FBF64FCC2C6D2C17BE27A002D
:10153800E4FDFCFF121876E4FF0FBF64FC7BA07A81
:1015480000E4FDFCFF1218767BC8E4FF1218767BD6
:10155800A6E4FF1218767BA4E4FF1218767BA2E4B7
:10156800FF1218767BF8E4FF1218767B01E4FF126D
:1015780018767B81E4FF1218767B23E4FF12187635
:101588007B25E4FF1218767B2FE4FF121876E4FF20
:101598000FBF64FC7B407A00E4FDFCFF1218767BE9
:0C15A800AFE4FF121876E4FF0FBF64FCF4
:0115B4002214
:02189A008F4D70
:10189C00E4F54EE54E24B0FBE433FAE4FDFCFF1214
:1018AC0018767B10121872E4FBFF121876E4F54FD1
:1018BC00E54DFB7A00E4FDFC7F01121876054FE53F
:0F18CC004FC3948040EA054EE54EC3940840C4D4
:0118DB0022EA
:08105A008F4D8D4E8A4F8B5023
:10106200E54ED3940740037F0022E54DD3948040A0
:10107200037F002274B0254EF54EFB7A00E4FDFC9E
:10108200FF121876AB51AA52A953120B9A7003029F
:1010920011B6E54EFB7A00E4FDFCFF121876E54D31
:1010A200C4540FF556E54D540FF557121862AB5163
:1010B200AA52A953120B9AC3947E5060755420AB66
:1010C20051AA52A953120B9A655460070554E5546C
:1010D200B47EECE4F555E5556408700312185375B7
:1010E200F010E554A42555F582E435F0F583E58248
:1010F20024B7F582E58334FEF583E493FB7A00ADF1
:1011020050AC4F7F011218760555E555C394104037
:10111200C57408254DF54D74010211AAE4F558ABCA
:1011220051AA52A953120B9AFFE55875F022A42432
:101132002FF582E43400F583E4936F705D90000133
:10114200120BB3FFE55875F022A42430F582E43483
:1011520000F583E4936F7042F555E5556410700312
:10116200121853E55875F022A42431F582E43400B4
:10117200F583E5822555F582E43583F583E493FB17
:101182007A00AD50AC4F7F011218760555E555C374
:10119200942040C67410254DF54D0558E558C3946A
:1011A20032500302112174022553F553E43552F5EE
:0611B200520210867F01CD
:0111B8002214
:050EA100E4FBFAFDFC7A
:0A0EA6008F088C098D0A8A0B8B0C53
:100EB000E4F50FF510F511F512F51378147C00FD2B
:100EC0007BFF7A0679B7FE7F04120B74C3E50D949D
:100ED00000400FE50E940AE50D94005005751103CE
:100EE000804CC3E50E940AE50D9400400FE50E9486
:100EF00064E50D940050057511028032C3E50E942F
:100F000064E50D9400400FE50E94E8E50D94035060
:100F1000057511018018C3E50E94E8E50D940340B2
:100F20000DE50E9410E50D94275003E4F511AE0D78
:100F3000AF0E7C037DE8120BE08F14AE0DAF0E7C7C
:100F4000037DE8120BE0AA04AB057D647C00AF03CF
:100F5000AE02120BE08F157D647C00AF03AE02126F
:100F60000BE0AA04AB057D0A7C00AF03AE02120BB6
:100F7000E08F167D0A7C00AF03AE02120BE08D17E6
:100F8000D3E50A9407E5096480948040037F00223A
:100F9000E508D3948040037F002274B0250AF50A47
:100FA000E43509F509AB0AFAE4FDFCFF1218768571
:100FB000110FE50FC394044003021057AB0AAA09AE
:100FC000E4FDFCFF121876E508C4540FF512E5089D
:100FD000540FF513E5122410FBE433FAE4FF121862
:100FE00076E513121871E4F510E51064087022E537
:100FF0000A2401FBE43509FAE4FDFCFF121876E54A
:10100000122410FBE433FAE4FF121876E5131218E9
:10101000717414250FF8E675F010A42510F582E41C
:1010200035F0F583E58224B7F582E5833401F58355
:10103000E493FB7A00AD0CAC0B7F0112187605101F
:10104000E510C3941040A27408250AF50AE4350996
:09105000F509050F020FB27F0142
:011059002274
:02177400A907C3
:10177600D2A6E96004C2C48002C2A7EC4D24FF923F
:10178600A500E4FFEFC39BEA6480F87480985020BC
:10179600C2A60000D2A6E9600B30A5041549800D4B
:1017A6000549800930A5041548800205480F80D4F4
:0817B600E96003D2C422D2A7AE
:0117BE002208
:1016BA00C3EC64809480405FED9464EC6480948011
:1016CA005055EF6028AF497E00ED9F7480F86C9802
:1016DA00400BED9FFBEC9EFAE4FDFC800CC3E54950
:1016EA009DFBE49CFA7D017C007F018027AF487E48
:1016FA0000D3ED9F7480F86C98400BED9FFBEC9E35
:10170A00FAE4FDFC800DC3E5489DFBE49CFA7D01EB
:08171A007C00E4FF12177422A9
:1018F8007B647A007D017C00E4FF1217747F01127B
:091908001774754809E4F5492241
:0B192400EF1FAC0670011E4C70F62295
:10172200E4FDEF90002A93FFE4FBFA000000C2B54B
:10173200D2B2EF30E704D2B38002C2B3EF25E0FFAA
:10174200C2B2000DBD10E9E4FD30B403430301D27F
:10175200B2EB25E0FBEA33FAC2B2000DBD10EAD2C9
:10176200B5EAC4F854F0C868FAEBC4540F48AE02A4
:01177200FF77
:011773002253
:081498008B5A8A5B895C8D5DB3
:1014A000E4F55EF55FF55EE55EC3955D5079E4F5C4
:1014B0005FE55FC3955D506BAB5AAA5BA95C75F0A5
:1014C00002E55EA4F58285F083120C35FFAEF0755F
:1014D000F002E55FA4F58285F083120C35FDACF0D7
:1014E000D39FEC9E40398C608D6175F002E55EA45F
:1014F000F58285F083120C35FFAEF075F002E55FE2
:10150000A4F58285F083EE8FF0120C6D75F002E584
:101510005EA4F58285F083E5608561F0120C6D05AF
:071520005F808E055E8080F4
:0115270022A1
:0812FB008B5A8A5B895C8D5D52
:10130300E4F562F561F560F55FAC5D1209D08F66B7
:101313008E658D648C63756700855D68C3E55E9536
:101323005DFFE49400FEC3E5689FEE6480F8E56723
:1013330064809840030213DEAB62AA61A960A85FD0
:10134300C000C001C002C003E56825E0FFE56733C4
:10135300AB5AAA5BA95C8F82F583120C35FDACF006
:10136300E41209CBD003D002D001D0001206C28F01
:10137300628E618D608C5FC004C005C006C00778B3
:10138300637F007E007D807C3F120A3BC004C00562
:10139300C006C007AC5DE41209D0A804A905AA06DB
:1013A300AB07D007D006D005D0041209597008FB4B
:1013B300FA7980783F8006E4FBFAF97840D007D0C9
:1013C30006D005D0041208BC8F628E618D608C5FDD
:1013D3000568E5687002056702131FAF62AE61AD71
:0313E30060AC5F9C
:0113E60022E4
:100CD900AE28AF297C277D10120BE08E0D8F0E7F79
:100CE90020120EA17551FF75520075530EE4FBFADF
:100CF900FD7F2812105AAE28AF297C277D10120BD0
:100D0900E07E037FE8CFCDCFCECCCE120BE08E0DA7
:100D19008F0EE4FBFAFDFC7F30120EA6AE28AF2938
:100D29007C277D10120BE07E037FE8CFCDCFCECCA0
:100D3900CE120BE07E007F64CFCDCFCECCCE120B8E
:100D4900E08E0D8F0E7F38120EA1E54675F00A84EC
:100D5900750D00F50EE4FBFAFDFC7F68120EA67511
:100D690051FF75520075530EE4FBFAFD7F701210A6
:100D79005AE54675F00A84AFF0750D008F0EE4FB55
:100D8900FAFDFC7F78120EA6AE2CAF2D7C277D10C4
:100D9900120BE08E0D8F0EE4FBFA7D02FC7F281208
:100DA9000EA67551FF75520075530EE4FBFA7D02CC
:100DB9007F3012105AAE2CAF2D7C277D10120BE01C
:100DC9007E037FE8CFCDCFCECCCE120BE08E0D8F38
:100DD9000EE4FBFA7D02FC7F38120EA6AE2CAF2D75
:100DE9007C277D10120BE07E037FE8CFCDCFCECCE0
:100DF900CE120BE07E007F64CFCDCFCECCCE120BCE
:100E0900E08E0D8F0EE4FBFA7D02FC7F40120EA6E8
:100E1900AE2EAF2F7C277D10120BE08E0D8F0EE4C6
:100E2900FBFA7D04FC7F28120EA67551FF7552004E
:100E390075530EE4FBFA7D047F3012105AAE2EAFC3
:100E49002F7C277D10120BE07E037FE8CFCDCFCE1C
:100E5900CCCE120BE08E0D8F0EE4FBFA7D04FC7FE5
:100E690038120EA6AE2EAF2F7C277D10120BE07E16
:100E7900037FE8CFCDCFCECCCE120BE07E007F64CE
:100E8900CFCDCFCECCCE120BE08E0D8F0EE4FBFA78
:080E99007D04FC7F40020EA65F
:081641008F1B8E1A8D198C1805
:10164900AC21AD22EC1209CBAB1BAA1AA919A81817
:101659001206BEC004C005C006C007AC23AD24EC09
:101669001209CBA804A905AA06AB07D007D006D052
:1016790005D0041208BCAB07AA06A905A804AF1B2C
:10168900AE1AAD19AC181208BC8F1F8E1E8D1D8C99
:101699001CE4FFFE7D487C42AB1FAA1EA91DA81CA5
:1016A9001206C2E4FBFA792078411208BC120A0436
:0116B900220E
:1018DC007FFF20C9027F0120C8027F0220A4027F63
:0B18EC000320A3027F0420B7027F0549
:0118F70022CE
:10191100758E80758901758CFF758A38D2A9D28C34
:03192100D2AF2220
:1017BF0012191175BB70C2A2C2A21218F812152805
:1017CF00E4FF12189A7551FF755200755310E4FB20
:1017DF00FAFDFF12105A7551FF75520075531EE432
:1017EF00FBFA7D02FF12105A7551FF7552007553A7
:0A17FF0024E4FBFA7D04FF02105AF7
:10180900E4F54DFDE54D70411200001218DCAD07FD
:10181900EDF460F0ED24FD601214601424027019D7
:10182900E546C3942850120546800E75461E800968
:10183900E546D39405400215467F887E1312192484
:091849001218DCEFF460BD80F719
:011852002273
:03000B000211B926
:1011B900C0E0C0F0C083C082C0D075D000C000C0FC
:0D11C90001C002C003C004C005C006C0077D
:1011D600755900758CFF758A38054BE54B7002050D
:1011E6004A054CE54CB40A26754C00AF2612172268
:1011F600E52675F014A42400F582E43400F5837521
:10120600F002E547120CCDEEF0A3EFF00526E52639
:10121600B405057526000547E547640A6003021212
:10122600A5F547F559E55975F014A42400F974009D
:1012360035F0FA7B017D0A121498E55975F014A46D
:101246002400F9740035F0FA7B01755E097D011200
:1012560012FBE55925E025E02432F8120CC1E559C8
:1012660025E025E02432F8120CA8E4FBFA79407850
:10127600401207B37B007AF0797F78451208BC7B71
:10128600007A40791C78461207B3E55925E025E037
:101296002432F8120CC10559E559C394054086E578
:1012A6004B64E87004E54A6403702FB200A2009212
:1012B600B6F54AF54BE52725E025E02432F8120C71
:1012C600A8120A04E52725E02428F8A60608A6079A
:0A12D6000527E527B405037527007E
:1012E000D007D006D005D004D003D002D001D00062
:0B12F000D0D0D082D083D0F0D0E0320C
:080003001217BF12180980FB5F
:1006BB00020A8FE86480F8E933E83360110460F0D4
:1006CB00ED33EC337009E8FCE9FDEAFEEBFF2204A5
:1006DB0060DED3EB9FEA9EE99DE8C2E78CF0C2F7A0
:1006EB0095F0400CE8CCF8E9CDF9EACEFAEBCFFB6C
:1006FB00120A5A85D0F05804700320D5B3E8047061
:10070B00075002B2D5020A9992D5EC0460F7E4CCFB
:10071B00C0E0C398F8603B94186008400DD0E0FB34
:10072B00020A71E4FBFAC9FC8028E830E406E4C94C
:10073B00FBE4CAFCE830E305E4C9CACBFCE8540788
:10074B006010F8C3E913F9EA13FAEB13FBEC13FC93
:10075B00D8F130F52FC3E49CFCEF9BFFEE9AFEED36
:10076B0099FDD0E0FBEF4E4D4C701222DB03020AD9
:10077B0096EC2CFCEF33FFEE33FEED33FDED30E763
:10078B00EB020A71EF2BFFEE3AFEED39FDD0E0FBE9
:10079B0050130BBB0003020A99ED13FDEE13FEEF92
:0807AB0013FFEC13FC020A71BC
:1007B300EC4D6011E8497017ED33EC3304600DE440
:1007C300FCFFFEFD22E933E8330470F8020A8F12BE
:1007D3000A5A58046009E4CC2481500628500902BF
:1007E3000A99284003020A96C0E0EB4A7044B98094
:1007F30006D0E0FB020A85EF4E701CBD8008EBFFBC
:10080300EAFEE9FD80EBE98DF0A4FEE5F002089C29
:10081300E9CDF9EAFEEBFFEF89F0A4FCE5F0CE8920
:10082300F0A42EFFE435F0CD89F0A42DFEE435F0DD
:100833008067EF4E7005BD80D780C3EF8BF0A4AC0B
:10084300F0EE8BF0A42CFCE435F0F8EF8AF0A42C46
:10085300E5F038FCE433CB8DF0A42CFCE5F03BF859
:10086300EE8AF0A42CFCE5F038F8E433CF89F0A449
:100873002CFCE5F038CF3400CE89F0A42FFFE5F04F
:100883003EFEE433C98DF0A42EFEE5F039CD8AF0A7
:10089300A42FFFE5F03EFEE43DFD33D0E0FB50071F
:1008A3000BBB000F020A99EC2CFCEF33FFEE33FE77
:0608B300ED33FD020A71A5
:1008B900020A99EC5D046005E859047003020A8F85
:1008C900120A5A580460F6EC4860F2EC7004FDFE16
:1008D900FF22C860DB2481C85009C3986002500612
:1008E900020A969850CAF582E9294B4A7005AB82EB
:1008F900020A8575F0007C1A7880C3EF9BEE9AEDA9
:1009090099400DC3EF9BFFEE9AFEED99FDE842F089
:10091900DC23ACF0D0E0FFD0E0FED0E0FDAB8220DC
:10092900E7101BEB60BAEC2CFCEF33FFEE33FEED66
:1009390033FD020A71E803F830E705C0F075F000ED
:10094900EF2FFFEE33FEED33FD40B830E7C280AA4A
:1009590074F8CC6480CCC86480C8F582046043C351
:10096900EB9FF5F0EA9E42F0E99D42F0E89C45F0E4
:1009790060305018E5825FFFE582F42B5582FB5009
:10098900210ABA001D09B90019088016E5825BFB26
:10099900E582F42F5582FF50090EBE00050DBD00FA
:1009A900010CC3EB9FF5F0EA9E42F0E99D42F0E8A5
:0D09B9009C45F06007CC4820E701B3EC221C
:1009C60075F020800E75F010800575F0087D007EAC
:1009D600007F003392D530D503120C9AEC334010C9
:1009E600EF33FFEE33FEED33FDEC33FCD5F0ED22B5
:0E09F600E5F0247EA2D513CC92E7CDCEFF22F1
:100A0400EDD2E7CD33EC3392D524814006E4FFFEEA
:100A1400FDFC22FCE4CFCECDCC24E0501174FF8049
:100A2400EDC3CC13CCCD13CDCE13CECF13CF0470E6
:070A3400F030D5DE020C9A40
:100A3B0088827D80E4FEFF120CB41206C2A882E607
:0F0A4B00CCF608E6CDF608E6CEF608E6CFF622A2
:100A5A00E9D2E7C933E833F892D5EDD2E7CD33ECE2
:070A6A0033FC5002B2D5225B
:100A7100EC30E7100FBF000C0EBE00080DBD0004E6
:100A81000BEB6014A2D5EB13FCED92E7FD2274FF92
:100A9100FCFDFEFF22E480F8A2D574FF13FC7D80EB
:030AA100E480EFFF
:1015C100020003E493A3F8E493A34003F68001F23D
:1015D10008DFF48029E493A3F85407240CC8C3332B
:1015E100C4540F4420C8834004F456800146F6DFFA
:1015F100E4800B01020408102040809013E7E47E90
:10160100019360BCA3FF543F30E509541FFEE493EE
:10161100A360010ECF54C025E060A840B8E493A3B5
:10162100FAE493A3F8E493A3C8C582C8CAC583CAE0
:10163100F0A3C8C582C8CAC583CADFE9DEE780BE98
:011497000054
:100AA400E709F608DFFA8046E709F208DFFA803E34
:100AB40088828C83E709F0A3DFFA8032E309F60821
:100AC400DFFA8078E309F208DFFA807088828C8389
:100AD400E309F0A3DFFA806489828A83E0A3F6083D
:100AE400DFFA805889828A83E0A3F208DFFA804C17
:100AF40080D280FA80C680D4806980F280338010EE
:100B040080A680EA809A80A880DA80E280CA803356
:100B140089828A83ECFAE493A3C8C582C8CCC583CE
:100B2400CCF0A3C8C582C8CCC583CCDFE9DEE7809E
:100B34000D89828A83E493A3F608DFF9ECFAA9F01D
:100B4400EDFB2289828A83ECFAE0A3C8C582C8CC73
:100B5400C583CCF0A3C8C582C8CCC583CCDFEADE8C
:100B6400E880DB89828A83E493A3F208DFF980CCEE
:100B740088F0EF60010E4E60C388F0ED2402B404E7
:100B84000050B9F582EB2402B4040050AF2323458E
:060B94008223900AF473B5
:100B9A00BB010689828A83E0225002E722BBFE0259
:090BAA00E32289828A83E493228C
:100BB300BB010CE58229F582E5833AF583E02250F7
:100BC30006E92582F8E622BBFE06E92582F8E22241
:0D0BD300E58229F582E5833AF583E493225B
:100BE000BC000BBE0029EF8DF084FFADF022E4CCF9
:100BF000F875F008EF2FFFEE33FEEC33FCEE9DECC2
:100C0000984005FCEE9DFE0FD5F0E9E4CEFD22ED07
:100C1000F8F5F0EE8420D21CFEADF075F008EF2F51
:100C2000FFED33FD4007985006D5F0F222C398FD42
:050C30000FD5F0EA22DF
:100C3500BB0110E58229F582E5833AF583E0F5F0FD
:100C4500A3E0225009E92582F886F008E622BBFEDA
:100C55000AE92582F8E2F5F008E222E5832AF58320
:080C6500E993F5F0A3E99322E5
:100C6D00F8BB0111E58229F582E5833AF583E8F0B9
:100C7D00E5F0A3F0225009E92582C8F608A6F02276
:0D0C8D00BBFE09E92582C8F2E5F008F2225D
:0E0C9A00C3E49FFFE49EFEE49DFDE49CFC226B
:0C0CA800E6FC08E6FD08E6FE08E6FF2278
:0D0CB400E6FB08E6F908E6FA08E6CBF822B0
:0C0CC100ECF608EDF608EEF608EFF6225F
:0C0CCD00A42582F582E5F03583F5832232
:00000001FF
