:10000E002E000C1C2C3C4CC2F4010001103FF801D8
:10001E000001007FFC08040688228018800884FFF7
:10002E00FE014002300C183008B1A8100811FC1166
:10003E00081108FD281110150019F83108D190117A
:10004E005011201150118E51042100D0A101000138
:10005E0000010001000100054005200910090811EA
:10006E0004210441000100010005000200D7D30065
:10007E00003FF000100020004001800104FFFE014F
:10008E000001000100010001000100050002000056
:10009E000000000000000000000000000000000052
:1000AE000038FCFC3800000000000D0D00000000C0
:1000BE000E1E00001E0E00000000000000000020BA
:1000CE00F8F820F8F82000020F0F020F0F02003888
:1000DE007C444747CC98000306041C1C07030030E1
:1000EE00300080C06030000C060301000C0C008054
:1000FE00D87CE4BCD84000070F0808070F080000A2
:10010E00101E0E00000000000000000000000000A5
:10011E0000F0F80C040000000003070C08000000BB
:10012E0000040CF8F000000000080C07030000802B
:10013E00A0E0C0C0E0A080000203010103020000A5
:10014E008080E0E0808000000000030300000000DB
:10015E00000000000000000000101E0E00000080D5
:10016E008080808080800000000000000000000081
:10017E00000000000000000000000C0C0000000059
:10018E00000080C06030000C06030100000000F883
:10019E00FC04C424FCF800070F0908080F07000030
:1001AE001018FCFC0000000008080F0F08080008DB
:1001BE000C84C4643C18000E0F0908080C0C0008CF
:1001CE000C444444FCB800040C0808080F0700C097
:1001DE00E0B098FCFC8000000000080F0F08007CC7
:1001EE007C4444C4C48400040C0808080F0700F0C3
:1001FE00F84C4444C08000070F0808080F07000C95
:10020E000C0484C47C3C0000000F0F00000000B8FA
:10021E00FC444444FCB800070F0808080F070038D8
:10022E007C444444FCF800000808080C0703000056
:10023E000000303000000000000006060000000044
:10024E00000030300000000000080E060000000024
:10025E0080C0603018080000000103060C08004042
:10026E0040404040404000020202020202020000F2
:10027E0008183060C0800000080C0603010000184A
:10028E001C04C4E43C18000000000D0D000000F03A
:10029E00F808C8C8F8F000070F080B0B0B0100E0B8
:1002AE00F0988C98F0E0000F0F0000000F0F000484
:1002BE00FCFC4444FCB800080F0F08080F0700F0C0
:1002CE00F80C04040C180003070C08080C060004B4
:1002DE00FCFC040CF8F000080F0F080C07030004D8
:1002EE00FCFC44E40C1C00080F0F08080C0E000464
:1002FE00FCFC44E40C1C00080F0F0800000000F08A
:10030E00F80C84848C980003070C0808070F00FC77
:10031E00FC404040FCFC000F0F0000000F0F0000DF
:10032E000004FCFC0400000000080F0F0800000091
:10033E00000004FCFC0400070F08080F070000046F
:10034E00FCFCC0F03C0C00080F0F00010F0E000467
:10035E00FCFC0400000000080F0F08080C0E00FC47
:10036E00FC387038FCFC000F0F0000000F0F00FC73
:10037E00FC3870E0FCFC000F0F0000000F0F00F0C7
:10038E00F80C040CF8F00003070C080C070300042B
:10039E00FCFC44447C3800080F0F0800000000F8F5
:1003AE00FC040404FCF800070F080E3C3F27000471
:1003BE00FCFC44C4FC3800080F0F00000F0F00189F
:1003CE003C6444C49C1800060E0808080F07000081
:1003DE001C0CFCFC0C1C000000080F0F080000FC9D
:1003EE00FC000000FCFC00070F0808080F0700FCCB
:1003FE00FC000000FCFC000103060C06030100FCDF
:10040E00FC008000FCFC00030F0E030E0F03000C1B
:10041E003CF0C0F03C0C000C0F0300030F0C00006E
:10042E003C7CC0C07C3C000000080F0F0800001C84
:10043E000C84C4643C1C000E0F0908080C0E00004E
:10044E0000FCFC0404000000000F0F080800003838
:10045E0070E0C0800000000000000103070E0000E5
:10046E00000404FCFC0000000008080F0F00000848
:10047E000C0603060C08000000000000000000003F
:10048E00000000000000002020202020202020005E
:10049E000003070400000000000000000000000040
:1004AE00A0A0A0E0C00000070F0808070F08000476
:1004BE00FCFC2060C08000080F0708080F0700C072
:1004CE00E0202020604000070F0808080C04008080
:1004DE00C06024FCFC0000070F0808070F0800C0CE
:1004EE00E0A0A0A0E0C000070F0808080C04004020
:1004FE00F8FC440C180000080F0F0800000000C0A4
:10050E00E02020C0E02000276F48487F3F00000415
:10051E00FCFC4020E0C000080F0F00000F0F000091
:10052E000020ECEC0000000000080F0F0800000097
:10053E0000000020ECEC0000307040407F3F0004D3
:10054E00FCFC80C0602000080F0F01030E0C0000A1
:10055E000004FCFC0000000000080F0F080000E083
:10056E00E060C060E0C0000F0F000F000F0F002012
:10057E00E0C02020E0C000000F0F00000F0F00C0F1
:10058E00E0202020E0C000070F0808080F07002019
:10059E00E0C02020E0C000407F7F48080F0700C069
:1005AE00E02020C0E02000070F08487F7F40002099
:1005BE00E0C0602060C000080F0F0800000000407F
:1005CE00E0A02020604000040C09090B0E0400205E
:1005DE0020F8FC202000000000070F080C0400E0AB
:1005EE00E00000E0E00000070F0808070F08000019
:1005FE00E0E00000E0E0000003070C0C070300E061
:10060E00E0000000E0E000070F0C070C0F070020D1
:10061E0060C080C0602000080C0703070C0800E0D3
:10062E00E0000000E0E000474F4848683F1F0060D0
:10063E006020A0E06020000C0E0B09080C0C0000DE
:10064E004040F8BC040400000000070F080800003A
:10065E000000BCBC0000000000000F0F00000000F6
:10066E000404BCF84040000008080F070000000812
:10067E000C040C080C0400000000000000000080B8
:10068E00C0603060C0800007070404040707000044
:03069E0000000059
:1013D10001480001490060640000000000000000B5
:1013E10000000000000000000000000000000000FC
:1013F10000000000000000000000000000000000EC
:1014010000000000000000000000000000000000DB
:1014110000000000000000000000000000000000CB
:1014210000000000000000000000000000000000BB
:101431000000000000000000000000000000143265
:10144100000000000000000000000000000000009B
:10145100000000000A280000000000000000000059
:10146100024A0000014700014C000126000127004B
:1014710001461EC100012500022100050223020CC4
:1017A900E55E2401FBE433FAE4FDFCFF1217CCE506
:1017B900662410FBE433FAE4FF1217CCE567FB7AE1
:0317C90000E4FF3A
:1017CC00A907AF05AE04C2C6D290E924FF9291C21C
:1017DC00C20000EF4E70048B808004EBF4F58000A7
:0417EC0000D2C22243
:10151200C2C1E4FF0FBF64FCC2C6D2C17BE27A0043
:10152200E4FDFCFF1217CCE4FF0FBF64FC7BA07A42
:1015320000E4FDFCFF1217CC7BC8E4FF1217CC7B42
:10154200A6E4FF1217CC7BA4E4FF1217CC7BA2E423
:10155200FF1217CC7BF8E4FF1217CC7B01E4FF12D9
:1015620017CC7B81E4FF1217CC7B23E4FF1217CC4C
:101572007B25E4FF1217CC7B2FE4FF1217CCE4FF8C
:101582000FBF64FC7B407A00E4FDFCFF1217CC7BAA
:0C159200AFE4FF1217CCE4FF0FBF64FCB5
:01159E00222A
:0217F0008F69FF
:1017F200E4F56AE56A24B0FBE433FAE4FDFCFF1287
:1018020017CC7B101217C8E4FBFF1217CCE4F56B60
:10181200E569FB7A00E4FDFC7F011217CC056BE55C
:0F1822006BC3948040EA056AE56AC3940840C42A
:011831002294
:081040008F5D8D5E8A5F8B60FD
:10104800E55ED3940740037F0022E55DD39480409A
:10105800037F002274B0255EF55EFB7A00E4FDFC98
:10106800FF1217CCAB61AA62A963120B807003024E
:10107800119CE55EFB7A00E4FDFCFF1217CCE55DF0
:10108800C4540FF566E55D540FF5671217B8AB61E8
:10109800AA62A963120B80C3947E5060756420AB6A
:1010A80061AA62A963120B80656460070564E56440
:1010B800B47EECE4F565E565640870031217A9755C
:1010C800F010E564A42565F582E435F0F583E58242
:1010D800249DF582E58334FEF583E493FB7A00AD25
:1010E80060AC5F7F011217CC0565E565C3941040BD
:1010F800C57408255DF55D7401021190E4F568ABCF
:1011080061AA62A963120B80FFE56875F022A42426
:1011180015F582E43400F583E4936F705D90000167
:10112800120B99FFE56875F022A42416F582E434C1
:1011380000F583E4936F7042F565E565641070030C
:101148001217A9E56875F022A42417F582E4340083
:10115800F583E5822565F582E43583F583E493FB21
:101168007A00AD60AC5F7F011217CC0565E565C3F9
:10117800942040C67410255DF55D0568E568C39444
:1011880032500302110774022563F563E43562F5F2
:061198006202106C7F01F1
:01119E00222E
:050E8700E4FBFAFDFC94
:0A0E8C008F088C098D0A8A0B8B0C6D
:100E9600E4F50FF510F511F512F51378147C00FD45
:100EA6007BFF7A06799DFE7F04120B5AC3E50D94EB
:100EB60000400FE50E940AE50D94005005751103E8
:100EC600804CC3E50E940AE50D9400400FE50E94A0
:100ED60064E50D940050057511028032C3E50E9449
:100EE60064E50D9400400FE50E94E8E50D9403507B
:100EF600057511018018C3E50E94E8E50D940340CD
:100F06000DE50E9410E50D94275003E4F511AE0D92
:100F1600AF0E7C037DE8120BC68F14AE0DAF0E7CB0
:100F2600037DE8120BC6AA04AB057D647C00AF0303
:100F3600AE02120BC68F157D647C00AF03AE0212A3
:100F46000BC6AA04AB057D0A7C00AF03AE02120BEA
:100F5600C68F167D0A7C00AF03AE02120BC68D1734
:100F6600D3E50A9407E5096480948040037F002254
:100F7600E508D3948040037F002274B0250AF50A61
:100F8600E43509F509AB0AFAE4FDFCFF1217CC8536
:100F9600110FE50FC39404400302103DAB0AAA09E2
:100FA600E4FDFCFF1217CCE508C4540FF512E50862
:100FB600540FF513E5122410FBE433FAE4FF12177D
:100FC600CCE5131217C7E4F510E51064087022E5A6
:100FD6000A2401FBE43509FAE4FDFCFF1217CCE50F
:100FE600122410FBE433FAE4FF1217CCE5131217B0
:100FF600C77414250FF8E675F010A42510F582E4E1
:1010060035F0F583E582249DF582E5833401F58389
:10101600E493FB7A00AD0CAC0B7F011217CC0510E4
:10102600E510C3941040A27408250AF50AE43509B0
:09103600F509050F020F987F0176
:01103F00228E
:02175E00A907D9
:10176000D2A6E96004C2C48002C2A7EC4D24FF9255
:10177000A500E4FFEFC39BEA6480F87480985020D2
:10178000C2A60000D2A6E9600B30A5041549800D61
:101790000549800930A5041548800205480F80D40A
:0817A000E96003D2C422D2A7C4
:0117A800221E
:1016A400C3EC64809480405FED9464EC6480948027
:1016B4005055EF6028AF497E00ED9F7480F86C9818
:1016C400400BED9FFBEC9EFAE4FDFC800CC3E54966
:1016D4009DFBE49CFA7D017C007F018027AF487E5E
:1016E40000D3ED9F7480F86C98400BED9FFBEC9E4B
:1016F400FAE4FDFC800DC3E5489DFBE49CFA7D0102
:081704007C00E4FF12175E22D5
:101832007B647A007D017C00E4FF12175E7F011257
:09184200175E754809E4F549221E
:0B184B00EF1FAC0670011E4C70F6226F
:10170C00E4FDEF90001093FFE4FBFA000000C2B57B
:10171C00D2B2EF30E704D2B38002C2B3EF25E0FFC0
:10172C00C2B2000DBD10E9E4FD30B403430301D295
:10173C00B2EB25E0FBEA33FAC2B2000DBD10EAD2DF
:10174C00B5EAC4F854F0C868FAEBC4540F48AE02BA
:01175C00FF8D
:01175D002269
:081482008B4E8A4F89508D51F9
:10148A00E4F552F553F552E552C395515079E4F516
:10149A0053E553C39551506BAB4EAA4FA95075F003
:1014AA0002E552A4F58285F083120C1BFFAEF0759B
:1014BA00F002E553A4F58285F083120C1BFDACF013
:1014CA00D39FEC9E40398C548D5575F002E552A499
:1014DA00F58285F083120C1BFFAEF075F002E5531E
:1014EA00A4F58285F083EE8FF0120C5375F002E5B5
:1014FA0052A4F58285F083E5548555F0120C530504
:07150A0053808E0552808022
:0115110022B7
:0812E5008B4E8A4F89508D5198
:1012ED00E4F556F555F554F553AC511209B68F5A30
:1012FD008E598D588C57755B0085515CC3E55295A1
:10130D0051FFE49400FEC3E55C9FEE6480F8E55B5D
:10131D0064809840030213C8AB56AA55A954A8532C
:10132D00C000C001C002C003E55C25E0FFE55B33F2
:10133D00AB4EAA4FA9508F82F583120C1BFDACF05A
:10134D00E41209B1D003D002D001D0001206A88F4B
:10135D00568E558D548C53C004C005C006C00778F9
:10136D00577F007E007D807C3F120A21C004C0059E
:10137D00C006C007AC51E41209B6A804A905AA0617
:10138D00AB07D007D006D005D00412093F7008FB7B
:10139D00FA7980783F8006E4FBFAF97840D007D0DF
:1013AD0006D005D0041208A28F568E558D548C533D
:1013BD00055CE55C7002055B021309AF56AE55ADD9
:0313CD0054AC53CA
:0113D00022FA
:100CBF00AE28AF297C277D10120BC68E0D8F0E7FAD
:100CCF0020120E877561FF75620075630EE4FBFAE3
:100CDF00FD7F28121040AE28AF297C277D10120B04
:100CEF00C67E037FE8CFCDCFCECCCE120BC68E0DF6
:100CFF008F0EE4FBFAFDFC7F30120E8CAE28AF296D
:100D0F007C277D10120BC67E037FE8CFCDCFCECCD4
:100D1F00CE120BC67E007F64CFCDCFCECCCE120BC2
:100D2F00C68E0D8F0E7F38120E87E54675F00A843A
:100D3F00750D00F50EE4FBFAFDFC7F68120E8C7545
:100D4F0061FF75620075630EE4FBFAFD7F70121090
:100D5F0040E54675F00A84AFF0750D008F0EE4FB89
:100D6F00FAFDFC7F78120E8CAE2CAF2D7C277D10F8
:100D7F00120BC68E0D8F0EE4FBFA7D02FC7F28123C
:100D8F000E8C7561FF75620075630EE4FBFA7D02D0
:100D9F007F30121040AE2CAF2D7C277D10120BC66A
:100DAF007E037FE8CFCDCFCECCCE120BC68E0D8F6C
:100DBF000EE4FBFA7D02FC7F38120E8CAE2CAF2DA9
:100DCF007C277D10120BC67E037FE8CFCDCFCECC14
:100DDF00CE120BC67E007F64CFCDCFCECCCE120B02
:100DEF00C68E0D8F0EE4FBFA7D02FC7F40120E8C37
:100DFF00AE2EAF2F7C277D10120BC68E0D8F0EE4FB
:100E0F00FBFA7D04FC7F28120E8C7561FF75620062
:100E1F0075630EE4FBFA7D047F30121040AE2EAFE7
:100E2F002F7C277D10120BC67E037FE8CFCDCFCE50
:100E3F00CCCE120BC68E0D8F0EE4FBFA7D04FC7F19
:100E4F0038120E8CAE2EAF2F7C277D10120BC67E64
:100E5F00037FE8CFCDCFCECCCE120BC67E007F6402
:100E6F00CFCDCFCECCCE120BC68E0D8F0EE4FBFAAC
:080E7F007D04FC7F40020E8C93
:08162B008F1B8E1A8D198C181B
:10163300AC21AD22EC1209B1AB1BAA1AA919A81847
:101643001206A4C004C005C006C007AC23AD24EC39
:101653001209B1A804A905AA06AB07D007D006D082
:1016630005D0041208A2AB07AA06A905A804AF1B5C
:10167300AE1AAD19AC181208A28F1F8E1E8D1D8CC9
:101683001CE4FFFE7D487C42AB1FAA1EA91DA81CBB
:101693001206A8E4FBFA792078411208A21209EA9B
:0116A3002224
:03000B0002119F40
:10119F00C0E0C0F0C083C082C0D075D000C000C016
:0D11AF0001C002C003C004C005C006C00797
:1011BC00754D00758CFF758A38054BE54B70020533
:1011CC004A054CE54CB40A26754C00AF2612170C98
:1011DC00E52675F014A42400F582E43400F583753B
:1011EC00F002E547120CB3EEF0A3EFF00526E5266E
:1011FC00B405057526000547E547640A600302122D
:10120C008BF547F54DE54D75F014A42400F97400E9
:10121C0035F0FA7B017D0A121482E54D75F014A4A9
:10122C002400F9740035F0FA7B017552097D011226
:10123C0012E5E54D25E025E02432F8120CA7E54D2A
:10124C0025E025E02432F8120C8EE4FBFA79407884
:10125C00401207997B007AF0797F78451208A27BBF
:10126C00007A40791C7846120799E54D25E025E077
:10127C002432F8120CA7054DE54DC394054086E5C4
:10128C004B64E87004E54A64037033B200A2009228
:10129C00B6A20092A2F54AF54BE52725E025E024FD
:1012AC0032F8120C8E1209EAE52725E02428F8A65C
:0E12BC000608A6070527E527B40503752700D9
:1012CA00D007D006D005D004D003D002D001D00078
:0B12DA00D0D0D082D083D0F0D0E03222
:08000300D201A20192A280FECD
:1006A100020A75E86480F8E933E83360110460F008
:1006B100ED33EC337009E8FCE9FDEAFEEBFF2204BF
:1006C10060DED3EB9FEA9EE99DE8C2E78CF0C2F7BA
:1006D10095F0400CE8CCF8E9CDF9EACEFAEBCFFB86
:1006E100120A4085D0F05804700320D5B3E8047095
:1006F100075002B2D5020A7F92D5EC0460F7E4CC30
:10070100C0E0C398F8603B94186008400DD0E0FB4E
:10071100020A57E4FBFAC9FC8028E830E406E4C980
:10072100FBE4CAFCE830E305E4C9CACBFCE85407A2
:100731006010F8C3E913F9EA13FAEB13FBEC13FCAD
:10074100D8F130F52FC3E49CFCEF9BFFEE9AFEED50
:1007510099FDD0E0FBEF4E4D4C701222DB03020AF3
:100761007CEC2CFCEF33FFEE33FEED33FDED30E797
:10077100EB020A57EF2BFFEE3AFEED39FDD0E0FB1D
:1007810050130BBB0003020A7FED13FDEE13FEEFC6
:0807910013FFEC13FC020A57F0
:10079900EC4D6011E8497017ED33EC3304600DE45A
:1007A900FCFFFEFD22E933E8330470F8020A7512F2
:1007B9000A4058046009E4CC2481500628500902F3
:1007C9000A7F284003020A7CC0E0EB4A7044B980E2
:1007D90006D0E0FB020A6BEF4E701CBD8008EBFFF0
:1007E900EAFEE9FD80EBE98DF0A4FEE5F00208825E
:1007F900E9CDF9EAFEEBFFEF89F0A4FCE5F0CE893B
:10080900F0A42EFFE435F0CD89F0A42DFEE435F0F7
:100819008067EF4E7005BD80D780C3EF8BF0A4AC25
:10082900F0EE8BF0A42CFCE435F0F8EF8AF0A42C60
:10083900E5F038FCE433CB8DF0A42CFCE5F03BF873
:10084900EE8AF0A42CFCE5F038F8E433CF89F0A463
:100859002CFCE5F038CF3400CE89F0A42FFFE5F069
:100869003EFEE433C98DF0A42EFEE5F039CD8AF0C1
:10087900A42FFFE5F03EFEE43DFD33D0E0FB500739
:100889000BBB000F020A7FEC2CFCEF33FFEE33FEAB
:06089900ED33FD020A57D9
:10089F00020A7FEC5D046005E859047003020A75D3
:1008AF00120A40580460F6EC4860F2EC7004FDFE4A
:1008BF00FF22C860DB2481C85009C398600250062C
:1008CF00020A7C9850CAF582E9294B4A7005AB821F
:1008DF00020A6B75F0007C1A7880C3EF9BEE9AEDDD
:1008EF0099400DC3EF9BFFEE9AFEED99FDE842F0A4
:1008FF00DC23ACF0D0E0FFD0E0FED0E0FDAB8220F7
:10090F00E7101BEB60BAEC2CFCEF33FFEE33FEED80
:10091F0033FD020A57E803F830E705C0F075F00021
:10092F00EF2FFFEE33FEED33FD40B830E7C280AA64
:10093F0074F8CC6480CCC86480C8F582046043C36B
:10094F00EB9FF5F0EA9E42F0E99D42F0E89C45F0FE
:10095F0060305018E5825FFFE582F42B5582FB5023
:10096F00210ABA001D09B90019088016E5825BFB40
:10097F00E582F42F5582FF50090EBE00050DBD0014
:10098F00010CC3EB9FF5F0EA9E42F0E99D42F0E8BF
:0D099F009C45F06007CC4820E701B3EC2236
:1009AC0075F020800E75F010800575F0087D007EC6
:1009BC00007F003392D530D503120C80EC334010FD
:1009CC00EF33FFEE33FEED33FDEC33FCD5F0ED22CF
:0E09DC00E5F0247EA2D513CC92E7CDCEFF220B
:1009EA00EDD2E7CD33EC3392D524814006E4FFFE05
:1009FA00FDFC22FCE4CFCECDCC24E0501174FF8064
:100A0A00EDC3CC13CCCD13CDCE13CECF13CF047000
:070A1A00F030D5DE020C8074
:100A210088827D80E4FEFF120C9A1206A8A882E655
:0F0A3100CCF608E6CDF608E6CEF608E6CFF622BC
:100A4000E9D2E7C933E833F892D5EDD2E7CD33ECFC
:070A500033FC5002B2D52275
:100A5700EC30E7100FBF000C0EBE00080DBD000400
:100A67000BEB6014A2D5EB13FCED92E7FD2274FFAC
:100A7700FCFDFEFF22E480F8A2D574FF13FC7D8005
:030A8700E480EF19
:0300000002159F47
:0C159F00787FE4F6D8FD75816B0215E63C
:100A8A00E709F608DFFA8046E709F208DFFA803E4E
:100A9A0088828C83E709F0A3DFFA8032E309F6083B
:100AAA00DFFA8078E309F208DFFA807088828C83A3
:100ABA00E309F0A3DFFA806489828A83E0A3F60857
:100ACA00DFFA805889828A83E0A3F208DFFA804C31
:100ADA0080D280FA80C680D4806980F28033801008
:100AEA0080A680EA809A80A880DA80E280CA803371
:100AFA0089828A83ECFAE493A3C8C582C8CCC583E9
:100B0A00CCF0A3C8C582C8CCC583CCDFE9DEE780B8
:100B1A000D89828A83E493A3F608DFF9ECFAA9F037
:100B2A00EDFB2289828A83ECFAE0A3C8C582C8CC8D
:100B3A00C583CCF0A3C8C582C8CCC583CCDFEADEA6
:100B4A00E880DB89828A83E493A3F208DFF980CC08
:100B5A0088F0EF60010E4E60C388F0ED2402B40401
:100B6A000050B9F582EB2402B4040050AF232345A8
:060B7A008223900ADA73E9
:100B8000BB010689828A83E0225002E722BBFE0273
:090B9000E32289828A83E49322A6
:100B9900BB010CE58229F582E5833AF583E0225011
:100BA90006E92582F8E622BBFE06E92582F8E2225B
:0D0BB900E58229F582E5833AF583E4932275
:100BC600BC000BBE0029EF8DF084FFADF022E4CC13
:100BD600F875F008EF2FFFEE33FEEC33FCEE9DECDC
:100BE600984005FCEE9DFE0FD5F0E9E4CEFD22ED22
:100BF600F8F5F0EE8420D21CFEADF075F008EF2F6C
:100C0600FFED33FD4007985006D5F0F222C398FD5C
:050C16000FD5F0EA22F9
:100C1B00BB0110E58229F582E5833AF583E0F5F017
:100C2B00A3E0225009E92582F886F008E622BBFEF4
:100C3B000AE92582F8E2F5F008E222E5832AF5833A
:080C4B00E993F5F0A3E99322FF
:100C5300F8BB0111E58229F582E5833AF583E8F0D3
:100C6300E5F0A3F0225009E92582C8F608A6F02290
:0D0C7300BBFE09E92582C8F2E5F008F22277
:0E0C8000C3E49FFFE49EFEE49DFDE49CFC2285
:0C0C8E00E6FC08E6FD08E6FE08E6FF2292
:0D0C9A00E6FB08E6F908E6FA08E6CBF822CA
:0C0CA700ECF608EDF608EEF608EFF62279
:0C0CB300A42582F582E5F03583F583224C
:1015AB00020003E493A3F8E493A34003F68001F253
:1015BB0008DFF48029E493A3F85407240CC8C33341
:1015CB00C4540F4420C8834004F456800146F6DF10
:1015DB00E4800B01020408102040809013D1E47EBC
:1015EB00019360BCA3FF543F30E509541FFEE49305
:1015FB00A360010ECF54C025E060A840B8E493A3CC
:10160B00FAE493A3F8E493A3C8C582C8CAC583CAF6
:10161B00F0A3C8C582C8CAC583CADFE9DEE780BEAE
:01148100006A
:00000001FF
