:10000E002E00696E563A20202020204F43503A0091
:10001E006F7574563A006F7574413A000C1C2C3C87
:10002E00C2F4010001103FF8010001007FFC08043A
:10003E000688228018800884FFFE014002300C18CA
:10004E003008B1A8100811FC11081108FD28111074
:10005E00150019F83108D190115011201150118E40
:10006E0051042100D0A10100010001000100010096
:10007E000540052009100908110421044100010062
:10008E00010005000200D7D300003FF00010002051
:10009E00004001800104FFFE01000100010001008B
:1000AE000100010005000200000000000000000039
:1000BE000000000000000000000038FCFC380000CA
:1000CE000000000D0D000000000E1E00001E0E00B0
:1000DE00000000000000000020F8F820F8F82000D2
:1000EE00020F0F020F0F0200387C444747CC9800D6
:1000FE000306041C1C07030030300080C060300073
:10010E000C060301000C0C0080D87CE4BCD8400027
:10011E00070F0808070F080000101E0E0000000051
:10012E0000000000000000000000F0F80C040000C9
:10013E00000003070C0800000000040CF8F000009B
:10014E000000080C0703000080A0E0C0C0E0A08003
:10015E000002030101030200008080E0E0808000C5
:10016E00000000030300000000000000000000007B
:10017E000000101E0E0000008080808080808000B5
:10018E000000000000000000000000000000000061
:10019E000000000C0C00000000000080C060300069
:1001AE000C06030100000000F8FC04C424FCF80057
:1001BE00070F0908080F0700001018FCFC000000CC
:1001CE000008080F0F080800080C84C4643C1800CF
:1001DE000E0F0908080C0C00080C444444FCB8002F
:1001EE00040C0808080F0700C0E0B098FCFC800063
:1001FE00000000080F0F08007C7C4444C4C4840037
:10020E00040C0808080F0700F0F84C4444C08000A6
:10021E00070F0808080F07000C0C0484C47C3C0070
:10022E0000000F0F00000000B8FC444444FCB8006E
:10023E00070F0808080F0700387C444444FCF800F8
:10024E00000808080C070300000000303000000012
:10025E000000000606000000000000303000000024
:10026E000000080E060000000080C0603018080074
:10027E0000000103060C0800404040404040400092
:10028E0002020202020202000008183060C0800062
:10029E0000080C0603010000181C04C4E43C1800FE
:1002AE000000000D0D000000F0F808C8C8F8F000BE
:1002BE00070F080B0B0B0100E0F0988C98F0E00094
:1002CE000F0F0000000F0F0004FCFC4444FCB800AC
:1002DE00080F0F08080F0700F0F80C04040C1800A4
:1002EE0003070C08080C060004FCFC040CF8F000D4
:1002FE00080F0F080C07030004FCFC44E40C1C0060
:10030E00080F0F08080C0E0004FCFC44E40C1C0043
:10031E00080F0F0800000000F0F80C84848C980081
:10032E0003070C0808070F00FCFC404040FCFC00D3
:10033E000F0F0000000F0F00000004FCFC04000073
:10034E000000080F0F08000000000004FCFC040071
:10035E00070F08080F07000004FCFCC0F03C0C005F
:10036E00080F0F00010F0E0004FCFC04000000003B
:10037E00080F0F08080C0E00FCFC387038FCFC004F
:10038E000F0F0000000F0F00FCFC3870E0FCFC00AB
:10039E000F0F0000000F0F00F0F80C040CF8F00027
:1003AE0003070C080C07030004FCFC44447C3800D3
:1003BE00080F0F0800000000F8FC040404FCF8000D
:1003CE00070F080E3C3F270004FCFC44C4FC380019
:1003DE00080F0F00000F0F00183C6444C49C180057
:1003EE00060E0808080F0700001C0CFCFC0C1C0075
:1003FE000000080F0F080000FCFC000000FCFC00D1
:10040E00070F0808080F0700FCFC000000FCFC00AA
:10041E000103060C06030100FCFC008000FCFC003E
:10042E00030F0E030E0F03000C3CF0C0F03C0C004B
:10043E000C0F0300030F0C00003C7CC0C07C3C0082
:10044E000000080F0F0800001C0C84C4643C1C0044
:10045E000E0F0908080C0E000000FCFC040400003E
:10046E0000000F0F080800003870E0C08000000088
:10047E000000000103070E0000000404FCFC000055
:10048E00000008080F0F0000080C0603060C0800F9
:10049E00000000000000000000000000000000004E
:1004AE002020202020202020000003070400000030
:1004BE00000000000000000000A0A0A0E0C00000AE
:1004CE00070F0808070F080004FCFC2060C080001E
:1004DE00080F0708080F0700C0E02020206040002A
:1004EE00070F0808080C040080C06024FCFC000004
:1004FE00070F0808070F0800C0E0A0A0A0E0C0008A
:10050E00070F0808080C040040F8FC440C18000003
:10051E00080F0F0800000000C0E02020C0E02000FF
:10052E00276F48487F3F000004FCFC4020E0C000DD
:10053E00080F0F00000F0F00000020ECEC00000071
:10054E000000080F0F0800000000000020ECEC0077
:10055E0000307040407F3F0004FCFC80C0602000F3
:10056E00080F0F01030E0C00000004FCFC0000003D
:10057E000000080F0F080000E0E060C060E0C0005F
:10058E000F0F000F000F0F0020E0C02020E0C00072
:10059E00000F0F00000F0F00C0E0202020E0C00071
:1005AE00070F0808080F070020E0C02020E0C00059
:1005BE00407F7F48080F0700C0E02020C0E02000E9
:1005CE00070F08487F7F400020E0C0602060C00019
:1005DE00080F0F080000000040E0A020206040003F
:1005EE00040C09090B0E04002020F8FC202000004A
:1005FE000000070F080C0400E0E00000E0E000003F
:10060E00070F0808070F080000E0E00000E0E00018
:10061E000003070C0C070300E0E0000000E0E00020
:10062E00070F0C070C0F07002060C080C060200071
:10063E00080C0703070C0800E0E0000000E0E000F3
:10064E00474F4848683F1F00606020A0E0602000D0
:10065E000C0E0B09080C0C00004040F8BC04040002
:10066E00000000070F080800000000BCBC000000DE
:10067E000000000F0F000000000404BCF840400012
:10068E000008080F07000000080C040C080C0400FA
:10069E00000000000000000080C0603060C08000DC
:0C06AE0007070404040707000000000018
:1013E100012F0001300060640000000000000000D7
:1013F10000000000000000000000000000000000EC
:1014010000000000000000000000000000000000DB
:1014110000000000000000000000000000000000CB
:1014210000000000000000000000000000000000BB
:1014310000000000000000000000000000000000AB
:10144100000000000000000000000000000014196E
:10145100000000000000000000000000000000008B
:10146100000000000A0F0000000000000000000062
:1014710002310000012E00013300010D00010E00B8
:0E148100012D1E010C0002080005020A020CDB
:10180E00E5452401FBE433FAE4FDFCFF121831E553
:10181E004D2410FBE433FAE4FF121831E54EFB7A47
:03182E0000E4FFD4
:10183100A907AF05AE04C2C6D290E924FF9291C2B6
:10184100C20000EF4E70048B808004EBF4F5800041
:0418510000D2C222DD
:1014900075BB70C2C1E4FF0FBF64FCC2C6D2C17B82
:1014A000E27A00E4FDFCFF121831E4FF0FBF64FC98
:1014B0007BA07A00E4FDFCFF1218317BC8E4FF1228
:1014C00018317BA6E4FF1218317BA4E4FF12183117
:1014D0007BA2E4FF1218317BF8E4FF1218317B0184
:1014E000E4FF1218317B81E4FF1218317B23E4FF03
:1014F0001218317B25E4FF1218317B2FE4FF1218FC
:1015000031E4FF0FBF64FC7B407A00E4FDFCFF1276
:0F15100018317BAFE4FF121831E4FF0FBF64FC0A
:01151F0022A9
:021855008F44BE
:10185700E4F545E54524B0FBE433FAE4FDFCFF126B
:1018670018317B1012182DE4FBFF121831E4F546EE
:10187700E544FB7A00E4FDFC7F011218310546E5DB
:0F18870046C3948040EA0545E545C3940840C434
:01189600222F
:081059008F448D458A468B4748
:10106100E545D3940740037F0022E544D3948040B3
:10107100037F002274B02545F545FB7A00E4FDFCB1
:10108100FF121831AB48AA49A94A120B9970030201
:1010910011B5E545FB7A00E4FDFCFF121831E5448A
:1010A100C4540FF54DE544540FF54E12181DAB48CD
:1010B100AA49A94A120B99C3947E5060754B20AB83
:1010C10048AA49A94A120B99654B6007054BE54BA4
:1010D100B47EECE4F54CE54C6408700312180E750F
:1010E100F010E54BA4254CF582E435F0F583E5825B
:1010F10024B6F582E58334FEF583E493FB7A00ADF3
:1011010047AC467F01121831054CE54CC3941040A1
:10111100C574082544F54474010211A9E4F54FABE7
:1011210048AA49A94A120B99FFE54F75F022A42458
:101131002EF582E43400F583E4936F705D90000135
:10114100120BB2FFE54F75F022A4242FF582E4348F
:1011510000F583E4936F7042F54CE54C6410700325
:1011610012180EE54F75F022A42430F582E4340004
:10117100F583E582254CF582E43583F583E493FB21
:101181007A00AD47AC467F01121831054CE54CC3DE
:10119100942040C674102544F544054FE54FC3948F
:1011A1003250030211207402254AF54AE43549F50B
:0611B100490210857F01D8
:0111B7002215
:050EA000E4FBFAFDFC7B
:0A0EA5008F448C458D468A478B4828
:100EAF00E4F54BF54CF54DF54EF54F78507C00FDC4
:100EBF007BFF7A0679B6FE7F04120B73C3E5499464
:100ECF0000400FE54A940AE54994005005754D031B
:100EDF00804CC3E54A940AE5499400400FE54A94D3
:100EEF0064E54994005005754D028032C3E54A947C
:100EFF0064E5499400400FE54A94E8E549940350AE
:100F0F0005754D018018C3E54A94E8E549940340FF
:100F1F000DE54A9410E54994275003E4F54DAE4989
:100F2F00AF4A7C037DE8120BDF8F50AE49AF4A7C8E
:100F3F00037DE8120BDFAA04AB057D647C00AF03D1
:100F4F00AE02120BDF8F517D647C00AF03AE021235
:100F5F000BDFAA04AB057D0A7C00AF03AE02120BB8
:100F6F00DF8F527D0A7C00AF03AE02120BDF8D5371
:100F7F00D3E5469407E5456480948040037F0022C3
:100F8F00E544D3948040037F002274B02546F54694
:100F9F00E43545F545AB46FAE4FDFCFF1218318503
:100FAF004D4BE54BC394044003021056AB46AA4584
:100FBF00E4FDFCFF121831E544C4540FF54EE5442F
:100FCF00540FF54FE54E2410FBE433FAE4FF1218EB
:100FDF0031E54F12182CE4F54CE54C64087022E50E
:100FEF00462401FBE43545FAE4FDFCFF121831E518
:100FFF004E2410FBE433FAE4FF121831E54F1218B8
:10100F002C7450254BF8E675F010A4254CF582E4AE
:10101F0035F0F583E58224B6F582E5833401F58357
:10102F00E493FB7A00AD48AC477F01121831054CB1
:10103F00E54CC3941040A274082546F546E43545A7
:09104F00F545054B020FB17F01CC
:011058002275
:0217C300A90774
:1017C500D2A1E96004C2A38002C2A2EC4D24FF921B
:1017D500A000E4FFEFC39BEA6480F8748098502072
:1017E500C2A10000D2A1E9600B30A0041530800D24
:1017F5000530800930A004152F8002052F0F80D4F5
:08180500E96003D2A322D2A284
:01180D0022B8
:1016B500C3EC64809480405FED9464EC6480948016
:1016C5005055EF6028AF307E00ED9F7480F86C9820
:1016D500400BED9FFBEC9EFAE4FDFC800CC3E5306E
:1016E5009DFBE49CFA7D017C007F018027AF2F7E66
:1016F50000D3ED9F7480F86C98400BED9FFBEC9E3A
:10170500FAE4FDFC800DC3E52F9DFBE49CFA7D0109
:081715007C00E4FF1217C3225F
:101897007B647A007D017C00E4FF1217C37F01128D
:0918A70017C3752F09E4F5302286
:0B18B000EF1FAC0670011E4C70F6220A
:10177100E4FDEF90002A93FFE4FBFA000000C2B7FA
:10178100D2B4EF30E704D2B58002C2B5EF25E0FF55
:10179100C2B4000DBD10E9E4FD30B603430301D22C
:1017A100B4EB25E0FBEA33FAC2B4000DBD10EAD276
:1017B100B7EAC4F854F0C868FAEBC4540F48AE0253
:0117C100FF28
:0117C2002204
:081520008B358A3689378D38BE
:10152800E4F539F53AF539E539C395385079E4F5F4
:101538003AE53AC39538506BAB35AA36A93775F0FA
:1015480002E539A4F58285F083120C34FFAEF075FC
:10155800F002E53AA4F58285F083120C34FDACF074
:10156800D39FEC9E40398C3B8D3C75F002E539A445
:10157800F58285F083120C34FFAEF075F002E53A7F
:10158800A4F58285F083EE8FF0120C6C75F002E5FD
:1015980039A4F58285F083E53B853CF0120C6C0597
:0715A8003A808E05398080B6
:0115AF002219
:0812F5008B358A3689378D38EC
:1012FD00E4F53DF53CF53BF53AAC381209CF8F419D
:10130D008E408D3F8C3E754200853843C3E539953F
:10131D0038FFE49400FEC3E5439FEE6480F8E54298
:10132D0064809840030213D8AB3DAA3CA93BA83A70
:10133D00C000C001C002C003E54325E0FFE5423314
:10134D00AB35AA36A9378F82F583120C34FDACF07C
:10135D00E41209CAD003D002D001D0001206C18F09
:10136D003D8E3C8D3B8C3AC004C005C006C007784D
:10137D003E7F007E007D807C3F120A3AC004C0058E
:10138D00C006C007AC38E41209CFA804A905AA0607
:10139D00AB07D007D006D005D0041209587008FB52
:1013AD00FA7980783F8006E4FBFAF97840D007D0CF
:1013BD0006D005D0041208BB8F3D8E3C8D3B8C3A78
:1013CD000543E54370020542021319AF3DAE3CAD36
:0313DD003BAC3AEC
:0113E00022EA
:100CD800AE0FAF107C277D10120BDF8E498F4A7F35
:100CE80020120EA07548FF754900754A0EE4FBFAFC
:100CF800FD7F28121059AE0FAF107C277D10120B04
:100D0800DF7E037FE8CFCDCFCECCCE120BDF8E496E
:100D18008F4AE4FBFAFDFC7F30120EA5AE0FAF1030
:100D28007C277D10120BDF7E037FE8CFCDCFCECCA2
:100D3800CE120BDF7E007F64CFCDCFCECCCE120B90
:100D4800DF8E498F4A7F38120EA0E52D75F00A8490
:100D5800754900F54AE4FBFAFDFC7F68120EA5759B
:100D680048FF754900754A0EE4FBFAFD7F701210C2
:100D780059E52D75F00A84AFF07549008F4AE4FBF8
:100D8800FAFDFC7F78120EA5AE13AF147C277D10F8
:100D9800120BDF8E498F4AE4FBFA7D02FC7F281292
:100DA8000EA57548FF754900754A0EE4FBFA7D02E9
:100DB8007F30121059AE13AF147C277D10120BDF51
:100DC8007E037FE8CFCDCFCECCCE120BDF8E498FFE
:100DD8004AE4FBFA7D02FC7F38120EA5AE13AF146D
:100DE8007C277D10120BDF7E037FE8CFCDCFCECCE2
:100DF800CE120BDF7E007F64CFCDCFCECCCE120BD0
:100E0800DF8E498F4AE4FBFA7D02FC7F40120EA573
:100E1800AE15AF167C277D10120BDF8E498F4AE482
:100E2800FBFA7D04FC7F28120EA57548FF75490062
:100E3800754A0EE4FBFA7D047F30121059AE15AFE7
:100E4800167C277D10120BDF7E037FE8CFCDCFCE37
:100E5800CCCE120BDF8E498F4AE4FBFA7D04FC7F6F
:100E680038120EA5AE15AF167C277D10120BDF7E4B
:100E7800037FE8CFCDCFCECCCE120BDF7E007F64D0
:100E8800CFCDCFCECCCE120BDF8E498F4AE4FBFA02
:080E98007D04FC7F40020EA561
:08163C008F578E568D558C541A
:10164400AC08AD09EC1209CAAB57AA56A955A8545F
:101654001206BDC004C005C006C007AC0AAD0BEC41
:101664001209CAA804A905AA06AB07D007D006D058
:1016740005D0041208BBAB07AA06A905A804AF57F6
:10168400AE56AD55AC541208BB8F5B8E5A8D598C37
:1016940058E4FFFE7D487C42AB5BAA5AA959A8587E
:1016A4001206C1E4FBFA792078411208BB120A033E
:0116B4002213
:03000B000211B827
:1011B800C0E0C0F0C083C082C0D075D000C000C0FD
:0D11C80001C002C003C004C005C006C0077E
:1011D500753400758CFF758A380532E53270020565
:1011E500310533E533B40A26753300AF0D12177197
:1011F500E50D75F014A42400F582E43400F583753B
:10120500F002E52E120CCCEEF0A3EFF0050DE50D86
:10121500B40505750D00052EE52E640A600302125E
:10122500A5F52EF534E53475F014A42400F9740001
:1012350035F0FA7B017D0A121520E53475F014A40A
:101245002400F9740035F0FA7B017539097D011226
:1012550012F5E53425E025E02419F8120CC0E53433
:1012650025E025E02419F8120CA77B857AEB795146
:1012750078401207B27B007AF0797F78451208BB77
:101285007B007A40791C78461207B2E53425E025C3
:10129500E02419F8120CC00534E534C394054085E3
:1012A500E53264E87004E53164037029F531F532FF
:1012B500E50E25E025E02419F8120CA7120A03E52E
:1012C5000E25E0240FF8A60608A607050EE50EB4C0
:0512D5000503750E0089
:1012DA00D007D006D005D004D003D002D001D00068
:0B12EA00D0D0D082D083D0F0D0E03212
:10171D00758901758CFF758A06D2A9D28CD2AF124C
:10172D001897121490E4FF1218557548FF7549006B
:10173D00754A10E4FBFAFDFF1210597548FF754903
:10174D0000754A1EE4FBFA7D02FF1210597548FF21
:10175D00754900754A24E4FBFA7D04FF12105912F5
:04176D000CD880FB19
:1006BA00020A8EE86480F8E933E83360110460F0D6
:1006CA00ED33EC337009E8FCE9FDEAFEEBFF2204A6
:1006DA0060DED3EB9FEA9EE99DE8C2E78CF0C2F7A1
:1006EA0095F0400CE8CCF8E9CDF9EACEFAEBCFFB6D
:1006FA00120A5985D0F05804700320D5B3E8047063
:10070A00075002B2D5020A9892D5EC0460F7E4CCFD
:10071A00C0E0C398F8603B94186008400DD0E0FB35
:10072A00020A70E4FBFAC9FC8028E830E406E4C94E
:10073A00FBE4CAFCE830E305E4C9CACBFCE8540789
:10074A006010F8C3E913F9EA13FAEB13FBEC13FC94
:10075A00D8F130F52FC3E49CFCEF9BFFEE9AFEED37
:10076A0099FDD0E0FBEF4E4D4C701222DB03020ADA
:10077A0095EC2CFCEF33FFEE33FEED33FDED30E765
:10078A00EB020A70EF2BFFEE3AFEED39FDD0E0FBEB
:10079A0050130BBB0003020A98ED13FDEE13FEEF94
:0807AA0013FFEC13FC020A70BE
:1007B200EC4D6011E8497017ED33EC3304600DE441
:1007C200FCFFFEFD22E933E8330470F8020A8E12C0
:1007D2000A5958046009E4CC2481500628500902C1
:1007E2000A98284003020A95C0E0EB4A7044B98097
:1007F20006D0E0FB020A84EF4E701CBD8008EBFFBE
:10080200EAFEE9FD80EBE98DF0A4FEE5F002089B2B
:10081200E9CDF9EAFEEBFFEF89F0A4FCE5F0CE8921
:10082200F0A42EFFE435F0CD89F0A42DFEE435F0DE
:100832008067EF4E7005BD80D780C3EF8BF0A4AC0C
:10084200F0EE8BF0A42CFCE435F0F8EF8AF0A42C47
:10085200E5F038FCE433CB8DF0A42CFCE5F03BF85A
:10086200EE8AF0A42CFCE5F038F8E433CF89F0A44A
:100872002CFCE5F038CF3400CE89F0A42FFFE5F050
:100882003EFEE433C98DF0A42EFEE5F039CD8AF0A8
:10089200A42FFFE5F03EFEE43DFD33D0E0FB500720
:1008A2000BBB000F020A98EC2CFCEF33FFEE33FE79
:0608B200ED33FD020A70A7
:1008B800020A98EC5D046005E859047003020A8E88
:1008C800120A59580460F6EC4860F2EC7004FDFE18
:1008D800FF22C860DB2481C85009C3986002500613
:1008E800020A959850CAF582E9294B4A7005AB82ED
:1008F800020A8475F0007C1A7880C3EF9BEE9AEDAB
:1009080099400DC3EF9BFFEE9AFEED99FDE842F08A
:10091800DC23ACF0D0E0FFD0E0FED0E0FDAB8220DD
:10092800E7101BEB60BAEC2CFCEF33FFEE33FEED67
:1009380033FD020A70E803F830E705C0F075F000EF
:10094800EF2FFFEE33FEED33FD40B830E7C280AA4B
:1009580074F8CC6480CCC86480C8F582046043C352
:10096800EB9FF5F0EA9E42F0E99D42F0E89C45F0E5
:1009780060305018E5825FFFE582F42B5582FB500A
:10098800210ABA001D09B90019088016E5825BFB27
:10099800E582F42F5582FF50090EBE00050DBD00FB
:1009A800010CC3EB9FF5F0EA9E42F0E99D42F0E8A6
:0D09B8009C45F06007CC4820E701B3EC221D
:1009C50075F020800E75F010800575F0087D007EAD
:1009D500007F003392D530D503120C99EC334010CB
:1009E500EF33FFEE33FEED33FDEC33FCD5F0ED22B6
:0E09F500E5F0247EA2D513CC92E7CDCEFF22F2
:100A0300EDD2E7CD33EC3392D524814006E4FFFEEB
:100A1300FDFC22FCE4CFCECDCC24E0501174FF804A
:100A2300EDC3CC13CCCD13CDCE13CECF13CF0470E7
:070A3300F030D5DE020C9942
:100A3A0088827D80E4FEFF120CB31206C1A882E60A
:0F0A4A00CCF608E6CDF608E6CEF608E6CFF622A3
:100A5900E9D2E7C933E833F892D5EDD2E7CD33ECE3
:070A690033FC5002B2D5225C
:100A7000EC30E7100FBF000C0EBE00080DBD0004E7
:100A80000BEB6014A2D5EB13FCED92E7FD2274FF93
:100A9000FCFDFEFF22E480F8A2D574FF13FC7D80EC
:030AA000E480EF00
:030000000215B036
:0C15B000787FE4F6D8FD75815B0215F72A
:100AA300E709F608DFFA8046E709F208DFFA803E35
:100AB30088828C83E709F0A3DFFA8032E309F60822
:100AC300DFFA8078E309F208DFFA807088828C838A
:100AD300E309F0A3DFFA806489828A83E0A3F6083E
:100AE300DFFA805889828A83E0A3F208DFFA804C18
:100AF30080D280FA80C680D4806980F280338010EF
:100B030080A680EA809A80A880DA80E280CA803357
:100B130089828A83ECFAE493A3C8C582C8CCC583CF
:100B2300CCF0A3C8C582C8CCC583CCDFE9DEE7809F
:100B33000D89828A83E493A3F608DFF9ECFAA9F01E
:100B4300EDFB2289828A83ECFAE0A3C8C582C8CC74
:100B5300C583CCF0A3C8C582C8CCC583CCDFEADE8D
:100B6300E880DB89828A83E493A3F208DFF980CCEF
:100B730088F0EF60010E4E60C388F0ED2402B404E8
:100B83000050B9F582EB2402B4040050AF2323458F
:060B93008223900AF373B7
:100B9900BB010689828A83E0225002E722BBFE025A
:090BA900E32289828A83E493228D
:100BB200BB010CE58229F582E5833AF583E02250F8
:100BC20006E92582F8E622BBFE06E92582F8E22242
:0D0BD200E58229F582E5833AF583E493225C
:100BDF00BC000BBE0029EF8DF084FFADF022E4CCFA
:100BEF00F875F008EF2FFFEE33FEEC33FCEE9DECC3
:100BFF00984005FCEE9DFE0FD5F0E9E4CEFD22ED09
:100C0F00F8F5F0EE8420D21CFEADF075F008EF2F52
:100C1F00FFED33FD4007985006D5F0F222C398FD43
:050C2F000FD5F0EA22E0
:100C3400BB0110E58229F582E5833AF583E0F5F0FE
:100C4400A3E0225009E92582F886F008E622BBFEDB
:100C54000AE92582F8E2F5F008E222E5832AF58321
:080C6400E993F5F0A3E99322E6
:100C6C00F8BB0111E58229F582E5833AF583E8F0BA
:100C7C00E5F0A3F0225009E92582C8F608A6F02277
:0D0C8C00BBFE09E92582C8F2E5F008F2225E
:0E0C9900C3E49FFFE49EFEE49DFDE49CFC226C
:0C0CA700E6FC08E6FD08E6FE08E6FF2279
:0D0CB300E6FB08E6F908E6FA08E6CBF822B1
:0C0CC000ECF608EDF608EEF608EFF62260
:0C0CCC00A42582F582E5F03583F5832233
:1015BC0002171DE493A3F8E493A34003F68001F211
:1015CC0008DFF48029E493A3F85407240CC8C33330
:1015DC00C4540F4420C8834004F456800146F6DFFF
:1015EC00E4800B01020408102040809013E1E47E9B
:1015FC00019360BCA3FF543F30E509541FFEE493F4
:10160C00A360010ECF54C025E060A840B8E493A3BA
:10161C00FAE493A3F8E493A3C8C582C8CAC583CAE5
:10162C00F0A3C8C582C8CAC583CADFE9DEE780BE9D
:01148F00005C
:00000001FF
