:10000E002E004F43503A2020202000523A2020202C
:10001E0020004F435020203A200020202020202076
:10002E00005620696E203A200056206F75743A20D3
:10003E000041206F75743A20000C1C2C3C4CC2F40D
:10004E00010001103FF8010001007FFC0804068842
:10005E00228018800884FFFE014002300C18300800
:10006E00B1A8100811FC11081108FD281110150077
:10007E0019F83108D190115011201150118E5104E0
:10008E002100D0A101000100010001000100054086
:10009E000520091009081104210441000100010086
:1000AE0005000200D7D300003FF0001000200040F2
:1000BE0001800104FFFE01000100010001000100AA
:1000CE00010005000200000000000000000000001A
:1000DE00000000000000000038FCFC3800000000AA
:1000EE00000D0D000000000E1E00001E0E00000090
:1000FE0000000000000020F8F820F8F82000020FA1
:10010E000F020F0F0200387C444747CC98000306BD
:10011E00041C1C07030030300080C06030000C0649
:10012E000301000C0C0080D87CE4BCD84000070F03
:10013E000808070F080000101E0E00000000000047
:10014E000000000000000000F0F80C0400000000A9
:10015E0003070C0800000000040CF8F0000000007B
:10016E00080C0703000080A0E0C0C0E0A0800002E1
:10017E00030101030200008080E0E08080000000A7
:10018E00000303000000000000000000000000005B
:10019E00101E0E0000008080808080808000000095
:1001AE000000000000000000000000000000000041
:1001BE00000C0C00000000000080C06030000C0637
:1001CE00030100000000F8FC04C424FCF800070F33
:1001DE000908080F0700001018FCFC0000000008BA
:1001EE00080F0F080800080C84C4643C18000E0F9A
:1001FE000908080C0C00080C444444FCB800040C1C
:10020E000808080F0700C0E0B098FCFC8000000052
:10021E0000080F0F08007C7C4444C4C48400040C06
:10022E000808080F0700F0F84C4444C08000070F80
:10023E000808080F07000C0C0484C47C3C00000066
:10024E000F0F00000000B8FC444444FCB800070F38
:10025E000808080F0700387C444444FCF8000008E6
:10026E0008080C07030000000030300000000000FA
:10027E000006060000000000003030000000000004
:10028E00080E060000000080C06030180800000054
:10029E000103060C0800404040404040400002026E
:1002AE000202020202000008183060C0800000083E
:1002BE000C0603010000181C04C4E43C18000000E6
:1002CE00000D0D000000F0F808C8C8F8F000070F88
:1002DE00080B0B0B0100E0F0988C98F0E0000F0F6C
:1002EE000000000F0F0004FCFC4444FCB800080F93
:1002FE000F08080F0700F0F80C04040C1800030791
:10030E000C08080C060004FCFC040CF8F000080FA6
:10031E000F080C07030004FCFC44E40C1C00080F3F
:10032E000F08080C0E0004FCFC44E40C1C00080F23
:10033E000F0800000000F0F80C84848C980003076E
:10034E000C0808070F00FCFC404040FCFC000F0F9F
:10035E000000000F0F00000004FCFC040000000071
:10036E00080F0F08000000000004FCFC0400070F3B
:10037E0008080F07000004FCFCC0F03C0C00080F3E
:10038E000F00010F0E0004FCFC0400000000080F1B
:10039E000F08080C0E00FCFC387038FCFC000F0F28
:1003AE000000000F0F00FCFC3870E0FCFC000F0F8B
:1003BE000000000F0F00F0F80C040CF8F00003071B
:1003CE000C080C07030004FCFC44447C3800080FA6
:1003DE000F0800000000F8FC040404FCF800070FEE
:1003EE00080E3C3F270004FCFC44C4FC3800080FF8
:1003FE000F00000F0F00183C6444C49C1800060E3A
:10040E000808080F0700001C0CFCFC0C1C00000068
:10041E00080F0F080000FCFC000000FCFC00070F9A
:10042E000808080F0700FCFC000000FCFC0001039C
:10043E00060C06030100FCFC008000FCFC00030F10
:10044E000E030E0F03000C3CF0C0F03C0C000C0F22
:10045E000300030F0C00003C7CC0C07C3C0000007D
:10046E00080F0F0800001C0C84C4643C1C000E0F07
:10047E000908080C0E000000FCFC0404000000003B
:10048E000F0F080800003870E0C080000000000068
:10049E00000103070E0000000404FCFC0000000035
:1004AE0008080F0F0000080C0603060C08000000D9
:1004BE0000000000000000000000000000002020EE
:1004CE002020202020200000030704000000000050
:1004DE0000000000000000A0A0A0E0C00000070F78
:1004EE000808070F080004FCFC2060C08000080FFD
:1004FE000708080F0700C0E0202020604000070F0B
:10050E000808080C040080C06024FCFC0000070FE3
:10051E000808070F0800C0E0A0A0A0E0C000070F69
:10052E000808080C040040F8FC440C180000080FE2
:10053E000F0800000000C0E02020C0E02000276F60
:10054E0048487F3F000004FCFC4020E0C000080F3C
:10055E000F00000F0F00000020ECEC000000000068
:10056E00080F0F0800000000000020ECEC00003027
:10057E007040407F3F0004FCFC80C0602000080FEC
:10058E000F01030E0C00000004FCFC000000000034
:10059E00080F0F080000E0E060C060E0C0000F0F21
:1005AE00000F000F0F0020E0C02020E0C000000F61
:1005BE000F00000F0F00C0E0202020E0C000070F4A
:1005CE000808080F070020E0C02020E0C000407F90
:1005DE007F48080F0700C0E02020C0E02000070F72
:1005EE0008487F7F400020E0C0602060C000080FF8
:1005FE000F080000000040E0A02020604000040C26
:10060E0009090B0E04002020F8FC20200000000039
:10061E00070F080C0400E0E00000E0E00000070F08
:10062E000808070F080000E0E00000E0E00000030B
:10063E00070C0C070300E0E0000000E0E000070FED
:10064E000C070C0F07002060C080C0602000080C53
:10065E000703070C0800E0E0000000E0E000474F51
:10066E004848683F1F00606020A0E06020000C0E2C
:10067E000B09080C0C00004040F8BC0404000000FC
:10068E0000070F080800000000BCBC0000000000BE
:10069E00000F0F000000000404BCF84040000008EA
:1006AE00080F07000000080C040C080C04000000E2
:1006BE0000000000000080C0603060C080000707AE
:0A06CE000404040707000000000008
:1014940001480001490060640000000000000000F1
:1014A4000000000000000000000000000000000038
:1014B4000000000000000000000000000000000028
:1014C4000000000000000000000000000000000018
:1014D4000000000000000000000000000000000008
:1014E40000000000000000000000000000000000F8
:1014F40000000000000000000000000000001432A2
:1015040000000000000000000000000000000000D7
:10151400000000000A280000000000000000000095
:10152400024A0000014700014C0001260001270087
:1015340001461EC180C101012500022100050223CC
:02154400020C97
:1018C300E55F2401FBE433FAE4FDFCFF1218E6E5CF
:1018D300672410FBE433FAE4FF1218E6E568FB7AA9
:0318E30000E4FF1F
:1018E600A907AF05AE04C2C6D290E924FF9291C201
:1018F600C20000EF4E70048B808004EBF4F580008C
:0419060000D2C22227
:1015D700C2C1E4FF0FBF64FCC2C6D2C17BE27A007E
:1015E700E4FDFCFF1218E6E4FF0FBF64FC7BA07A62
:1015F70000E4FDFCFF1218E67BC8E4FF1218E67B47
:10160700A6E4FF1218E67BA4E4FF1218E67BA2E427
:10161700FF1218E67BF8E4FF1218E67B01E4FF12DD
:1016270018E67B81E4FF1218E67B23E4FF1218E635
:101637007B25E4FF1218E67B2FE4FF1218E6E4FF90
:101647000FBF64FC7B407A00E4FDFCFF1218E67BC9
:0C165700AFE4FF1218E6E4FF0FBF64FCD4
:011663002264
:021950008F5DA9
:10195200E4F55EE55E24B0FBE433FAE4FDFCFF123D
:1019620018E67B101218E2E4FBFF1218E6E4F55FBA
:10197200E55DFB7A00E4FDFC7F011218E6055FE5F8
:0F1982005FC3948040EA055EE55EC3940840C4ED
:011991002233
:0510FD00E4FBFA7F4056
:081102008F5E8D5F8A608B6136
:10110A00E55FD3940740037F0022E55ED3948040D5
:10111A00037F002274B0255FF55FFB7A00E4FDFCD3
:10112A00FF1218E6AB62AA63A964120BB770030236
:10113A00125EE55FFB7A00E4FDFCFF1218E6E55E4D
:10114A00C4540FF567E55E540FF5681218D2AB6206
:10115A00AA63A964120BB7C3947E5060756520AB6D
:10116A0062AA63A964120BB7656560070565E56540
:10117A00B47EECE4F566E566640870031218C3757C
:10118A00F010E565A42566F582E435F0F583E5827D
:10119A0024D4F582E58334FEF583E493FB7A00AD2B
:1011AA0061AC607F011218E60566E566C3941040DB
:1011BA00C57408255EF55E7401021252E4F569AB46
:1011CA0062AA63A964120BB7FFE56975F022A42429
:1011DA004CF582E43400F583E4936F705D9000016E
:1011EA00120BD0FFE56975F022A4244DF582E43490
:1011FA0000F583E4936F7042F566E5666410700348
:10120A001218C3E56975F022A4244EF582E434006D
:10121A00F583E5822566F582E43583F583E493FB5D
:10122A007A00AD61AC607F011218E60566E566C317
:10123A00942040C67410255EF55E0569E569C3947D
:10124A003250030211C974022564F564E43563F56A
:06125A006302112E7F016A
:01126000226B
:060F4300E4FBFAFC7F381C
:0A0F49008F5E8C5F8D608A618B6201
:100F5300E4F565F566F567F568F569786A7C00FD83
:100F63007BFF7A0679D4FE7F04120B91C3E5639469
:100F730000400FE564940AE5639400500575670328
:100F8300804CC3E564940AE5639400400FE56494E0
:100F930064E563940050057567028032C3E5649489
:100FA30064E5639400400FE56494E8E563940350BB
:100FB300057567018018C3E56494E8E5639403400D
:100FC3000DE5649410E56394275003E4F567AE637D
:100FD300AF647C037DE8120BFD8F6AAE63AF647C64
:100FE300037DE8120BFDAA04AB057D647C00AF030F
:100FF300AE02120BFD8F6B7D647C00AF03AE021259
:101003000BFDAA04AB057D0A7C00AF03AE02120BF5
:10101300FD8F6C7D0A7C00AF03AE02120BFD8D6D5C
:10102300D3E5609407E55F6480948040037F0022EA
:10103300E55ED3948040037F002274B02560F560A1
:10104300E4355FF55FAB60FAE4FDFCFF1218E6855B
:101053006765E565C3940440030210FAAB60AA5FB9
:10106300E4FDFCFF1218E6E55EC4540FF568E55E87
:10107300540FF569E5682410FBE433FAE4FF121812
:10108300E6E5691218E1E4F566E56664087022E5B1
:10109300602401FBE4355FFAE4FDFCFF1218E6E58A
:1010A300682410FBE433FAE4FF1218E6E56912182A
:1010B300E1746A2565F8E675F010A42566F582E407
:1010C30035F0F583E58224D4F582E5833401F58395
:1010D300E493FB7A00AD62AC617F011218E605660A
:1010E300E566C3941040A274082560F560E4355F9B
:0910F300F55F05650210557F014F
:0110FC0022D1
:02187800A907BE
:10187A00D2A6E96004C2C48002C2A7EC4D24FF923A
:10188A00A500E4FFEFC39BEA6480F87480985020B7
:10189A00C2A60000D2A6E9600B30A5041549800D46
:1018AA000549800930A5041548800205480F80D4EF
:0818BA00E96003D2C422D2A7A9
:0118C2002203
:10176900C3EC64809480405FED9464EC6480948061
:101779005055EF6028AF497E00ED9F7480F86C9852
:10178900400BED9FFBEC9EFAE4FDFC800CC3E549A0
:101799009DFBE49CFA7D017C007F018027AF487E98
:1017A90000D3ED9F7480F86C98400BED9FFBEC9E85
:1017B900FAE4FDFC800DC3E5489DFBE49CFA7D013C
:0817C9007C00E4FF12187822F5
:1019AE007B647A007D017C00E4FF1218787F0112BF
:0919BE001878754809E4F5492286
:0B19D700EF1FAC0670011E4C70F622E2
:10182600E4FDEF90004793FFE4FBFA000000C2B529
:10183600D2B2EF30E704D2B38002C2B3EF25E0FFA5
:10184600C2B2000DBD10E9E4FD30B403430301D27A
:10185600B2EB25E0FBEA33FAC2B2000DBD10EAD2C4
:10186600B5EAC4F854F0C868FAEBC4540F48AE029F
:01187600FF72
:01187700224E
:081547008B4E8A4F89508D5133
:10154F00E4F552F553F552E552C395515079E4F550
:10155F0053E553C39551506BAB4EAA4FA95075F03D
:10156F0002E552A4F58285F083120C52FFAEF0759E
:10157F00F002E553A4F58285F083120C52FDACF016
:10158F00D39FEC9E40398C548D5575F002E552A4D3
:10159F00F58285F083120C52FFAEF075F002E55321
:1015AF00A4F58285F083EE8FF0120C8A75F002E5B8
:1015BF0052A4F58285F083E5548555F0120C8A0507
:0715CF0053808E055280805D
:0115D60022F2
:0813A8008B4E8A4F89508D51D4
:1013B000E4F556F555F554F553AC511209ED8F5A35
:1013C0008E598D588C57755B0085515CC3E55295DD
:1013D00051FFE49400FEC3E55C9FEE6480F8E55B9A
:1013E000648098400302148BAB56AA55A954A853A5
:1013F000C000C001C002C003E55C25E0FFE55B332F
:10140000AB4EAA4FA9508F82F583120C52FDACF05F
:10141000E41209E8D003D002D001D0001206DF8F19
:10142000568E558D548C53C004C005C006C0077835
:10143000577F007E007D807C3F120A58C004C005A3
:10144000C006C007AC51E41209EDA804A905AA061C
:10145000AB07D007D006D005D0041209767008FB80
:10146000FA7980783F8006E4FBFAF97840D007D01B
:1014700006D005D0041208D98F568E558D548C5342
:10148000055CE55C7002055B0213CCAF56AE55AD52
:0314900054AC5306
:011493002236
:100CF600AE28AF297C277D10120BFD8E638F64E42E
:100D0600FBFAFDFC7F38120F497562FF75630075AB
:100D1600640EE4FBFAFD7F40121102AE28AF297C77
:100D2600277D10120BFD7E037FE8CFCDCFCECCCE34
:100D3600120BFD8E638F64E4FBFAFDFC7F48120FF5
:100D460049AE28AF297C277D10120BFD7E037FE874
:100D5600CFCDCFCECCCE120BFD7E007F64CFCDCFD4
:100D6600CECCCE120BFD8E638F64E4FBFAFDFC7FC6
:100D760050120F49AE2CAF2D7C277D10120BFD8E25
:100D8600638F647D02120F437562FF75630075649D
:100D96000E7D021210FDAE2CAF2D7C277D10120B9E
:100DA600FD7E037FE8CFCDCFCECCCE120BFD8E637A
:100DB6008F64E4FBFA7D02FC7F48120F49AE2CAF2C
:100DC6002D7C277D10120BFD7E037FE8CFCDCFCE85
:100DD600CCCE120BFD7E007F64CFCDCFCECCCE1213
:100DE6000BFD8E638F64E4FBFA7D02FC7F50120FCD
:100DF60049AE2EAF2F7C277D10120BFD8E638F64BC
:100E0600E4FBFA7D04FC7F38120F497562FF7563B7
:100E16000075640EE4FBFA7D047F40121102AE2ECB
:100E2600AF2F7C277D10120BFD7E037FE8CFCDCF41
:100E3600CECCCE120BFD8E638F64E4FBFA7D04FCF0
:100E46007F48120F49AE2EAF2F7C277D10120BFD67
:100E56007E037FE8CFCDCFCECCCE120BFD7E007FBA
:100E660064CFCDCFCECCCE120BFD8E638F64E4FB68
:100E7600FA7D04FC7F50120F493001657562FF75DB
:100E86006300756410E4FBFA7D06FF121102E54665
:100E960075F00A84756300F564E4FBFA7D06FC7F51
:100EA60020120F497562FF75630075640EE4FBFA44
:100EB6007D067F28121102E54675F00A84AFF075AB
:100EC60063008F64E4FBFA7D06FC7F30120F4975E0
:100ED60062FF756300756419E4FBFA7D067F408046
:100EE600587562FF756300756420E4FBFA7D06FFA2
:100EF600121102E54675F00A84756300F5647D06F5
:100F0600120F437562FF75630075640E7D0612103D
:100F1600FDE54675F00A84AFF07563008F64E4FB67
:100F2600FA7D06FC7F48120F497562FF75630075EE
:0D0F36006428E4FBFA7D067F5012110222B0
:0816F0008F0B8E0A8D098C0896
:1016F800AC21AD22EC1209E8AB0BAA0AA909A8088B
:101708001206DBC004C005C006C007AC23AD24EC3C
:101718001209E8A804A905AA06AB07D007D006D085
:1017280005D0041208D9AB07AA06A905A804AF0B6F
:10173800AE0AAD09AC081208D98F0F8E0E8D0D8C2C
:101748000CE4FFFE7D487C42AB0FAA0EA90DA80C45
:101758001206DFE4FBFA792078411208D9120A212F
:01176800225E
:101992007FFF20C9027F0120C8027F0220A4027FAC
:0B19A2000320A3027F0420B7027F0592
:0119AD002217
:1019C700758901758CFF758A06D2A9D28CD2AF2290
:10190A0075BB701219C71219AE1215D7E4FF121956
:10191A00507562FF75630075642FE4FBFAFDFF12D0
:10192A0011027562FF756300756437E4FBFA7D0284
:10193A00FF1211027562FF75630075643FE4FBFADA
:06194A007D04FF02110202
:1017D100E4F55DFDE55D704CD2A2120CF612199292
:1017E100AD07EDF460EEED24FD6015146017146093
:1017F1001F2404701FE546C3942850180546801421
:1018010075461E800FE546D39405400815468004B1
:10181100B201D2B67F887E131219D7121992EFF452
:0418210060B280F73A
:0118250022A0
:03000B000212617D
:10126100C0E0C0F0C083C082C0D075D000C000C053
:0D12710001C002C003C004C005C006C007D4
:10127E00754D00758CFF758A38054BE54B70020570
:10128E004A054CE54CB40A26754C00AF26121826BA
:10129E00E52675F014A42400F582E43400F5837578
:1012AE00F002E547120CEAEEF0A3EFF00526E52674
:1012BE00B405057526000547E547640A6003021369
:1012CE004DF547F54DE54D75F014A42400F9740065
:1012DE0035F0FA7B017D0A121547E54D75F014A421
:1012EE002400F9740035F0FA7B017552097D011264
:1012FE0013A8E54D25E025E02432F8120CDEE54D6D
:10130E0025E025E02432F8120CC5E4FBFA7940788A
:10131E00401207D07B007AF0797F78451208D97B8E
:10132E00007A40791C78461207D0E54D25E025E07D
:10133E002432F8120CDE054DE54DC394054086E5CA
:10134E004B64887004E54A64137034B200200104C3
:10135E00A20092B6754A00754B00E52725E025E000
:10136E002432F8120CC5120A21E52725E02428F8AC
:0F137E00A60608A6070527E527B405037527006F
:10138D00D007D006D005D004D003D002D001D000B4
:0B139D00D0D0D082D083D0F0D0E0325E
:0A19E20012190AD2A21217D180FBDD
:1006D800020AACE86480F8E933E83360110460F09A
:1006E800ED33EC337009E8FCE9FDEAFEEBFF220488
:1006F80060DED3EB9FEA9EE99DE8C2E78CF0C2F783
:1007080095F0400CE8CCF8E9CDF9EACEFAEBCFFB4E
:10071800120A7785D0F05804700320D5B3E8047026
:10072800075002B2D5020AB692D5EC0460F7E4CCC1
:10073800C0E0C398F8603B94186008400DD0E0FB17
:10074800020A8EE4FBFAC9FC8028E830E406E4C912
:10075800FBE4CAFCE830E305E4C9CACBFCE854076B
:100768006010F8C3E913F9EA13FAEB13FBEC13FC76
:10077800D8F130F52FC3E49CFCEF9BFFEE9AFEED19
:1007880099FDD0E0FBEF4E4D4C701222DB03020ABC
:10079800B3EC2CFCEF33FFEE33FEED33FDED30E729
:1007A800EB020A8EEF2BFFEE3AFEED39FDD0E0FBAF
:1007B80050130BBB0003020AB6ED13FDEE13FEEF58
:0807C80013FFEC13FC020A8E82
:1007D000EC4D6011E8497017ED33EC3304600DE423
:1007E000FCFFFEFD22E933E8330470F8020AAC1284
:1007F0000A7758046009E4CC248150062850090285
:100800000AB6284003020AB3C0E0EB4A7044B9803C
:1008100006D0E0FB020AA2EF4E701CBD8008EBFF81
:10082000EAFEE9FD80EBE98DF0A4FEE5F00208B9EF
:10083000E9CDF9EAFEEBFFEF89F0A4FCE5F0CE8903
:10084000F0A42EFFE435F0CD89F0A42DFEE435F0C0
:100850008067EF4E7005BD80D780C3EF8BF0A4ACEE
:10086000F0EE8BF0A42CFCE435F0F8EF8AF0A42C29
:10087000E5F038FCE433CB8DF0A42CFCE5F03BF83C
:10088000EE8AF0A42CFCE5F038F8E433CF89F0A42C
:100890002CFCE5F038CF3400CE89F0A42FFFE5F032
:1008A0003EFEE433C98DF0A42EFEE5F039CD8AF08A
:1008B000A42FFFE5F03EFEE43DFD33D0E0FB500702
:1008C0000BBB000F020AB6EC2CFCEF33FFEE33FE3D
:0608D000ED33FD020A8E6B
:1008D600020AB6EC5D046005E859047003020AAC2E
:1008E600120A77580460F6EC4860F2EC7004FDFEDC
:1008F600FF22C860DB2481C85009C39860025006F5
:10090600020AB39850CAF582E9294B4A7005AB82B0
:10091600020AA275F0007C1A7880C3EF9BEE9AED6E
:1009260099400DC3EF9BFFEE9AFEED99FDE842F06C
:10093600DC23ACF0D0E0FFD0E0FED0E0FDAB8220BF
:10094600E7101BEB60BAEC2CFCEF33FFEE33FEED49
:1009560033FD020A8EE803F830E705C0F075F000B3
:10096600EF2FFFEE33FEED33FD40B830E7C280AA2D
:1009760074F8CC6480CCC86480C8F582046043C334
:10098600EB9FF5F0EA9E42F0E99D42F0E89C45F0C7
:1009960060305018E5825FFFE582F42B5582FB50EC
:1009A600210ABA001D09B90019088016E5825BFB09
:1009B600E582F42F5582FF50090EBE00050DBD00DD
:1009C600010CC3EB9FF5F0EA9E42F0E99D42F0E888
:0D09D6009C45F06007CC4820E701B3EC22FF
:1009E30075F020800E75F010800575F0087D007E8F
:1009F300007F003392D530D503120CB7EC3340108F
:100A0300EF33FFEE33FEED33FDEC33FCD5F0ED2297
:0E0A1300E5F0247EA2D513CC92E7CDCEFF22D3
:100A2100EDD2E7CD33EC3392D524814006E4FFFECD
:100A3100FDFC22FCE4CFCECDCC24E0501174FF802C
:100A4100EDC3CC13CCCD13CDCE13CECF13CF0470C9
:070A5100F030D5DE020CB706
:100A580088827D80E4FEFF120CD11206DFA882E6B0
:0F0A6800CCF608E6CDF608E6CEF608E6CFF62285
:100A7700E9D2E7C933E833F892D5EDD2E7CD33ECC5
:070A870033FC5002B2D5223E
:100A8E00EC30E7100FBF000C0EBE00080DBD0004C9
:100A9E000BEB6014A2D5EB13FCED92E7FD2274FF75
:100AAE00FCFDFEFF22E480F8A2D574FF13FC7D80CE
:030ABE00E480EFE2
:0300000002166481
:0C166400787FE4F6D8FD75816D0216ABAE
:100AC100E709F608DFFA8046E709F208DFFA803E17
:100AD10088828C83E709F0A3DFFA8032E309F60804
:100AE100DFFA8078E309F208DFFA807088828C836C
:100AF100E309F0A3DFFA806489828A83E0A3F60820
:100B0100DFFA805889828A83E0A3F208DFFA804CF9
:100B110080D280FA80C680D4806980F280338010D0
:100B210080A680EA809A80A880DA80E280CA803339
:100B310089828A83ECFAE493A3C8C582C8CCC583B1
:100B4100CCF0A3C8C582C8CCC583CCDFE9DEE78081
:100B51000D89828A83E493A3F608DFF9ECFAA9F000
:100B6100EDFB2289828A83ECFAE0A3C8C582C8CC56
:100B7100C583CCF0A3C8C582C8CCC583CCDFEADE6F
:100B8100E880DB89828A83E493A3F208DFF980CCD1
:100B910088F0EF60010E4E60C388F0ED2402B404CA
:100BA1000050B9F582EB2402B4040050AF23234571
:060BB1008223900B11737A
:100BB700BB010689828A83E0225002E722BBFE023C
:090BC700E32289828A83E493226F
:100BD000BB010CE58229F582E5833AF583E02250DA
:100BE00006E92582F8E622BBFE06E92582F8E22224
:0D0BF000E58229F582E5833AF583E493223E
:100BFD00BC000BBE0029EF8DF084FFADF022E4CCDC
:100C0D00F875F008EF2FFFEE33FEEC33FCEE9DECA4
:100C1D00984005FCEE9DFE0FD5F0E9E4CEFD22EDEA
:100C2D00F8F5F0EE8420D21CFEADF075F008EF2F34
:100C3D00FFED33FD4007985006D5F0F222C398FD25
:050C4D000FD5F0EA22C2
:100C5200BB0110E58229F582E5833AF583E0F5F0E0
:100C6200A3E0225009E92582F886F008E622BBFEBD
:100C72000AE92582F8E2F5F008E222E5832AF58303
:080C8200E993F5F0A3E99322C8
:100C8A00F8BB0111E58229F582E5833AF583E8F09C
:100C9A00E5F0A3F0225009E92582C8F608A6F02259
:0D0CAA00BBFE09E92582C8F2E5F008F22240
:0E0CB700C3E49FFFE49EFEE49DFDE49CFC224E
:0C0CC500E6FC08E6FD08E6FE08E6FF225B
:0D0CD100E6FB08E6F908E6FA08E6CBF82293
:0C0CDE00ECF608EDF608EEF608EFF62242
:0C0CEA00A42582F582E5F03583F5832215
:101670000219E2E493A3F8E493A34003F68001F295
:1016800008DFF48029E493A3F85407240CC8C3337B
:10169000C4540F4420C8834004F456800146F6DF4A
:1016A000E4800B0102040810204080901494E47E32
:1016B000019360BCA3FF543F30E509541FFEE4933F
:1016C000A360010ECF54C025E060A840B8E493A306
:1016D000FAE493A3F8E493A3C8C582C8CAC583CA31
:1016E000F0A3C8C582C8CAC583CADFE9DEE780BEE9
:0115460000A4
:00000001FF
