:10000E002E0057656C636F6D6520746F2000207530
:10001E0073696E67207468652041442F432E20005B
:10002E000C1C2C3CC2F4010001103FF80100010031
:10003E007FFC08040688228018800884FFFE014099
:10004E0002300C183008B1A8100811FC1108110864
:10005E00FD281110150019F83108D19011501120FA
:10006E001150118E51042100D0A101000100010098
:10007E0001000100054005200910090811042104A2
:10008E0041000100010005000200D7D300003FF03F
:10009E0000100020004001800104FFFE010001005D
:1000AE000100010001000100050002000000000037
:1000BE00000000000000000000000000000038FCFE
:1000CE00FC3800000000000D0D000000000E1E00A8
:1000DE00001E0E00000000000000000020F8F820B6
:1000EE00F8F82000020F0F020F0F0200387C444771
:1000FE0047CC98000306041C1C0703003030008018
:10010E00C06030000C060301000C0C0080D87CE4AB
:10011E00BCD84000070F0808070F080000101E0E7D
:10012E000000000000000000000000000000F0F8D9
:10013E000C040000000003070C0800000000040C73
:10014E00F8F000000000080C0703000080A0E0C0DB
:10015E00C0E0A0800002030101030200008080E0E5
:10016E00E08080000000000303000000000000009B
:10017E00000000000000101E0E0000008080808035
:10018E0080808000000000000000000000000000E1
:10019E00000000000000000C0C00000000000080B9
:1001AE00C06030000C06030100000000F8FC04C41F
:1001BE0024FCF800070F0908080F0700001018FCB0
:1001CE00FC0000000008080F0F080800080C84C48B
:1001DE00643C18000E0F0908080C0C00080C44446F
:1001EE0044FCB800040C0808080F0700C0E0B098E3
:1001FE00FCFC8000000000080F0F08007C7C4444CB
:10020E00C4C48400040C0808080F0700F0F84C441E
:10021E0044C08000070F0808080F07000C0C048468
:10022E00C47C3C0000000F0F00000000B8FC4444EA
:10023E0044FCB800070F0808080F0700387C444438
:10024E0044FCF800000808080C070300000000300A
:10025E003000000000000006060000000000003024
:10026E00300000000000080E060000000080C06094
:10027E003018080000000103060C08004040404002
:10028E004040400002020202020202000008183042
:10029E0060C0800000080C0603010000181C04C496
:1002AE00E43C18000000000D0D000000F0F808C836
:1002BE00C8F8F000070F080B0B0B0100E0F0988C4C
:1002CE0098F0E0000F0F0000000F0F0004FCFC443C
:1002DE0044FCB800080F0F08080F0700F0F80C04D4
:1002EE00040C180003070C08080C060004FCFC04A0
:1002FE000CF8F000080F0F080C07030004FCFC4478
:10030E00E40C1C00080F0F08080C0E0004FCFC4443
:10031E00E40C1C00080F0F0800000000F0F80C841D
:10032E00848C980003070C0808070F00FCFC404063
:10033E0040FCFC000F0F0000000F0F00000004FC3B
:10034E00FC0400000000080F0F080000000000046D
:10035E00FCFC0400070F08080F07000004FCFCC09B
:10036E00F03C0C00080F0F00010F0E0004FCFC0403
:10037E0000000000080F0F08080C0E00FCFC38707F
:10038E0038FCFC000F0F0000000F0F00FCFC387053
:10039E00E0FCFC000F0F0000000F0F00F0F80C0443
:1003AE000CF8F00003070C080C07030004FCFC44D7
:1003BE00447C3800080F0F0800000000F8FC04040D
:1003CE0004FCF800070F080E3C3F270004FCFC4419
:1003DE00C4FC3800080F0F00000F0F00183C6444D7
:1003EE00C49C1800060E0808080F0700001C0CFC21
:1003FE00FC0C1C000000080F0F080000FCFC0000A5
:10040E0000FCFC00070F0808080F0700FCFC0000AA
:10041E0000FCFC000103060C06030100FCFC00803E
:10042E0000FCFC00030F0E030E0F03000C3CF0C08B
:10043E00F03C0C000C0F0300030F0C00003C7CC0C2
:10044E00C07C3C000000080F0F0800001C0C84C488
:10045E00643C1C000E0F0908080C0E000000FCFC8A
:10046E000404000000000F0F080800003870E0C000
:10047E00800000000000000103070E0000000404CD
:10048E00FCFC0000000008080F0F0000080C06031B
:10049E00060C080000000000000000000000000034
:1004AE000000000020202020202020200000030734
:1004BE0004000000000000000000000000A0A0A04A
:1004CE00E0C00000070F0808070F080004FCFC201E
:1004DE0060C08000080F0708080F0700C0E020204A
:1004EE0020604000070F0808080C040080C060243C
:1004FE00FCFC0000070F0808070F0800C0E0A0A0D2
:10050E00A0E0C000070F0808080C040040F8FC44E7
:10051E000C180000080F0F0800000000C0E020209B
:10052E00C0E02000276F48487F3F000004FCFC40DD
:10053E0020E0C000080F0F00000F0F00000020EC9D
:10054E00EC0000000000080F0F0800000000000083
:10055E0020ECEC0000307040407F3F0004FCFC803B
:10056E00C0602000080F0F01030E0C00000004FCF9
:10057E00FC0000000000080F0F080000E0E060C063
:10058E0060E0C0000F0F000F000F0F0020E0C02032
:10059E0020E0C000000F0F00000F0F00C0E0202071
:1005AE0020E0C000070F0808080F070020E0C02059
:1005BE0020E0C000407F7F48080F0700C0E02020E9
:1005CE00C0E02000070F08487F7F400020E0C06099
:1005DE002060C000080F0F080000000040E0A020BF
:1005EE0020604000040C09090B0E04002020F8FCCA
:1005FE00202000000000070F080C0400E0E00000BF
:10060E00E0E00000070F0808070F080000E0E00018
:10061E0000E0E0000003070C0C070300E0E0000020
:10062E0000E0E000070F0C070C0F07002060C080F1
:10063E00C0602000080C0703070C0800E0E0000073
:10064E0000E0E000474F4848683F1F00606020A070
:10065E00E06020000C0E0B09080C0C00004040F866
:10066E00BC040400000000070F080800000000BCD6
:10067E00BC0000000000000F0F000000000404BCCE
:10068E00F84040000008080F07000000080C040C9A
:10069E00080C0400000000000000000080C0603064
:1006AE0060C0800007070404040707000000000074
:1016330001280001290060500000000000000000A4
:101643000000000000000000000000000000000097
:101653000000000000000000000000000000000087
:101663000000000000000000000000000000000077
:101673000000000000000000000000000000000067
:101683000000000000000000000010170000000030
:10169300000000000000000000000000080F000030
:1016A300000000000000022A0000012700012C00B6
:1016B300010D00010E00010C0002080005020A02E0
:0116C3000C1A
:101A3700E53E2401FBE433FAE4FDFCFF121A5AE504
:101A4700462410FBE433FAE4FF121A5AE547FB7AFF
:031A570000E4FFA9
:101A5A00A907AF05AE04C2A6D2A5E924FF92A4C283
:101A6A00900000EF4E70048B808004EBF4F5800048
:041A7A0000D29022E4
:10175500C2A7E4FF0FBF64FCC2A6D2A77BE27A0052
:10176500E4FDFCFF121A5AE4FF0FBF64FC7BA07A6C
:1017750000E4FDFCFF121A5A7BC8E4FF121A5A7BDB
:10178500A6E4FF121A5A7BA4E4FF121A5A7BA2E4BC
:10179500FF121A5A7BF8E4FF121A5A7B01E4FF1272
:1017A5001A5A7B81E4FF121A5A7B23E4FF121A5A54
:1017B5007B25E4FF121A5A7B2FE4FF121A5AE4FF25
:1017C5000FBF64FC7B407A00E4FDFCFF121A5A7BD4
:0C17D500AFE4FF121A5AE4FF0FBF64FCDF
:0117E10022E5
:021A7E008F3D9A
:101A8000E4F53EE53E24B0FBE433FAE4FDFCFF124E
:101A90001A5A7B10121A56E4FBFF121A5AE4F53F49
:101AA000E53DFB7A00E4FDFC7F01121A5A053FE593
:0F1AB0003FC3948040EA053EE53EC3940840C41E
:011ABF002204
:0512A600E4FBFA7D04E9
:0812AB008F3D8D3E8A3F8B4010
:1012B300E53ED3940740037F0022E53DD39480406D
:1012C300037F002274B0253EF53EFB7A00E4FDFC6B
:1012D300FF121A5AAB41AA42A943120B9D70030293
:1012E3001407E53EFB7A00E4FDFCFF121A5AE53DC4
:1012F300C4540FF546E53D540FF547121A46AB416A
:10130300AA42A943120B9DC3947E5060754420AB3F
:1013130041AA42A943120B9D654460070544E54475
:10132300B47EECE4F545E54564087003121A37759D
:10133300F010E544A42545F582E435F0F583E58214
:1013430024BAF582E58334FEF583E493FB7A00AD9A
:1013530040AC3F7F01121A5A0545E545C39410403E
:10136300C57408253DF53D74010213FBE4F548AB54
:1013730041AA42A943120B9DFFE54875F022A4241C
:1013830032F582E43400F583E4936F705D900001DD
:10139300120BB6FFE54875F022A42433F582E4343A
:1013A30000F583E4936F7042F545E54564107003DF
:1013B300121A37E54875F022A42434F582E4340088
:1013C300F583E5822545F582E43583F583E493FBD4
:1013D3007A00AD40AC3F7F01121A5A0545E545C37B
:1013E300942040C67410253DF53D0548E548C39457
:1013F30032500302137274022543F543E43542F578
:06140300420212D77F0136
:0114090022C0
:0610EC00E4FBFA7D04FCA8
:0A10F2008F3D8C3E8D3F8A408B41FC
:1010FC00E4F544F545F546F547F54878497C00FD9F
:10110C007BFF7A0679BAFE7F04120B77C3E5429413
:10111C0000400FE543940AE54294005005754603E0
:10112C00804CC3E543940AE5429400400FE5439498
:10113C0064E542940050057546028032C3E5439441
:10114C0064E5429400400FE54394E8E54294035073
:10115C00057546018018C3E54394E8E542940340C5
:10116C000DE5439410E54294275003E4F546AE4256
:10117C00AF437C037DE8120BE38F49AE42AF437C57
:10118C00037DE8120BE3AA04AB057D647C00AF037E
:10119C00AE02120BE38F4A7D647C00AF03AE0212E9
:1011AC000BE3AA04AB057D0A7C00AF03AE02120B65
:1011BC00E38F4B7D0A7C00AF03AE02120BE38D4C28
:1011CC00D3E53F9407E53E6480948040037F002282
:1011DC00E53DD3948040037F002274B0253FF53F5A
:1011EC00E4353EF53EAB3FFAE4FDFCFF121A5A859E
:1011FC004644E544C3940440030212A3AB3FAA3E09
:10120C00E4FDFCFF121A5AE53DC4540FF547E53DC9
:10121C00540FF548E5472410FBE433FAE4FF121AA7
:10122C005AE548121A55E4F545E54564087022E57F
:10123C003F2401FBE4353EFAE4FDFCFF121A5AE5AB
:10124C00472410FBE433FAE4FF121A5AE548121A49
:10125C005574492544F8E675F010A42545F582E44B
:10126C0035F0F583E58224BAF582E5833401F58304
:10127C00E493FB7A00AD41AC407F01121A5A05454C
:10128C00E545C3941040A27408253FF53FE4353E74
:09129C00F53E05440211FE7F013C
:0112A5002226
:0219A100A90794
:1019A300D2A1E96004C2A38002C2A2EC4D24FF923B
:1019B300A000E4FFEFC39BEA6480F8748098502092
:1019C300C2A10000D2A1E9600B30A0041529800D4B
:1019D3000529800930A0041528800205280F80D42A
:0819E300E96003D2A322D2A2A5
:0119EB0022D9
:1018E700C3EC64809480405FED9464EC64809480E2
:1018F7005055EF6028AF297E00ED9F7480F86C98F3
:10190700400BED9FFBEC9EFAE4FDFC800CC3E52940
:101917009DFBE49CFA7D017C007F018027AF287E38
:1019270000D3ED9F7480F86C98400BED9FFBEC9E05
:10193700FAE4FDFC800DC3E5289DFBE49CFA7D01DC
:081947007C00E4FF1219A1224B
:101AC0007B647A007D017C00E4FF1219A17F011282
:091AD00019A1752809E4F5292289
:0B1AD900EF1FAC0670011E4C70F622DF
:10194F00E4FDEF90002E93FFE4FBFA000000C2B716
:10195F00D2B4EF30E704D2B58002C2B5EF25E0FF75
:10196F00C2B4000DBD10E9E4FD30B603430301D24C
:10197F00B4EB25E0FBEA33FAC2B4000DBD10EAD296
:10198F00B7EAC4F854F0C868FAEBC4540F48AE0273
:01199F00FF48
:0119A0002224
:0816C5008B2E8A2F89308D3134
:1016CD00E4F532F533F532E532C395315079E4F571
:1016DD0033E533C39531506BAB2EAA2FA93075F07E
:1016ED0002E532A4F58285F083120C38FFAEF07559
:1016FD00F002E533A4F58285F083120C38FDACF0D1
:10170D00D39FEC9E40398C348D3575F002E532A4B3
:10171D00F58285F083120C38FFAEF075F002E533DB
:10172D00A4F58285F083EE8FF0120C7075F002E552
:10173D0032A4F58285F083E5348535F0120C700501
:07174D0033808E053280801D
:011754002272
:081547008B2E8A2F89308D31B3
:10154F00E4F536F535F534F533AC311209D38F3A6E
:10155F008E398D388C37753B0085313CC3E532951C
:10156F0031FFE49400FEC3E53C9FEE6480F8E53B59
:10157F00648098400302162AAB36AA35A934A833E3
:10158F00C000C001C002C003E53C25E0FFE53B33CE
:10159F00AB2EAA2FA9308F82F583120C38FDACF039
:1015AF00E41209CED003D002D001D0001206C58FAD
:1015BF00368E358D348C33C004C005C006C0077815
:1015CF00377F007E007D807C3F120A3EC004C0053D
:1015DF00C006C007AC31E41209D3A804A905AA06B6
:1015EF00AB07D007D006D005D00412095C7008FBFA
:1015FF00FA7980783F8006E4FBFAF97840D007D07B
:10160F0006D005D0041208BF8F368E358D348C333B
:10161F00053CE53C7002053B02156BAF36AE35ADB0
:03162F0034AC33A5
:011632002295
:100CDC00AE0FAF107C277D10120BE38E428F43E4D6
:100CEC00FBFA7D04FCFF1210F27541FF7542007592
:100CFC00430E7F081212A6AE0FAF107C277D101288
:100D0C000BE37E037FE8CFCDCFCECCCE120BE38EA0
:100D1C00428F437F101210ECAE0FAF107C277D106A
:100D2C00120BE37E037FE8CFCDCFCECCCE120BE3FC
:100D3C007E007F64CFCDCFCECCCE120BE38E428F14
:100D4C00437F181210ECAE0FAF107C277D10120BE6
:100D5C00E37E037FE8CFCDCFCECCCE120BE37E006B
:100D6C007F64CFCDCFCECCCE120BE37E007F0ACFEB
:100D7C00CDCFCECCCE120BE38E428F43E4FBFA7D6B
:100D8C0004FC7F201210F2AE0FAF107C277D1012E6
:100D9C000BE37E037FE8CFCDCFCECCCE120BE37E20
:100DAC00007F64CFCDCFCECCCE120BE37E007F0A7A
:100DBC00CFCDCFCECCCE120BE38C428D43E4FBFADD
:100DCC007D04FC7F281210F2AE11AF127C277D102F
:100DDC00120BE38E428F43E4FBFA7D04FC7F50122E
:100DEC0010F27541FF75420075430E7F581212A622
:100DFC00AE11AF127C277D10120BE37E037FE8CF80
:100E0C00CDCFCECCCE120BE38E428F43E4FBFA7DDA
:100E1C0004FC7F601210F2AE11AF127C277D101211
:100E2C000BE37E037FE8CFCDCFCECCCE120BE37E8F
:100E3C00007F64CFCDCFCECCCE120BE38E428F434E
:100E4C00E4FBFA7D04FC7F681210F2AE11AF127C49
:100E5C00277D10120BE37E037FE8CFCDCFCECCCE17
:100E6C00120BE37E007F64CFCDCFCECCCE120BE342
:100E7C007E007F0ACFCDCFCECCCE120BE38E428F2D
:100E8C0043E4FBFA7D04FC7F701210F2AE11AF123A
:100E9C007C277D10120BE37E037FE8CFCDCFCECC29
:100EAC00CE120BE37E007F64CFCDCFCECCCE120B17
:100EBC00E37E007F0ACFCDCFCECCCE120BE38C429B
:100ECC008D43E4FBFA7D04FC7F781210F2AE13AF75
:100EDC00147C277D10120BE38E428F43E4FBFA7DCA
:100EEC0006FCFF1210F27541FF75420075430EE4CB
:100EFC00FBFA7D067F081212ABAE13AF147C277D74
:100F0C0010120BE37E037FE8CFCDCFCECCCE120BED
:100F1C00E38E428F43E4FBFA7D06FC7F101210F245
:100F2C00AE13AF147C277D10120BE37E037FE8CF4A
:100F3C00CDCFCECCCE120BE37E007F64CFCDCFCE07
:100F4C00CCCE120BE38E428F43E4FBFA7D06FC7F82
:100F5C00181210F2AE13AF147C277D10120BE37E27
:100F6C00037FE8CFCDCFCECCCE120BE37E007F64D7
:100F7C00CFCDCFCECCCE120BE37E007F0ACFCDCF20
:100F8C00CECCCE120BE38E428F43E4FBFA7D06FCF3
:100F9C007F201210F2AE13AF147C277D10120BE3DE
:100FAC007E037FE8CFCDCFCECCCE120BE37E007F7D
:100FBC0064CFCDCFCECCCE120BE37E007F0ACFCD4B
:100FCC00CFCECCCE120BE38C428D43E4FBFA7D06E4
:100FDC00FC7F281210F2AE15AF167C277D10120B79
:100FEC00E38E428F43E4FBFA7D06FC7F501210F235
:100FFC007541FF75420075430EE4FBFA7D067F5880
:10100C001212ABAE15AF167C277D10120BE37E03CC
:10101C007FE8CFCDCFCECCCE120BE38E428F43E404
:10102C00FBFA7D06FC7F601210F2AE15AF167C2722
:10103C007D10120BE37E037FE8CFCDCFCECCCE124A
:10104C000BE37E007F64CFCDCFCECCCE120BE38EE4
:10105C00428F43E4FBFA7D06FC7F681210F2AE155A
:10106C00AF167C277D10120BE37E037FE8CFCDCF2C
:10107C00CECCCE120BE37E007F64CFCDCFCECCCEC8
:10108C00120BE37E007F0ACFCDCFCECCCE120BE37A
:10109C008E428F43E4FBFA7D06FC7F701210F2AE99
:1010AC0015AF167C277D10120BE37E037FE8CFCDA6
:1010BC00CFCECCCE120BE37E007F64CFCDCFCECC87
:1010CC00CE120BE37E007F0ACFCDCFCECCCE120B4F
:1010DC00E38C428D43E4FBFA7D06FC7F780210F230
:08186E008F508E4F8D4E8C4D02
:10187600AC08AD09EC1209CEAB50AA4FA94EA84D43
:101886001206C1C004C005C006C007AC0AAD0BEC09
:101896001209CEA804A905AA06AB07D007D006D020
:1018A60005D0041208BFAB07AA06A905A804AF50C5
:1018B600AE4FAD4EAC4D1208BF8F548E538D528C29
:1018C60051E4FFFE7D487C42AB54AA53A952A8516D
:1018D6001206C5E4FBFA792078411208BF120A07FE
:0118E60022DF
:03000B0002140AD2
:10140A00C0E0C0F0C083C082C0D075D000C000C0A8
:0D141A0001C002C003C004C005C006C00729
:10142700752D00758CFF758A06052BE52B70020557
:101437002A052CE52CB40A26752C00AF0D12194F7E
:10144700E50D75F014A42400F582E43400F58375E6
:10145700F002E527120CD0EEF0A3EFF0050DE50D35
:10146700B40405750D000527E527640A6003021417
:10147700F7F527F52DE52D75F014A42400F9740070
:1014870035F0FA7B017D0A1216C5E52D75F014A417
:101497002400F9740035F0FA7B017532097D0112D9
:1014A7001547E52D25E025E02417F8120CC4E52D96
:1014B70025E025E02417F8120CAB7B857AEB7951F0
:1014C70078401207B67B007AF0797F78451208BF1B
:1014D7007B007A40791C78461207B6E52D25E02572
:1014E700E02417F8120CC4052DE52DC3940440859C
:1014F700E52B64E87004E52A64037029F52AF52BC7
:10150700E50E25E025E02417F8120CAB120A07E5D3
:101517000E25E0240FF8A60608A607050EE50EB46B
:051527000403750E0035
:10152C00D007D006D005D004D003D002D001D00013
:0B153C00D0D0D082D083D0F0D0E032BD
:1019EC00758901758CFF758A06D2A9D28CD2AF127B
:1019FC001AC07D3C7C007F011218E7121755E4FFDA
:101A0C00121A7E7541FF754200754310E4FBFAFD16
:101A1C00FF1212AB7541FF75420075431CE4FBFAD3
:0B1A2C007D02FF1212AB120CDC80FBED
:1006BE00020A92E86480F8E933E83360110460F0CE
:1006CE00ED33EC337009E8FCE9FDEAFEEBFF2204A2
:1006DE0060DED3EB9FEA9EE99DE8C2E78CF0C2F79D
:1006EE0095F0400CE8CCF8E9CDF9EACEFAEBCFFB69
:1006FE00120A5D85D0F05804700320D5B3E804705B
:10070E00075002B2D5020A9C92D5EC0460F7E4CCF5
:10071E00C0E0C398F8603B94186008400DD0E0FB31
:10072E00020A74E4FBFAC9FC8028E830E406E4C946
:10073E00FBE4CAFCE830E305E4C9CACBFCE8540785
:10074E006010F8C3E913F9EA13FAEB13FBEC13FC90
:10075E00D8F130F52FC3E49CFCEF9BFFEE9AFEED33
:10076E0099FDD0E0FBEF4E4D4C701222DB03020AD6
:10077E0099EC2CFCEF33FFEE33FEED33FDED30E75D
:10078E00EB020A74EF2BFFEE3AFEED39FDD0E0FBE3
:10079E0050130BBB0003020A9CED13FDEE13FEEF8C
:0807AE0013FFEC13FC020A74B6
:1007B600EC4D6011E8497017ED33EC3304600DE43D
:1007C600FCFFFEFD22E933E8330470F8020A9212B8
:1007D6000A5D58046009E4CC2481500628500902B9
:1007E6000A9C284003020A99C0E0EB4A7044B9808B
:1007F60006D0E0FB020A88EF4E701CBD8008EBFFB6
:10080600EAFEE9FD80EBE98DF0A4FEE5F002089F23
:10081600E9CDF9EAFEEBFFEF89F0A4FCE5F0CE891D
:10082600F0A42EFFE435F0CD89F0A42DFEE435F0DA
:100836008067EF4E7005BD80D780C3EF8BF0A4AC08
:10084600F0EE8BF0A42CFCE435F0F8EF8AF0A42C43
:10085600E5F038FCE433CB8DF0A42CFCE5F03BF856
:10086600EE8AF0A42CFCE5F038F8E433CF89F0A446
:100876002CFCE5F038CF3400CE89F0A42FFFE5F04C
:100886003EFEE433C98DF0A42EFEE5F039CD8AF0A4
:10089600A42FFFE5F03EFEE43DFD33D0E0FB50071C
:1008A6000BBB000F020A9CEC2CFCEF33FFEE33FE71
:0608B600ED33FD020A749F
:1008BC00020A9CEC5D046005E859047003020A927C
:1008CC00120A5D580460F6EC4860F2EC7004FDFE10
:1008DC00FF22C860DB2481C85009C398600250060F
:1008EC00020A999850CAF582E9294B4A7005AB82E5
:1008FC00020A8875F0007C1A7880C3EF9BEE9AEDA3
:10090C0099400DC3EF9BFFEE9AFEED99FDE842F086
:10091C00DC23ACF0D0E0FFD0E0FED0E0FDAB8220D9
:10092C00E7101BEB60BAEC2CFCEF33FFEE33FEED63
:10093C0033FD020A74E803F830E705C0F075F000E7
:10094C00EF2FFFEE33FEED33FD40B830E7C280AA47
:10095C0074F8CC6480CCC86480C8F582046043C34E
:10096C00EB9FF5F0EA9E42F0E99D42F0E89C45F0E1
:10097C0060305018E5825FFFE582F42B5582FB5006
:10098C00210ABA001D09B90019088016E5825BFB23
:10099C00E582F42F5582FF50090EBE00050DBD00F7
:1009AC00010CC3EB9FF5F0EA9E42F0E99D42F0E8A2
:0D09BC009C45F06007CC4820E701B3EC2219
:1009C90075F020800E75F010800575F0087D007EA9
:1009D900007F003392D530D503120C9DEC334010C3
:1009E900EF33FFEE33FEED33FDEC33FCD5F0ED22B2
:0E09F900E5F0247EA2D513CC92E7CDCEFF22EE
:100A0700EDD2E7CD33EC3392D524814006E4FFFEE7
:100A1700FDFC22FCE4CFCECDCC24E0501174FF8046
:100A2700EDC3CC13CCCD13CDCE13CECF13CF0470E3
:070A3700F030D5DE020C9D3A
:100A3E0088827D80E4FEFF120CB71206C5A882E6FE
:0F0A4E00CCF608E6CDF608E6CEF608E6CFF6229F
:100A5D00E9D2E7C933E833F892D5EDD2E7CD33ECDF
:070A6D0033FC5002B2D52258
:100A7400EC30E7100FBF000C0EBE00080DBD0004E3
:100A84000BEB6014A2D5EB13FCED92E7FD2274FF8F
:100A9400FCFDFEFF22E480F8A2D574FF13FC7D80E8
:030AA400E480EFFC
:030000000217E202
:0C17E200787FE4F6D8FD758154021829C8
:100AA700E709F608DFFA8046E709F208DFFA803E31
:100AB70088828C83E709F0A3DFFA8032E309F6081E
:100AC700DFFA8078E309F208DFFA807088828C8386
:100AD700E309F0A3DFFA806489828A83E0A3F6083A
:100AE700DFFA805889828A83E0A3F208DFFA804C14
:100AF70080D280FA80C680D4806980F280338010EB
:100B070080A680EA809A80A880DA80E280CA803353
:100B170089828A83ECFAE493A3C8C582C8CCC583CB
:100B2700CCF0A3C8C582C8CCC583CCDFE9DEE7809B
:100B37000D89828A83E493A3F608DFF9ECFAA9F01A
:100B4700EDFB2289828A83ECFAE0A3C8C582C8CC70
:100B5700C583CCF0A3C8C582C8CCC583CCDFEADE89
:100B6700E880DB89828A83E493A3F208DFF980CCEB
:100B770088F0EF60010E4E60C388F0ED2402B404E4
:100B87000050B9F582EB2402B4040050AF2323458B
:060B97008223900AF773AF
:100B9D00BB010689828A83E0225002E722BBFE0256
:090BAD00E32289828A83E4932289
:100BB600BB010CE58229F582E5833AF583E02250F4
:100BC60006E92582F8E622BBFE06E92582F8E2223E
:0D0BD600E58229F582E5833AF583E4932258
:100BE300BC000BBE0029EF8DF084FFADF022E4CCF6
:100BF300F875F008EF2FFFEE33FEEC33FCEE9DECBF
:100C0300984005FCEE9DFE0FD5F0E9E4CEFD22ED04
:100C1300F8F5F0EE8420D21CFEADF075F008EF2F4E
:100C2300FFED33FD4007985006D5F0F222C398FD3F
:050C33000FD5F0EA22DC
:100C3800BB0110E58229F582E5833AF583E0F5F0FA
:100C4800A3E0225009E92582F886F008E622BBFED7
:100C58000AE92582F8E2F5F008E222E5832AF5831D
:080C6800E993F5F0A3E99322E2
:100C7000F8BB0111E58229F582E5833AF583E8F0B6
:100C8000E5F0A3F0225009E92582C8F608A6F02273
:0D0C9000BBFE09E92582C8F2E5F008F2225A
:0E0C9D00C3E49FFFE49EFEE49DFDE49CFC2268
:0C0CAB00E6FC08E6FD08E6FE08E6FF2275
:0D0CB700E6FB08E6F908E6FA08E6CBF822AD
:0C0CC400ECF608EDF608EEF608EFF6225C
:0C0CD000A42582F582E5F03583F583222F
:1017EE000219ECE493A3F8E493A34003F68001F20C
:1017FE0008DFF48029E493A3F85407240CC8C333FC
:10180E00C4540F4420C8834004F456800146F6DFCA
:10181E00E4800B0102040810204080901633E47E11
:10182E00019360BCA3FF543F30E509541FFEE493BF
:10183E00A360010ECF54C025E060A840B8E493A386
:10184E00FAE493A3F8E493A3C8C582C8CAC583CAB1
:10185E00F0A3C8C582C8CAC583CADFE9DEE780BE69
:0116C4000025
:00000001FF
